{"abi":[{"inputs":[{"internalType":"address payable","name":"_beneficiary","type":"address"},{"internalType":"uint256","name":"_bidUnits","type":"uint256"}],"stateMutability":"nonpayable","type":"constructor","name":"constructor"},{"anonymous":false,"inputs":[{"indexed":true,"internalType":"address","name":"owner","type":"address"},{"indexed":true,"internalType":"address","name":"approved","type":"address"},{"indexed":true,"internalType":"uint256","name":"tokenId","type":"uint256"}],"name":"Approval","type":"event"},{"anonymous":false,"inputs":[{"indexed":true,"internalType":"address","name":"owner","type":"address"},{"indexed":true,"internalType":"address","name":"operator","type":"address"},{"indexed":false,"internalType":"bool","name":"approved","type":"bool"}],"name":"ApprovalForAll","type":"event"},{"anonymous":false,"inputs":[{"indexed":true,"internalType":"address","name":"from","type":"address"},{"indexed":true,"internalType":"address","name":"to","type":"address"},{"indexed":true,"internalType":"uint256","name":"tokenId","type":"uint256"}],"name":"Transfer","type":"event"},{"stateMutability":"payable","type":"fallback"},{"inputs":[{"internalType":"address","name":"to","type":"address"},{"internalType":"uint256","name":"tokenId","type":"uint256"}],"name":"approve","outputs":[],"stateMutability":"nonpayable","type":"function"},{"inputs":[],"name":"auctionEndTime","outputs":[{"internalType":"uint256","name":"","type":"uint256"}],"stateMutability":"view","type":"function"},{"inputs":[],"name":"auctionEnded","outputs":[{"internalType":"bool","name":"","type":"bool"}],"stateMutability":"view","type":"function"},{"inputs":[{"internalType":"address","name":"owner","type":"address"}],"name":"balanceOf","outputs":[{"internalType":"uint256","name":"","type":"uint256"}],"stateMutability":"view","type":"function"},{"inputs":[],"name":"bidRare","outputs":[],"stateMutability":"payable","type":"function"},{"inputs":[],"name":"bidUnits","outputs":[{"internalType":"uint256","name":"","type":"uint256"}],"stateMutability":"view","type":"function"},{"inputs":[{"internalType":"address","name":"","type":"address"}],"name":"bids","outputs":[{"internalType":"uint256","name":"","type":"uint256"}],"stateMutability":"view","type":"function"},{"inputs":[{"internalType":"uint256","name":"tokenId","type":"uint256"}],"name":"getApproved","outputs":[{"internalType":"address","name":"","type":"address"}],"stateMutability":"view","type":"function"},{"inputs":[{"internalType":"address","name":"owner","type":"address"},{"internalType":"address","name":"operator","type":"address"}],"name":"isApprovedForAll","outputs":[{"internalType":"bool","name":"","type":"bool"}],"stateMutability":"view","type":"function"},{"inputs":[{"internalType":"address","name":"winner","type":"address"}],"name":"isTopBidder","outputs":[{"internalType":"bool","name":"","type":"bool"}],"stateMutability":"view","type":"function"},{"inputs":[],"name":"lastBidTime","outputs":[{"internalType":"uint256","name":"","type":"uint256"}],"stateMutability":"view","type":"function"},{"inputs":[],"name":"name","outputs":[{"internalType":"string","name":"","type":"string"}],"stateMutability":"view","type":"function"},{"inputs":[{"internalType":"uint256","name":"tokenId","type":"uint256"}],"name":"ownerOf","outputs":[{"internalType":"address","name":"","type":"address"}],"stateMutability":"view","type":"function"},{"inputs":[{"internalType":"address","name":"from","type":"address"},{"internalType":"address","name":"to","type":"address"},{"internalType":"uint256","name":"tokenId","type":"uint256"}],"name":"safeTransferFrom","outputs":[],"stateMutability":"nonpayable","type":"function"},{"inputs":[{"internalType":"address","name":"from","type":"address"},{"internalType":"address","name":"to","type":"address"},{"internalType":"uint256","name":"tokenId","type":"uint256"},{"internalType":"bytes","name":"_data","type":"bytes"}],"name":"safeTransferFrom","outputs":[],"stateMutability":"nonpayable","type":"function"},{"inputs":[{"internalType":"address","name":"operator","type":"address"},{"internalType":"bool","name":"approved","type":"bool"}],"name":"setApprovalForAll","outputs":[],"stateMutability":"nonpayable","type":"function"},{"inputs":[],"name":"setAuctionEnded","outputs":[],"stateMutability":"nonpayable","type":"function"},{"inputs":[{"internalType":"string","name":"_newUri","type":"string"}],"name":"setDefaultMetadata","outputs":[],"stateMutability":"nonpayable","type":"function"},{"inputs":[{"internalType":"uint256","name":"_tokenId","type":"uint256"},{"internalType":"string","name":"_newUri","type":"string"}],"name":"setTokenUri","outputs":[],"stateMutability":"nonpayable","type":"function"},{"inputs":[{"internalType":"bytes4","name":"interfaceId","type":"bytes4"}],"name":"supportsInterface","outputs":[{"internalType":"bool","name":"","type":"bool"}],"stateMutability":"view","type":"function"},{"inputs":[],"name":"symbol","outputs":[{"internalType":"string","name":"","type":"string"}],"stateMutability":"view","type":"function"},{"inputs":[{"internalType":"uint256","name":"index","type":"uint256"}],"name":"tokenByIndex","outputs":[{"internalType":"uint256","name":"","type":"uint256"}],"stateMutability":"view","type":"function"},{"inputs":[{"internalType":"address","name":"owner","type":"address"},{"internalType":"uint256","name":"index","type":"uint256"}],"name":"tokenOfOwnerByIndex","outputs":[{"internalType":"uint256","name":"","type":"uint256"}],"stateMutability":"view","type":"function"},{"inputs":[{"internalType":"uint256","name":"tokenId","type":"uint256"}],"name":"tokenURI","outputs":[{"internalType":"string","name":"","type":"string"}],"stateMutability":"view","type":"function"},{"inputs":[{"internalType":"uint256","name":"","type":"uint256"}],"name":"topBidders","outputs":[{"internalType":"uint256","name":"balance","type":"uint256"},{"internalType":"address","name":"addr","type":"address"}],"stateMutability":"view","type":"function"},{"inputs":[],"name":"totalSupply","outputs":[{"internalType":"uint256","name":"","type":"uint256"}],"stateMutability":"view","type":"function"},{"inputs":[{"internalType":"address","name":"from","type":"address"},{"internalType":"address","name":"to","type":"address"},{"internalType":"uint256","name":"tokenId","type":"uint256"}],"name":"transferFrom","outputs":[],"stateMutability":"nonpayable","type":"function"},{"inputs":[{"internalType":"address payable","name":"_newBeneficiary","type":"address"}],"name":"updateBeneficiary","outputs":[],"stateMutability":"nonpayable","type":"function"},{"inputs":[],"name":"withdraw","outputs":[],"stateMutability":"nonpayable","type":"function"},{"inputs":[],"name":"withdrawTreasury","outputs":[],"stateMutability":"nonpayable","type":"function"},{"inputs":[],"name":"withdrawWindow","outputs":[{"internalType":"uint256","name":"","type":"uint256"}],"stateMutability":"view","type":"function"},{"inputs":[{"internalType":"address","name":"","type":"address"}],"name":"withdrawableBalance","outputs":[{"internalType":"uint256","name":"","type":"uint256"}],"stateMutability":"view","type":"function"},{"stateMutability":"payable","type":"receive"}],"bytecode":"60806040526019805460ff1916905562278d00601b553480156200002257600080fd5b506040516200247b3803806200247b833981016040819052620000459162000196565b604080518082018252601681527f50414344414f20414354494f4e204e465420524152450000000000000000000060208083019182528351808501909452600b84526a5041432d41312d5241524560a81b908401528151919291620000ad91600091620000f0565b508051620000c3906001906020840190620000f0565b5050600a80546001600160a01b0319166001600160a01b039490941693909317909255600b55506200020f565b828054620000fe90620001d2565b90600052602060002090601f0160209004810192826200012257600085556200016d565b82601f106200013d57805160ff19168380011785556200016d565b828001600101855582156200016d579182015b828111156200016d57825182559160200191906001019062000150565b506200017b9291506200017f565b5090565b5b808211156200017b576000815560010162000180565b60008060408385031215620001aa57600080fd5b82516001600160a01b0381168114620001c257600080fd5b6020939093015192949293505050565b600181811c90821680620001e757607f821691505b602082108114156200020957634e487b7160e01b600052602260045260246000fd5b50919050565b61225c806200021f6000396000f3fe6080604052600436106101ce5760003560e01c806357f7789e116100f6578063a22cb4651161008f578063d15ecc0911610061578063d15ecc0914610549578063e985e9c514610551578063f69a57b91461059a578063fa4d6969146105d757005b8063a22cb465146104d3578063b88d4fde146104f3578063c87b56dd14610513578063cb028a831461053357005b806370a08231116100c857806370a082311461046f57806380aa34771461048f57806386433374146104a457806395d89b41146104be57005b806357f7789e146103ec57806362ea82db1461040c5780636352211e14610439578063642ab4b11461045957005b806318160ddd116101685780633ccfd60b1161013a5780633ccfd60b1461038157806342842e0e146103965780634b449cba146103b65780634f6ccce7146103cc57005b806318160ddd1461030c57806323b872dd146103215780632f745c591461034157806334ee49ee1461036157005b8063081812fc116101a1578063081812fc1461027f578063095ea7b3146102b75780630aaffd2a146102d7578063166bab95146102f757005b806238675e146101d757806301ffc9a71461020057806302b629381461023057806306fdde031461025d57005b366101d557005b005b3480156101e357600080fd5b506101ed600b5481565b6040519081526020015b60405180910390f35b34801561020c57600080fd5b5061022061021b366004611e61565b6105f7565b60405190151581526020016101f7565b34801561023c57600080fd5b506101ed61024b366004611ceb565b600e6020526000908152604090205481565b34801561026957600080fd5b50610272610622565b6040516101f79190611fc8565b34801561028b57600080fd5b5061029f61029a366004611ed0565b6106b4565b6040516001600160a01b0390911681526020016101f7565b3480156102c357600080fd5b506101d56102d2366004611e35565b61074e565b3480156102e357600080fd5b506101d56102f2366004611ceb565b610864565b34801561030357600080fd5b506101d561089d565b34801561031857600080fd5b506008546101ed565b34801561032d57600080fd5b506101d561033c366004611d41565b610972565b34801561034d57600080fd5b506101ed61035c366004611e35565b6109a3565b34801561036d57600080fd5b5061022061037c366004611ceb565b610a39565b34801561038d57600080fd5b506101d5610a9e565b3480156103a257600080fd5b506101d56103b1366004611d41565b610bdb565b3480156103c257600080fd5b506101ed601a5481565b3480156103d857600080fd5b506101ed6103e7366004611ed0565b610bf6565b3480156103f857600080fd5b506101d5610407366004611ee9565b610c89565b34801561041857600080fd5b506101ed610427366004611ceb565b600d6020526000908152604090205481565b34801561044557600080fd5b5061029f610454366004611ed0565b610ca0565b34801561046557600080fd5b506101ed600c5481565b34801561047b57600080fd5b506101ed61048a366004611ceb565b610d17565b34801561049b57600080fd5b506101d5610d9e565b3480156104b057600080fd5b506019546102209060ff1681565b3480156104ca57600080fd5b50610272610e11565b3480156104df57600080fd5b506101d56104ee366004611e02565b610e20565b3480156104ff57600080fd5b506101d561050e366004611d82565b610ee5565b34801561051f57600080fd5b5061027261052e366004611ed0565b610f1d565b34801561053f57600080fd5b506101ed601b5481565b6101d5611005565b34801561055d57600080fd5b5061022061056c366004611d08565b6001600160a01b03918216600090815260056020908152604080832093909416825291909152205460ff1690565b3480156105a657600080fd5b506105ba6105b5366004611ed0565b611117565b604080519283526001600160a01b039091166020830152016101f7565b3480156105e357600080fd5b506101d56105f2366004611e9b565b611142565b60006001600160e01b0319821663780e9d6360e01b148061061c575061061c82611159565b92915050565b60606000805461063190612123565b80601f016020809104026020016040519081016040528092919081815260200182805461065d90612123565b80156106aa5780601f1061067f576101008083540402835291602001916106aa565b820191906000526020600020905b81548152906001019060200180831161068d57829003601f168201915b5050505050905090565b6000818152600260205260408120546001600160a01b03166107325760405162461bcd60e51b815260206004820152602c60248201527f4552433732313a20617070726f76656420717565727920666f72206e6f6e657860448201526b34b9ba32b73a103a37b5b2b760a11b60648201526084015b60405180910390fd5b506000908152600460205260409020546001600160a01b031690565b600061075982610ca0565b9050806001600160a01b0316836001600160a01b031614156107c75760405162461bcd60e51b815260206004820152602160248201527f4552433732313a20617070726f76616c20746f2063757272656e74206f776e656044820152603960f91b6064820152608401610729565b336001600160a01b03821614806107e357506107e3813361056c565b6108555760405162461bcd60e51b815260206004820152603860248201527f4552433732313a20617070726f76652063616c6c6572206973206e6f74206f7760448201527f6e6572206e6f7220617070726f76656420666f7220616c6c00000000000000006064820152608401610729565b61085f83836111a9565b505050565b600a546001600160a01b0316331461087b57600080fd5b600a80546001600160a01b0319166001600160a01b0392909216919091179055565b60195460ff1615156001146108e65760405162461bcd60e51b815260206004820152600f60248201526e41756374696f6e206f6e676f696e6760881b6044820152606401610729565b601b54601a546108f6919061207e565b42116109365760405162461bcd60e51b815260206004820152600f60248201526e57697468647261772077696e646f7760881b6044820152606401610729565b600a546040516001600160a01b03909116904780156108fc02916000818181858888f1935050505015801561096f573d6000803e3d6000fd5b50565b61097c3382611217565b6109985760405162461bcd60e51b81526004016107299061202d565b61085f83838361130e565b60006109ae83610d17565b8210610a105760405162461bcd60e51b815260206004820152602b60248201527f455243373231456e756d657261626c653a206f776e657220696e646578206f7560448201526a74206f6620626f756e647360a81b6064820152608401610729565b506001600160a01b03919091166000908152600660209081526040808320938352929052205490565b6000805b6005811015610a9557826001600160a01b0316600f8260058110610a6357610a636121cf565b60020201600101546001600160a01b03161415610a835750600192915050565b80610a8d8161215e565b915050610a3d565b50600092915050565b60195460ff161515600114610ae95760405162461bcd60e51b8152602060048201526011602482015270105d58dd1a5bdb881b9bdd08195b991959607a1b6044820152606401610729565b601b54601a54610af9919061207e565b421115610b405760405162461bcd60e51b815260206004820152601560248201527415da5d1a191c985dc81dda5b991bddc8195b991959605a1b6044820152606401610729565b610b4933610a39565b15610b965760405162461bcd60e51b815260206004820152601760248201527f57696e6e6572732063616e6e6f742077697468647261770000000000000000006044820152606401610729565b336000818152600e6020526040808220805490839055905190929183156108fc02918491818181858888f19350505050158015610bd7573d6000803e3d6000fd5b5050565b61085f83838360405180602001604052806000815250610ee5565b6000610c0160085490565b8210610c645760405162461bcd60e51b815260206004820152602c60248201527f455243373231456e756d657261626c653a20676c6f62616c20696e646578206f60448201526b7574206f6620626f756e647360a01b6064820152608401610729565b60088281548110610c7757610c776121cf565b90600052602060002001549050919050565b600a546001600160a01b03163314610bd757600080fd5b6000818152600260205260408120546001600160a01b03168061061c5760405162461bcd60e51b815260206004820152602960248201527f4552433732313a206f776e657220717565727920666f72206e6f6e657869737460448201526832b73a103a37b5b2b760b91b6064820152608401610729565b60006001600160a01b038216610d825760405162461bcd60e51b815260206004820152602a60248201527f4552433732313a2062616c616e636520717565727920666f7220746865207a65604482015269726f206164647265737360b01b6064820152608401610729565b506001600160a01b031660009081526003602052604090205490565b600a546001600160a01b03163314610db557600080fd5b6019805460ff1916600117905542601a5560005b600581101561096f57610dff600f8260058110610de857610de86121cf565b60020201600101546001600160a01b0316826114b9565b80610e098161215e565b915050610dc9565b60606001805461063190612123565b6001600160a01b038216331415610e795760405162461bcd60e51b815260206004820152601960248201527f4552433732313a20617070726f766520746f2063616c6c6572000000000000006044820152606401610729565b3360008181526005602090815260408083206001600160a01b03871680855290835292819020805460ff191686151590811790915590519081529192917f17307eab39ab6107e8899845ad3d59bd9653f200f220920489ca2b5937696c31910160405180910390a35050565b610eef3383611217565b610f0b5760405162461bcd60e51b81526004016107299061202d565b610f17848484846114d3565b50505050565b6000818152600260205260409020546060906001600160a01b0316610f9c5760405162461bcd60e51b815260206004820152602f60248201527f4552433732314d657461646174613a2055524920717565727920666f72206e6f60448201526e3732bc34b9ba32b73a103a37b5b2b760891b6064820152608401610729565b6000610fb360408051602081019091526000815290565b90506000815111610fd35760405180602001604052806000815250610ffe565b80610fdd84611506565b604051602001610fee929190611f5c565b6040516020818303038152906040525b9392505050565b60195460ff16156110475760405162461bcd60e51b815260206004820152600c60248201526b20bab1ba34b7b71037bb32b960a11b6044820152606401610729565b600b5434906110568183612096565b61106091906120aa565b146110995760405162461bcd60e51b815260206004820152600960248201526842696420756e69747360b81b6044820152606401610729565b336000908152600d6020526040812080543492906110b890849061207e565b909155505042600c55336000818152600d60205260409020546110db9190611604565b6110e6600a34612096565b6110f19060096120aa565b336000908152600e60205260408120805490919061111090849061207e565b9091555050565b600f816005811061112757600080fd5b6002020180546001909101549091506001600160a01b031682565b600a546001600160a01b0316331461096f57600080fd5b60006001600160e01b031982166380ac58cd60e01b148061118a57506001600160e01b03198216635b5e139f60e01b145b8061061c57506301ffc9a760e01b6001600160e01b031983161461061c565b600081815260046020526040902080546001600160a01b0319166001600160a01b03841690811790915581906111de82610ca0565b6001600160a01b03167f8c5be1e5ebec7d5bd14f71427d1e84f3dd0314c0f7b2291e5b200ac8c7c3b92560405160405180910390a45050565b6000818152600260205260408120546001600160a01b03166112905760405162461bcd60e51b815260206004820152602c60248201527f4552433732313a206f70657261746f7220717565727920666f72206e6f6e657860448201526b34b9ba32b73a103a37b5b2b760a11b6064820152608401610729565b600061129b83610ca0565b9050806001600160a01b0316846001600160a01b031614806112d65750836001600160a01b03166112cb846106b4565b6001600160a01b0316145b8061130657506001600160a01b0380821660009081526005602090815260408083209388168352929052205460ff165b949350505050565b826001600160a01b031661132182610ca0565b6001600160a01b0316146113895760405162461bcd60e51b815260206004820152602960248201527f4552433732313a207472616e73666572206f6620746f6b656e2074686174206960448201526839903737ba1037bbb760b91b6064820152608401610729565b6001600160a01b0382166113eb5760405162461bcd60e51b8152602060048201526024808201527f4552433732313a207472616e7366657220746f20746865207a65726f206164646044820152637265737360e01b6064820152608401610729565b6113f683838361177f565b6114016000826111a9565b6001600160a01b038316600090815260036020526040812080546001929061142a9084906120c9565b90915550506001600160a01b038216600090815260036020526040812080546001929061145890849061207e565b909155505060008181526002602052604080822080546001600160a01b0319166001600160a01b0386811691821790925591518493918716917fddf252ad1be2c89b69c2b068fc378daa952ba7f163c4a11628f55a4df523b3ef91a4505050565b610bd7828260405180602001604052806000815250611837565b6114de84848461130e565b6114ea8484848461186a565b610f175760405162461bcd60e51b815260040161072990611fdb565b60608161152a5750506040805180820190915260018152600360fc1b602082015290565b8160005b8115611554578061153e8161215e565b915061154d9050600a83612096565b915061152e565b60008167ffffffffffffffff81111561156f5761156f6121e5565b6040519080825280601f01601f191660200182016040528015611599576020820181803683370190505b5090505b8415611306576115ae6001836120c9565b91506115bb600a86612179565b6115c690603061207e565b60f81b8183815181106115db576115db6121cf565b60200101906001600160f81b031916908160001a9053506115fd600a86612096565b945061159d565b60005b60058110156116465781600f8260058110611624576116246121cf565b6002020154101561163457611646565b8061163e8161215e565b915050611607565b6000611654600160056120c9565b90505b8181111561171857600f61166c6001836120c9565b6005811061167c5761167c6121cf565b6002020154600f8260058110611694576116946121cf565b6002020155600f6116a66001836120c9565b600581106116b6576116b66121cf565b60020201600101546001600160a01b0316600f82600581106116da576116da6121cf565b6002020160010160006101000a8154816001600160a01b0302191690836001600160a01b0316021790555080806117109061210c565b915050611657565b50600581101561085f5781600f8260058110611736576117366121cf565b600202015582600f826005811061174f5761174f6121cf565b6002020160010160006101000a8154816001600160a01b0302191690836001600160a01b03160217905550505050565b6001600160a01b0383166117da576117d581600880546000838152600960205260408120829055600182018355919091527ff3f7a9fe364faab93b216da50a3214154f22a0a2b415b23a84c8169e8b636ee30155565b6117fd565b816001600160a01b0316836001600160a01b0316146117fd576117fd8382611977565b6001600160a01b0382166118145761085f81611a14565b826001600160a01b0316826001600160a01b03161461085f5761085f8282611ac3565b6118418383611b07565b61184e600084848461186a565b61085f5760405162461bcd60e51b815260040161072990611fdb565b60006001600160a01b0384163b1561196c57604051630a85bd0160e11b81526001600160a01b0385169063150b7a02906118ae903390899088908890600401611f8b565b602060405180830381600087803b1580156118c857600080fd5b505af19250505080156118f8575060408051601f3d908101601f191682019092526118f591810190611e7e565b60015b611952573d808015611926576040519150601f19603f3d011682016040523d82523d6000602084013e61192b565b606091505b50805161194a5760405162461bcd60e51b815260040161072990611fdb565b805181602001fd5b6001600160e01b031916630a85bd0160e11b149050611306565b506001949350505050565b6000600161198484610d17565b61198e91906120c9565b6000838152600760205260409020549091508082146119e1576001600160a01b03841660009081526006602090815260408083208584528252808320548484528184208190558352600790915290208190555b5060009182526007602090815260408084208490556001600160a01b039094168352600681528383209183525290812055565b600854600090611a26906001906120c9565b60008381526009602052604081205460088054939450909284908110611a4e57611a4e6121cf565b906000526020600020015490508060088381548110611a6f57611a6f6121cf565b6000918252602080832090910192909255828152600990915260408082208490558582528120556008805480611aa757611aa76121b9565b6001900381819060005260206000200160009055905550505050565b6000611ace83610d17565b6001600160a01b039093166000908152600660209081526040808320868452825280832085905593825260079052919091209190915550565b6001600160a01b038216611b5d5760405162461bcd60e51b815260206004820181905260248201527f4552433732313a206d696e7420746f20746865207a65726f20616464726573736044820152606401610729565b6000818152600260205260409020546001600160a01b031615611bc25760405162461bcd60e51b815260206004820152601c60248201527f4552433732313a20746f6b656e20616c7265616479206d696e746564000000006044820152606401610729565b611bce6000838361177f565b6001600160a01b0382166000908152600360205260408120805460019290611bf790849061207e565b909155505060008181526002602052604080822080546001600160a01b0319166001600160a01b03861690811790915590518392907fddf252ad1be2c89b69c2b068fc378daa952ba7f163c4a11628f55a4df523b3ef908290a45050565b600067ffffffffffffffff80841115611c7057611c706121e5565b604051601f8501601f19908116603f01168101908282118183101715611c9857611c986121e5565b81604052809350858152868686011115611cb157600080fd5b858560208301376000602087830101525050509392505050565b600082601f830112611cdc57600080fd5b610ffe83833560208501611c55565b600060208284031215611cfd57600080fd5b8135610ffe816121fb565b60008060408385031215611d1b57600080fd5b8235611d26816121fb565b91506020830135611d36816121fb565b809150509250929050565b600080600060608486031215611d5657600080fd5b8335611d61816121fb565b92506020840135611d71816121fb565b929592945050506040919091013590565b60008060008060808587031215611d9857600080fd5b8435611da3816121fb565b93506020850135611db3816121fb565b925060408501359150606085013567ffffffffffffffff811115611dd657600080fd5b8501601f81018713611de757600080fd5b611df687823560208401611c55565b91505092959194509250565b60008060408385031215611e1557600080fd5b8235611e20816121fb565b915060208301358015158114611d3657600080fd5b60008060408385031215611e4857600080fd5b8235611e53816121fb565b946020939093013593505050565b600060208284031215611e7357600080fd5b8135610ffe81612210565b600060208284031215611e9057600080fd5b8151610ffe81612210565b600060208284031215611ead57600080fd5b813567ffffffffffffffff811115611ec457600080fd5b61130684828501611ccb565b600060208284031215611ee257600080fd5b5035919050565b60008060408385031215611efc57600080fd5b82359150602083013567ffffffffffffffff811115611f1a57600080fd5b611f2685828601611ccb565b9150509250929050565b60008151808452611f488160208601602086016120e0565b601f01601f19169290920160200192915050565b60008351611f6e8184602088016120e0565b835190830190611f828183602088016120e0565b01949350505050565b6001600160a01b0385811682528416602082015260408101839052608060608201819052600090611fbe90830184611f30565b9695505050505050565b602081526000610ffe6020830184611f30565b60208082526032908201527f4552433732313a207472616e7366657220746f206e6f6e20455243373231526560408201527131b2b4bb32b91034b6b83632b6b2b73a32b960711b606082015260800190565b60208082526031908201527f4552433732313a207472616e736665722063616c6c6572206973206e6f74206f6040820152701ddb995c881b9bdc88185c1c1c9bdd9959607a1b606082015260800190565b600082198211156120915761209161218d565b500190565b6000826120a5576120a56121a3565b500490565b60008160001904831182151516156120c4576120c461218d565b500290565b6000828210156120db576120db61218d565b500390565b60005b838110156120fb5781810151838201526020016120e3565b83811115610f175750506000910152565b60008161211b5761211b61218d565b506000190190565b600181811c9082168061213757607f821691505b6020821081141561215857634e487b7160e01b600052602260045260246000fd5b50919050565b60006000198214156121725761217261218d565b5060010190565b600082612188576121886121a3565b500690565b634e487b7160e01b600052601160045260246000fd5b634e487b7160e01b600052601260045260246000fd5b634e487b7160e01b600052603160045260246000fd5b634e487b7160e01b600052603260045260246000fd5b634e487b7160e01b600052604160045260246000fd5b6001600160a01b038116811461096f57600080fd5b6001600160e01b03198116811461096f57600080fdfea2646970667358221220f62638175d2e3440f112790cba93e66208885f9a06e9e4d9cd8d46be7ba2653164736f6c63430008070033","bytecodeSha1":"ad4ba2ff67fb11f4f2ff14ac048972144c3e7f41","compiler":{"evm_version":"istanbul","optimizer":{"enabled":true,"runs":200},"version":"0.8.7+commit.e28d00a7"},"contractName":"ActionNFTRare","language":"Solidity","natspec":{"kind":"dev","methods":{"approve(address,uint256)":{"details":"See {IERC721-approve}."},"balanceOf(address)":{"details":"See {IERC721-balanceOf}."},"getApproved(uint256)":{"details":"See {IERC721-getApproved}."},"isApprovedForAll(address,address)":{"details":"See {IERC721-isApprovedForAll}."},"name()":{"details":"See {IERC721Metadata-name}."},"ownerOf(uint256)":{"details":"See {IERC721-ownerOf}."},"safeTransferFrom(address,address,uint256)":{"details":"See {IERC721-safeTransferFrom}."},"safeTransferFrom(address,address,uint256,bytes)":{"details":"See {IERC721-safeTransferFrom}."},"setApprovalForAll(address,bool)":{"details":"See {IERC721-setApprovalForAll}."},"supportsInterface(bytes4)":{"details":"See {IERC165-supportsInterface}."},"symbol()":{"details":"See {IERC721Metadata-symbol}."},"tokenByIndex(uint256)":{"details":"See {IERC721Enumerable-tokenByIndex}."},"tokenOfOwnerByIndex(address,uint256)":{"details":"See {IERC721Enumerable-tokenOfOwnerByIndex}."},"tokenURI(uint256)":{"details":"See {IERC721Metadata-tokenURI}."},"totalSupply()":{"details":"See {IERC721Enumerable-totalSupply}."},"transferFrom(address,address,uint256)":{"details":"See {IERC721-transferFrom}."}},"version":1},"opcodes":"PUSH1 0x80 PUSH1 0x40 MSTORE PUSH1 0x4 CALLDATASIZE LT PUSH2 0x1CE JUMPI PUSH1 0x0 CALLDATALOAD PUSH1 0xE0 SHR DUP1 PUSH4 0x57F7789E GT PUSH2 0xF6 JUMPI DUP1 PUSH4 0xA22CB465 GT PUSH2 0x8F JUMPI DUP1 PUSH4 0xD15ECC09 GT PUSH2 0x61 JUMPI DUP1 PUSH4 0xD15ECC09 EQ PUSH2 0x549 JUMPI DUP1 PUSH4 0xE985E9C5 EQ PUSH2 0x551 JUMPI DUP1 PUSH4 0xF69A57B9 EQ PUSH2 0x59A JUMPI DUP1 PUSH4 0xFA4D6969 EQ PUSH2 0x5D7 JUMPI STOP JUMPDEST DUP1 PUSH4 0xA22CB465 EQ PUSH2 0x4D3 JUMPI DUP1 PUSH4 0xB88D4FDE EQ PUSH2 0x4F3 JUMPI DUP1 PUSH4 0xC87B56DD EQ PUSH2 0x513 JUMPI DUP1 PUSH4 0xCB028A83 EQ PUSH2 0x533 JUMPI STOP JUMPDEST DUP1 PUSH4 0x70A08231 GT PUSH2 0xC8 JUMPI DUP1 PUSH4 0x70A08231 EQ PUSH2 0x46F JUMPI DUP1 PUSH4 0x80AA3477 EQ PUSH2 0x48F JUMPI DUP1 PUSH4 0x86433374 EQ PUSH2 0x4A4 JUMPI DUP1 PUSH4 0x95D89B41 EQ PUSH2 0x4BE JUMPI STOP JUMPDEST DUP1 PUSH4 0x57F7789E EQ PUSH2 0x3EC JUMPI DUP1 PUSH4 0x62EA82DB EQ PUSH2 0x40C JUMPI DUP1 PUSH4 0x6352211E EQ PUSH2 0x439 JUMPI DUP1 PUSH4 0x642AB4B1 EQ PUSH2 0x459 JUMPI STOP JUMPDEST DUP1 PUSH4 0x18160DDD GT PUSH2 0x168 JUMPI DUP1 PUSH4 0x3CCFD60B GT PUSH2 0x13A JUMPI DUP1 PUSH4 0x3CCFD60B EQ PUSH2 0x381 JUMPI DUP1 PUSH4 0x42842E0E EQ PUSH2 0x396 JUMPI DUP1 PUSH4 0x4B449CBA EQ PUSH2 0x3B6 JUMPI DUP1 PUSH4 0x4F6CCCE7 EQ PUSH2 0x3CC JUMPI STOP JUMPDEST DUP1 PUSH4 0x18160DDD EQ PUSH2 0x30C JUMPI DUP1 PUSH4 0x23B872DD EQ PUSH2 0x321 JUMPI DUP1 PUSH4 0x2F745C59 EQ PUSH2 0x341 JUMPI DUP1 PUSH4 0x34EE49EE EQ PUSH2 0x361 JUMPI STOP JUMPDEST DUP1 PUSH4 0x81812FC GT PUSH2 0x1A1 JUMPI DUP1 PUSH4 0x81812FC EQ PUSH2 0x27F JUMPI DUP1 PUSH4 0x95EA7B3 EQ PUSH2 0x2B7 JUMPI DUP1 PUSH4 0xAAFFD2A EQ PUSH2 0x2D7 JUMPI DUP1 PUSH4 0x166BAB95 EQ PUSH2 0x2F7 JUMPI STOP JUMPDEST DUP1 PUSH3 0x38675E EQ PUSH2 0x1D7 JUMPI DUP1 PUSH4 0x1FFC9A7 EQ PUSH2 0x200 JUMPI DUP1 PUSH4 0x2B62938 EQ PUSH2 0x230 JUMPI DUP1 PUSH4 0x6FDDE03 EQ PUSH2 0x25D JUMPI STOP JUMPDEST CALLDATASIZE PUSH2 0x1D5 JUMPI STOP JUMPDEST STOP JUMPDEST CALLVALUE DUP1 ISZERO PUSH2 0x1E3 JUMPI PUSH1 0x0 DUP1 REVERT JUMPDEST POP PUSH2 0x1ED PUSH1 0xB SLOAD DUP2 JUMP JUMPDEST PUSH1 0x40 MLOAD SWAP1 DUP2 MSTORE PUSH1 0x20 ADD JUMPDEST PUSH1 0x40 MLOAD DUP1 SWAP2 SUB SWAP1 RETURN JUMPDEST CALLVALUE DUP1 ISZERO PUSH2 0x20C JUMPI PUSH1 0x0 DUP1 REVERT JUMPDEST POP PUSH2 0x220 PUSH2 0x21B CALLDATASIZE PUSH1 0x4 PUSH2 0x1E61 JUMP JUMPDEST PUSH2 0x5F7 JUMP JUMPDEST PUSH1 0x40 MLOAD SWAP1 ISZERO ISZERO DUP2 MSTORE PUSH1 0x20 ADD PUSH2 0x1F7 JUMP JUMPDEST CALLVALUE DUP1 ISZERO PUSH2 0x23C JUMPI PUSH1 0x0 DUP1 REVERT JUMPDEST POP PUSH2 0x1ED PUSH2 0x24B CALLDATASIZE PUSH1 0x4 PUSH2 0x1CEB JUMP JUMPDEST PUSH1 0xE PUSH1 0x20 MSTORE PUSH1 0x0 SWAP1 DUP2 MSTORE PUSH1 0x40 SWAP1 KECCAK256 SLOAD DUP2 JUMP JUMPDEST CALLVALUE DUP1 ISZERO PUSH2 0x269 JUMPI PUSH1 0x0 DUP1 REVERT JUMPDEST POP PUSH2 0x272 PUSH2 0x622 JUMP JUMPDEST PUSH1 0x40 MLOAD PUSH2 0x1F7 SWAP2 SWAP1 PUSH2 0x1FC8 JUMP JUMPDEST CALLVALUE DUP1 ISZERO PUSH2 0x28B JUMPI PUSH1 0x0 DUP1 REVERT JUMPDEST POP PUSH2 0x29F PUSH2 0x29A CALLDATASIZE PUSH1 0x4 PUSH2 0x1ED0 JUMP JUMPDEST PUSH2 0x6B4 JUMP JUMPDEST PUSH1 0x40 MLOAD PUSH1 0x1 PUSH1 0x1 PUSH1 0xA0 SHL SUB SWAP1 SWAP2 AND DUP2 MSTORE PUSH1 0x20 ADD PUSH2 0x1F7 JUMP JUMPDEST CALLVALUE DUP1 ISZERO PUSH2 0x2C3 JUMPI PUSH1 0x0 DUP1 REVERT JUMPDEST POP PUSH2 0x1D5 PUSH2 0x2D2 CALLDATASIZE PUSH1 0x4 PUSH2 0x1E35 JUMP JUMPDEST PUSH2 0x74E JUMP JUMPDEST CALLVALUE DUP1 ISZERO PUSH2 0x2E3 JUMPI PUSH1 0x0 DUP1 REVERT JUMPDEST POP PUSH2 0x1D5 PUSH2 0x2F2 CALLDATASIZE PUSH1 0x4 PUSH2 0x1CEB JUMP JUMPDEST PUSH2 0x864 JUMP JUMPDEST CALLVALUE DUP1 ISZERO PUSH2 0x303 JUMPI PUSH1 0x0 DUP1 REVERT JUMPDEST POP PUSH2 0x1D5 PUSH2 0x89D JUMP JUMPDEST CALLVALUE DUP1 ISZERO PUSH2 0x318 JUMPI PUSH1 0x0 DUP1 REVERT JUMPDEST POP PUSH1 0x8 SLOAD PUSH2 0x1ED JUMP JUMPDEST CALLVALUE DUP1 ISZERO PUSH2 0x32D JUMPI PUSH1 0x0 DUP1 REVERT JUMPDEST POP PUSH2 0x1D5 PUSH2 0x33C CALLDATASIZE PUSH1 0x4 PUSH2 0x1D41 JUMP JUMPDEST PUSH2 0x972 JUMP JUMPDEST CALLVALUE DUP1 ISZERO PUSH2 0x34D JUMPI PUSH1 0x0 DUP1 REVERT JUMPDEST POP PUSH2 0x1ED PUSH2 0x35C CALLDATASIZE PUSH1 0x4 PUSH2 0x1E35 JUMP JUMPDEST PUSH2 0x9A3 JUMP JUMPDEST CALLVALUE DUP1 ISZERO PUSH2 0x36D JUMPI PUSH1 0x0 DUP1 REVERT JUMPDEST POP PUSH2 0x220 PUSH2 0x37C CALLDATASIZE PUSH1 0x4 PUSH2 0x1CEB JUMP JUMPDEST PUSH2 0xA39 JUMP JUMPDEST CALLVALUE DUP1 ISZERO PUSH2 0x38D JUMPI PUSH1 0x0 DUP1 REVERT JUMPDEST POP PUSH2 0x1D5 PUSH2 0xA9E JUMP JUMPDEST CALLVALUE DUP1 ISZERO PUSH2 0x3A2 JUMPI PUSH1 0x0 DUP1 REVERT JUMPDEST POP PUSH2 0x1D5 PUSH2 0x3B1 CALLDATASIZE PUSH1 0x4 PUSH2 0x1D41 JUMP JUMPDEST PUSH2 0xBDB JUMP JUMPDEST CALLVALUE DUP1 ISZERO PUSH2 0x3C2 JUMPI PUSH1 0x0 DUP1 REVERT JUMPDEST POP PUSH2 0x1ED PUSH1 0x1A SLOAD DUP2 JUMP JUMPDEST CALLVALUE DUP1 ISZERO PUSH2 0x3D8 JUMPI PUSH1 0x0 DUP1 REVERT JUMPDEST POP PUSH2 0x1ED PUSH2 0x3E7 CALLDATASIZE PUSH1 0x4 PUSH2 0x1ED0 JUMP JUMPDEST PUSH2 0xBF6 JUMP JUMPDEST CALLVALUE DUP1 ISZERO PUSH2 0x3F8 JUMPI PUSH1 0x0 DUP1 REVERT JUMPDEST POP PUSH2 0x1D5 PUSH2 0x407 CALLDATASIZE PUSH1 0x4 PUSH2 0x1EE9 JUMP JUMPDEST PUSH2 0xC89 JUMP JUMPDEST CALLVALUE DUP1 ISZERO PUSH2 0x418 JUMPI PUSH1 0x0 DUP1 REVERT JUMPDEST POP PUSH2 0x1ED PUSH2 0x427 CALLDATASIZE PUSH1 0x4 PUSH2 0x1CEB JUMP JUMPDEST PUSH1 0xD PUSH1 0x20 MSTORE PUSH1 0x0 SWAP1 DUP2 MSTORE PUSH1 0x40 SWAP1 KECCAK256 SLOAD DUP2 JUMP JUMPDEST CALLVALUE DUP1 ISZERO PUSH2 0x445 JUMPI PUSH1 0x0 DUP1 REVERT JUMPDEST POP PUSH2 0x29F PUSH2 0x454 CALLDATASIZE PUSH1 0x4 PUSH2 0x1ED0 JUMP JUMPDEST PUSH2 0xCA0 JUMP JUMPDEST CALLVALUE DUP1 ISZERO PUSH2 0x465 JUMPI PUSH1 0x0 DUP1 REVERT JUMPDEST POP PUSH2 0x1ED PUSH1 0xC SLOAD DUP2 JUMP JUMPDEST CALLVALUE DUP1 ISZERO PUSH2 0x47B JUMPI PUSH1 0x0 DUP1 REVERT JUMPDEST POP PUSH2 0x1ED PUSH2 0x48A CALLDATASIZE PUSH1 0x4 PUSH2 0x1CEB JUMP JUMPDEST PUSH2 0xD17 JUMP JUMPDEST CALLVALUE DUP1 ISZERO PUSH2 0x49B JUMPI PUSH1 0x0 DUP1 REVERT JUMPDEST POP PUSH2 0x1D5 PUSH2 0xD9E JUMP JUMPDEST CALLVALUE DUP1 ISZERO PUSH2 0x4B0 JUMPI PUSH1 0x0 DUP1 REVERT JUMPDEST POP PUSH1 0x19 SLOAD PUSH2 0x220 SWAP1 PUSH1 0xFF AND DUP2 JUMP JUMPDEST CALLVALUE DUP1 ISZERO PUSH2 0x4CA JUMPI PUSH1 0x0 DUP1 REVERT JUMPDEST POP PUSH2 0x272 PUSH2 0xE11 JUMP JUMPDEST CALLVALUE DUP1 ISZERO PUSH2 0x4DF JUMPI PUSH1 0x0 DUP1 REVERT JUMPDEST POP PUSH2 0x1D5 PUSH2 0x4EE CALLDATASIZE PUSH1 0x4 PUSH2 0x1E02 JUMP JUMPDEST PUSH2 0xE20 JUMP JUMPDEST CALLVALUE DUP1 ISZERO PUSH2 0x4FF JUMPI PUSH1 0x0 DUP1 REVERT JUMPDEST POP PUSH2 0x1D5 PUSH2 0x50E CALLDATASIZE PUSH1 0x4 PUSH2 0x1D82 JUMP JUMPDEST PUSH2 0xEE5 JUMP JUMPDEST CALLVALUE DUP1 ISZERO PUSH2 0x51F JUMPI PUSH1 0x0 DUP1 REVERT JUMPDEST POP PUSH2 0x272 PUSH2 0x52E CALLDATASIZE PUSH1 0x4 PUSH2 0x1ED0 JUMP JUMPDEST PUSH2 0xF1D JUMP JUMPDEST CALLVALUE DUP1 ISZERO PUSH2 0x53F JUMPI PUSH1 0x0 DUP1 REVERT JUMPDEST POP PUSH2 0x1ED PUSH1 0x1B SLOAD DUP2 JUMP JUMPDEST PUSH2 0x1D5 PUSH2 0x1005 JUMP JUMPDEST CALLVALUE DUP1 ISZERO PUSH2 0x55D JUMPI PUSH1 0x0 DUP1 REVERT JUMPDEST POP PUSH2 0x220 PUSH2 0x56C CALLDATASIZE PUSH1 0x4 PUSH2 0x1D08 JUMP JUMPDEST PUSH1 0x1 PUSH1 0x1 PUSH1 0xA0 SHL SUB SWAP2 DUP3 AND PUSH1 0x0 SWAP1 DUP2 MSTORE PUSH1 0x5 PUSH1 0x20 SWAP1 DUP2 MSTORE PUSH1 0x40 DUP1 DUP4 KECCAK256 SWAP4 SWAP1 SWAP5 AND DUP3 MSTORE SWAP2 SWAP1 SWAP2 MSTORE KECCAK256 SLOAD PUSH1 0xFF AND SWAP1 JUMP JUMPDEST CALLVALUE DUP1 ISZERO PUSH2 0x5A6 JUMPI PUSH1 0x0 DUP1 REVERT JUMPDEST POP PUSH2 0x5BA PUSH2 0x5B5 CALLDATASIZE PUSH1 0x4 PUSH2 0x1ED0 JUMP JUMPDEST PUSH2 0x1117 JUMP JUMPDEST PUSH1 0x40 DUP1 MLOAD SWAP3 DUP4 MSTORE PUSH1 0x1 PUSH1 0x1 PUSH1 0xA0 SHL SUB SWAP1 SWAP2 AND PUSH1 0x20 DUP4 ADD MSTORE ADD PUSH2 0x1F7 JUMP JUMPDEST CALLVALUE DUP1 ISZERO PUSH2 0x5E3 JUMPI PUSH1 0x0 DUP1 REVERT JUMPDEST POP PUSH2 0x1D5 PUSH2 0x5F2 CALLDATASIZE PUSH1 0x4 PUSH2 0x1E9B JUMP JUMPDEST PUSH2 0x1142 JUMP JUMPDEST PUSH1 0x0 PUSH1 0x1 PUSH1 0x1 PUSH1 0xE0 SHL SUB NOT DUP3 AND PUSH4 0x780E9D63 PUSH1 0xE0 SHL EQ DUP1 PUSH2 0x61C JUMPI POP PUSH2 0x61C DUP3 PUSH2 0x1159 JUMP JUMPDEST SWAP3 SWAP2 POP POP JUMP JUMPDEST PUSH1 0x60 PUSH1 0x0 DUP1 SLOAD PUSH2 0x631 SWAP1 PUSH2 0x2123 JUMP JUMPDEST DUP1 PUSH1 0x1F ADD PUSH1 0x20 DUP1 SWAP2 DIV MUL PUSH1 0x20 ADD PUSH1 0x40 MLOAD SWAP1 DUP2 ADD PUSH1 0x40 MSTORE DUP1 SWAP3 SWAP2 SWAP1 DUP2 DUP2 MSTORE PUSH1 0x20 ADD DUP3 DUP1 SLOAD PUSH2 0x65D SWAP1 PUSH2 0x2123 JUMP JUMPDEST DUP1 ISZERO PUSH2 0x6AA JUMPI DUP1 PUSH1 0x1F LT PUSH2 0x67F JUMPI PUSH2 0x100 DUP1 DUP4 SLOAD DIV MUL DUP4 MSTORE SWAP2 PUSH1 0x20 ADD SWAP2 PUSH2 0x6AA JUMP JUMPDEST DUP3 ADD SWAP2 SWAP1 PUSH1 0x0 MSTORE PUSH1 0x20 PUSH1 0x0 KECCAK256 SWAP1 JUMPDEST DUP2 SLOAD DUP2 MSTORE SWAP1 PUSH1 0x1 ADD SWAP1 PUSH1 0x20 ADD DUP1 DUP4 GT PUSH2 0x68D JUMPI DUP3 SWAP1 SUB PUSH1 0x1F AND DUP3 ADD SWAP2 JUMPDEST POP POP POP POP POP SWAP1 POP SWAP1 JUMP JUMPDEST PUSH1 0x0 DUP2 DUP2 MSTORE PUSH1 0x2 PUSH1 0x20 MSTORE PUSH1 0x40 DUP2 KECCAK256 SLOAD PUSH1 0x1 PUSH1 0x1 PUSH1 0xA0 SHL SUB AND PUSH2 0x732 JUMPI PUSH1 0x40 MLOAD PUSH3 0x461BCD PUSH1 0xE5 SHL DUP2 MSTORE PUSH1 0x20 PUSH1 0x4 DUP3 ADD MSTORE PUSH1 0x2C PUSH1 0x24 DUP3 ADD MSTORE PUSH32 0x4552433732313A20617070726F76656420717565727920666F72206E6F6E6578 PUSH1 0x44 DUP3 ADD MSTORE PUSH12 0x34B9BA32B73A103A37B5B2B7 PUSH1 0xA1 SHL PUSH1 0x64 DUP3 ADD MSTORE PUSH1 0x84 ADD JUMPDEST PUSH1 0x40 MLOAD DUP1 SWAP2 SUB SWAP1 REVERT JUMPDEST POP PUSH1 0x0 SWAP1 DUP2 MSTORE PUSH1 0x4 PUSH1 0x20 MSTORE PUSH1 0x40 SWAP1 KECCAK256 SLOAD PUSH1 0x1 PUSH1 0x1 PUSH1 0xA0 SHL SUB AND SWAP1 JUMP JUMPDEST PUSH1 0x0 PUSH2 0x759 DUP3 PUSH2 0xCA0 JUMP JUMPDEST SWAP1 POP DUP1 PUSH1 0x1 PUSH1 0x1 PUSH1 0xA0 SHL SUB AND DUP4 PUSH1 0x1 PUSH1 0x1 PUSH1 0xA0 SHL SUB AND EQ ISZERO PUSH2 0x7C7 JUMPI PUSH1 0x40 MLOAD PUSH3 0x461BCD PUSH1 0xE5 SHL DUP2 MSTORE PUSH1 0x20 PUSH1 0x4 DUP3 ADD MSTORE PUSH1 0x21 PUSH1 0x24 DUP3 ADD MSTORE PUSH32 0x4552433732313A20617070726F76616C20746F2063757272656E74206F776E65 PUSH1 0x44 DUP3 ADD MSTORE PUSH1 0x39 PUSH1 0xF9 SHL PUSH1 0x64 DUP3 ADD MSTORE PUSH1 0x84 ADD PUSH2 0x729 JUMP JUMPDEST CALLER PUSH1 0x1 PUSH1 0x1 PUSH1 0xA0 SHL SUB DUP3 AND EQ DUP1 PUSH2 0x7E3 JUMPI POP PUSH2 0x7E3 DUP2 CALLER PUSH2 0x56C JUMP JUMPDEST PUSH2 0x855 JUMPI PUSH1 0x40 MLOAD PUSH3 0x461BCD PUSH1 0xE5 SHL DUP2 MSTORE PUSH1 0x20 PUSH1 0x4 DUP3 ADD MSTORE PUSH1 0x38 PUSH1 0x24 DUP3 ADD MSTORE PUSH32 0x4552433732313A20617070726F76652063616C6C6572206973206E6F74206F77 PUSH1 0x44 DUP3 ADD MSTORE PUSH32 0x6E6572206E6F7220617070726F76656420666F7220616C6C0000000000000000 PUSH1 0x64 DUP3 ADD MSTORE PUSH1 0x84 ADD PUSH2 0x729 JUMP JUMPDEST PUSH2 0x85F DUP4 DUP4 PUSH2 0x11A9 JUMP JUMPDEST POP POP POP JUMP JUMPDEST PUSH1 0xA SLOAD PUSH1 0x1 PUSH1 0x1 PUSH1 0xA0 SHL SUB AND CALLER EQ PUSH2 0x87B JUMPI PUSH1 0x0 DUP1 REVERT JUMPDEST PUSH1 0xA DUP1 SLOAD PUSH1 0x1 PUSH1 0x1 PUSH1 0xA0 SHL SUB NOT AND PUSH1 0x1 PUSH1 0x1 PUSH1 0xA0 SHL SUB SWAP3 SWAP1 SWAP3 AND SWAP2 SWAP1 SWAP2 OR SWAP1 SSTORE JUMP JUMPDEST PUSH1 0x19 SLOAD PUSH1 0xFF AND ISZERO ISZERO PUSH1 0x1 EQ PUSH2 0x8E6 JUMPI PUSH1 0x40 MLOAD PUSH3 0x461BCD PUSH1 0xE5 SHL DUP2 MSTORE PUSH1 0x20 PUSH1 0x4 DUP3 ADD MSTORE PUSH1 0xF PUSH1 0x24 DUP3 ADD MSTORE PUSH15 0x41756374696F6E206F6E676F696E67 PUSH1 0x88 SHL PUSH1 0x44 DUP3 ADD MSTORE PUSH1 0x64 ADD PUSH2 0x729 JUMP JUMPDEST PUSH1 0x1B SLOAD PUSH1 0x1A SLOAD PUSH2 0x8F6 SWAP2 SWAP1 PUSH2 0x207E JUMP JUMPDEST TIMESTAMP GT PUSH2 0x936 JUMPI PUSH1 0x40 MLOAD PUSH3 0x461BCD PUSH1 0xE5 SHL DUP2 MSTORE PUSH1 0x20 PUSH1 0x4 DUP3 ADD MSTORE PUSH1 0xF PUSH1 0x24 DUP3 ADD MSTORE PUSH15 0x57697468647261772077696E646F77 PUSH1 0x88 SHL PUSH1 0x44 DUP3 ADD MSTORE PUSH1 0x64 ADD PUSH2 0x729 JUMP JUMPDEST PUSH1 0xA SLOAD PUSH1 0x40 MLOAD PUSH1 0x1 PUSH1 0x1 PUSH1 0xA0 SHL SUB SWAP1 SWAP2 AND SWAP1 SELFBALANCE DUP1 ISZERO PUSH2 0x8FC MUL SWAP2 PUSH1 0x0 DUP2 DUP2 DUP2 DUP6 DUP9 DUP9 CALL SWAP4 POP POP POP POP ISZERO DUP1 ISZERO PUSH2 0x96F JUMPI RETURNDATASIZE PUSH1 0x0 DUP1 RETURNDATACOPY RETURNDATASIZE PUSH1 0x0 REVERT JUMPDEST POP JUMP JUMPDEST PUSH2 0x97C CALLER DUP3 PUSH2 0x1217 JUMP JUMPDEST PUSH2 0x998 JUMPI PUSH1 0x40 MLOAD PUSH3 0x461BCD PUSH1 0xE5 SHL DUP2 MSTORE PUSH1 0x4 ADD PUSH2 0x729 SWAP1 PUSH2 0x202D JUMP JUMPDEST PUSH2 0x85F DUP4 DUP4 DUP4 PUSH2 0x130E JUMP JUMPDEST PUSH1 0x0 PUSH2 0x9AE DUP4 PUSH2 0xD17 JUMP JUMPDEST DUP3 LT PUSH2 0xA10 JUMPI PUSH1 0x40 MLOAD PUSH3 0x461BCD PUSH1 0xE5 SHL DUP2 MSTORE PUSH1 0x20 PUSH1 0x4 DUP3 ADD MSTORE PUSH1 0x2B PUSH1 0x24 DUP3 ADD MSTORE PUSH32 0x455243373231456E756D657261626C653A206F776E657220696E646578206F75 PUSH1 0x44 DUP3 ADD MSTORE PUSH11 0x74206F6620626F756E6473 PUSH1 0xA8 SHL PUSH1 0x64 DUP3 ADD MSTORE PUSH1 0x84 ADD PUSH2 0x729 JUMP JUMPDEST POP PUSH1 0x1 PUSH1 0x1 PUSH1 0xA0 SHL SUB SWAP2 SWAP1 SWAP2 AND PUSH1 0x0 SWAP1 DUP2 MSTORE PUSH1 0x6 PUSH1 0x20 SWAP1 DUP2 MSTORE PUSH1 0x40 DUP1 DUP4 KECCAK256 SWAP4 DUP4 MSTORE SWAP3 SWAP1 MSTORE KECCAK256 SLOAD SWAP1 JUMP JUMPDEST PUSH1 0x0 DUP1 JUMPDEST PUSH1 0x5 DUP2 LT ISZERO PUSH2 0xA95 JUMPI DUP3 PUSH1 0x1 PUSH1 0x1 PUSH1 0xA0 SHL SUB AND PUSH1 0xF DUP3 PUSH1 0x5 DUP2 LT PUSH2 0xA63 JUMPI PUSH2 0xA63 PUSH2 0x21CF JUMP JUMPDEST PUSH1 0x2 MUL ADD PUSH1 0x1 ADD SLOAD PUSH1 0x1 PUSH1 0x1 PUSH1 0xA0 SHL SUB AND EQ ISZERO PUSH2 0xA83 JUMPI POP PUSH1 0x1 SWAP3 SWAP2 POP POP JUMP JUMPDEST DUP1 PUSH2 0xA8D DUP2 PUSH2 0x215E JUMP JUMPDEST SWAP2 POP POP PUSH2 0xA3D JUMP JUMPDEST POP PUSH1 0x0 SWAP3 SWAP2 POP POP JUMP JUMPDEST PUSH1 0x19 SLOAD PUSH1 0xFF AND ISZERO ISZERO PUSH1 0x1 EQ PUSH2 0xAE9 JUMPI PUSH1 0x40 MLOAD PUSH3 0x461BCD PUSH1 0xE5 SHL DUP2 MSTORE PUSH1 0x20 PUSH1 0x4 DUP3 ADD MSTORE PUSH1 0x11 PUSH1 0x24 DUP3 ADD MSTORE PUSH17 0x105D58DD1A5BDB881B9BDD08195B991959 PUSH1 0x7A SHL PUSH1 0x44 DUP3 ADD MSTORE PUSH1 0x64 ADD PUSH2 0x729 JUMP JUMPDEST PUSH1 0x1B SLOAD PUSH1 0x1A SLOAD PUSH2 0xAF9 SWAP2 SWAP1 PUSH2 0x207E JUMP JUMPDEST TIMESTAMP GT ISZERO PUSH2 0xB40 JUMPI PUSH1 0x40 MLOAD PUSH3 0x461BCD PUSH1 0xE5 SHL DUP2 MSTORE PUSH1 0x20 PUSH1 0x4 DUP3 ADD MSTORE PUSH1 0x15 PUSH1 0x24 DUP3 ADD MSTORE PUSH21 0x15DA5D1A191C985DC81DDA5B991BDDC8195B991959 PUSH1 0x5A SHL PUSH1 0x44 DUP3 ADD MSTORE PUSH1 0x64 ADD PUSH2 0x729 JUMP JUMPDEST PUSH2 0xB49 CALLER PUSH2 0xA39 JUMP JUMPDEST ISZERO PUSH2 0xB96 JUMPI PUSH1 0x40 MLOAD PUSH3 0x461BCD PUSH1 0xE5 SHL DUP2 MSTORE PUSH1 0x20 PUSH1 0x4 DUP3 ADD MSTORE PUSH1 0x17 PUSH1 0x24 DUP3 ADD MSTORE PUSH32 0x57696E6E6572732063616E6E6F74207769746864726177000000000000000000 PUSH1 0x44 DUP3 ADD MSTORE PUSH1 0x64 ADD PUSH2 0x729 JUMP JUMPDEST CALLER PUSH1 0x0 DUP2 DUP2 MSTORE PUSH1 0xE PUSH1 0x20 MSTORE PUSH1 0x40 DUP1 DUP3 KECCAK256 DUP1 SLOAD SWAP1 DUP4 SWAP1 SSTORE SWAP1 MLOAD SWAP1 SWAP3 SWAP2 DUP4 ISZERO PUSH2 0x8FC MUL SWAP2 DUP5 SWAP2 DUP2 DUP2 DUP2 DUP6 DUP9 DUP9 CALL SWAP4 POP POP POP POP ISZERO DUP1 ISZERO PUSH2 0xBD7 JUMPI RETURNDATASIZE PUSH1 0x0 DUP1 RETURNDATACOPY RETURNDATASIZE PUSH1 0x0 REVERT JUMPDEST POP POP JUMP JUMPDEST PUSH2 0x85F DUP4 DUP4 DUP4 PUSH1 0x40 MLOAD DUP1 PUSH1 0x20 ADD PUSH1 0x40 MSTORE DUP1 PUSH1 0x0 DUP2 MSTORE POP PUSH2 0xEE5 JUMP JUMPDEST PUSH1 0x0 PUSH2 0xC01 PUSH1 0x8 SLOAD SWAP1 JUMP JUMPDEST DUP3 LT PUSH2 0xC64 JUMPI PUSH1 0x40 MLOAD PUSH3 0x461BCD PUSH1 0xE5 SHL DUP2 MSTORE PUSH1 0x20 PUSH1 0x4 DUP3 ADD MSTORE PUSH1 0x2C PUSH1 0x24 DUP3 ADD MSTORE PUSH32 0x455243373231456E756D657261626C653A20676C6F62616C20696E646578206F PUSH1 0x44 DUP3 ADD MSTORE PUSH12 0x7574206F6620626F756E6473 PUSH1 0xA0 SHL PUSH1 0x64 DUP3 ADD MSTORE PUSH1 0x84 ADD PUSH2 0x729 JUMP JUMPDEST PUSH1 0x8 DUP3 DUP2 SLOAD DUP2 LT PUSH2 0xC77 JUMPI PUSH2 0xC77 PUSH2 0x21CF JUMP JUMPDEST SWAP1 PUSH1 0x0 MSTORE PUSH1 0x20 PUSH1 0x0 KECCAK256 ADD SLOAD SWAP1 POP SWAP2 SWAP1 POP JUMP JUMPDEST PUSH1 0xA SLOAD PUSH1 0x1 PUSH1 0x1 PUSH1 0xA0 SHL SUB AND CALLER EQ PUSH2 0xBD7 JUMPI PUSH1 0x0 DUP1 REVERT JUMPDEST PUSH1 0x0 DUP2 DUP2 MSTORE PUSH1 0x2 PUSH1 0x20 MSTORE PUSH1 0x40 DUP2 KECCAK256 SLOAD PUSH1 0x1 PUSH1 0x1 PUSH1 0xA0 SHL SUB AND DUP1 PUSH2 0x61C JUMPI PUSH1 0x40 MLOAD PUSH3 0x461BCD PUSH1 0xE5 SHL DUP2 MSTORE PUSH1 0x20 PUSH1 0x4 DUP3 ADD MSTORE PUSH1 0x29 PUSH1 0x24 DUP3 ADD MSTORE PUSH32 0x4552433732313A206F776E657220717565727920666F72206E6F6E6578697374 PUSH1 0x44 DUP3 ADD MSTORE PUSH9 0x32B73A103A37B5B2B7 PUSH1 0xB9 SHL PUSH1 0x64 DUP3 ADD MSTORE PUSH1 0x84 ADD PUSH2 0x729 JUMP JUMPDEST PUSH1 0x0 PUSH1 0x1 PUSH1 0x1 PUSH1 0xA0 SHL SUB DUP3 AND PUSH2 0xD82 JUMPI PUSH1 0x40 MLOAD PUSH3 0x461BCD PUSH1 0xE5 SHL DUP2 MSTORE PUSH1 0x20 PUSH1 0x4 DUP3 ADD MSTORE PUSH1 0x2A PUSH1 0x24 DUP3 ADD MSTORE PUSH32 0x4552433732313A2062616C616E636520717565727920666F7220746865207A65 PUSH1 0x44 DUP3 ADD MSTORE PUSH10 0x726F2061646472657373 PUSH1 0xB0 SHL PUSH1 0x64 DUP3 ADD MSTORE PUSH1 0x84 ADD PUSH2 0x729 JUMP JUMPDEST POP PUSH1 0x1 PUSH1 0x1 PUSH1 0xA0 SHL SUB AND PUSH1 0x0 SWAP1 DUP2 MSTORE PUSH1 0x3 PUSH1 0x20 MSTORE PUSH1 0x40 SWAP1 KECCAK256 SLOAD SWAP1 JUMP JUMPDEST PUSH1 0xA SLOAD PUSH1 0x1 PUSH1 0x1 PUSH1 0xA0 SHL SUB AND CALLER EQ PUSH2 0xDB5 JUMPI PUSH1 0x0 DUP1 REVERT JUMPDEST PUSH1 0x19 DUP1 SLOAD PUSH1 0xFF NOT AND PUSH1 0x1 OR SWAP1 SSTORE TIMESTAMP PUSH1 0x1A SSTORE PUSH1 0x0 JUMPDEST PUSH1 0x5 DUP2 LT ISZERO PUSH2 0x96F JUMPI PUSH2 0xDFF PUSH1 0xF DUP3 PUSH1 0x5 DUP2 LT PUSH2 0xDE8 JUMPI PUSH2 0xDE8 PUSH2 0x21CF JUMP JUMPDEST PUSH1 0x2 MUL ADD PUSH1 0x1 ADD SLOAD PUSH1 0x1 PUSH1 0x1 PUSH1 0xA0 SHL SUB AND DUP3 PUSH2 0x14B9 JUMP JUMPDEST DUP1 PUSH2 0xE09 DUP2 PUSH2 0x215E JUMP JUMPDEST SWAP2 POP POP PUSH2 0xDC9 JUMP JUMPDEST PUSH1 0x60 PUSH1 0x1 DUP1 SLOAD PUSH2 0x631 SWAP1 PUSH2 0x2123 JUMP JUMPDEST PUSH1 0x1 PUSH1 0x1 PUSH1 0xA0 SHL SUB DUP3 AND CALLER EQ ISZERO PUSH2 0xE79 JUMPI PUSH1 0x40 MLOAD PUSH3 0x461BCD PUSH1 0xE5 SHL DUP2 MSTORE PUSH1 0x20 PUSH1 0x4 DUP3 ADD MSTORE PUSH1 0x19 PUSH1 0x24 DUP3 ADD MSTORE PUSH32 0x4552433732313A20617070726F766520746F2063616C6C657200000000000000 PUSH1 0x44 DUP3 ADD MSTORE PUSH1 0x64 ADD PUSH2 0x729 JUMP JUMPDEST CALLER PUSH1 0x0 DUP2 DUP2 MSTORE PUSH1 0x5 PUSH1 0x20 SWAP1 DUP2 MSTORE PUSH1 0x40 DUP1 DUP4 KECCAK256 PUSH1 0x1 PUSH1 0x1 PUSH1 0xA0 SHL SUB DUP8 AND DUP1 DUP6 MSTORE SWAP1 DUP4 MSTORE SWAP3 DUP2 SWAP1 KECCAK256 DUP1 SLOAD PUSH1 0xFF NOT AND DUP7 ISZERO ISZERO SWAP1 DUP2 OR SWAP1 SWAP2 SSTORE SWAP1 MLOAD SWAP1 DUP2 MSTORE SWAP2 SWAP3 SWAP2 PUSH32 0x17307EAB39AB6107E8899845AD3D59BD9653F200F220920489CA2B5937696C31 SWAP2 ADD PUSH1 0x40 MLOAD DUP1 SWAP2 SUB SWAP1 LOG3 POP POP JUMP JUMPDEST PUSH2 0xEEF CALLER DUP4 PUSH2 0x1217 JUMP JUMPDEST PUSH2 0xF0B JUMPI PUSH1 0x40 MLOAD PUSH3 0x461BCD PUSH1 0xE5 SHL DUP2 MSTORE PUSH1 0x4 ADD PUSH2 0x729 SWAP1 PUSH2 0x202D JUMP JUMPDEST PUSH2 0xF17 DUP5 DUP5 DUP5 DUP5 PUSH2 0x14D3 JUMP JUMPDEST POP POP POP POP JUMP JUMPDEST PUSH1 0x0 DUP2 DUP2 MSTORE PUSH1 0x2 PUSH1 0x20 MSTORE PUSH1 0x40 SWAP1 KECCAK256 SLOAD PUSH1 0x60 SWAP1 PUSH1 0x1 PUSH1 0x1 PUSH1 0xA0 SHL SUB AND PUSH2 0xF9C JUMPI PUSH1 0x40 MLOAD PUSH3 0x461BCD PUSH1 0xE5 SHL DUP2 MSTORE PUSH1 0x20 PUSH1 0x4 DUP3 ADD MSTORE PUSH1 0x2F PUSH1 0x24 DUP3 ADD MSTORE PUSH32 0x4552433732314D657461646174613A2055524920717565727920666F72206E6F PUSH1 0x44 DUP3 ADD MSTORE PUSH15 0x3732BC34B9BA32B73A103A37B5B2B7 PUSH1 0x89 SHL PUSH1 0x64 DUP3 ADD MSTORE PUSH1 0x84 ADD PUSH2 0x729 JUMP JUMPDEST PUSH1 0x0 PUSH2 0xFB3 PUSH1 0x40 DUP1 MLOAD PUSH1 0x20 DUP2 ADD SWAP1 SWAP2 MSTORE PUSH1 0x0 DUP2 MSTORE SWAP1 JUMP JUMPDEST SWAP1 POP PUSH1 0x0 DUP2 MLOAD GT PUSH2 0xFD3 JUMPI PUSH1 0x40 MLOAD DUP1 PUSH1 0x20 ADD PUSH1 0x40 MSTORE DUP1 PUSH1 0x0 DUP2 MSTORE POP PUSH2 0xFFE JUMP JUMPDEST DUP1 PUSH2 0xFDD DUP5 PUSH2 0x1506 JUMP JUMPDEST PUSH1 0x40 MLOAD PUSH1 0x20 ADD PUSH2 0xFEE SWAP3 SWAP2 SWAP1 PUSH2 0x1F5C JUMP JUMPDEST PUSH1 0x40 MLOAD PUSH1 0x20 DUP2 DUP4 SUB SUB DUP2 MSTORE SWAP1 PUSH1 0x40 MSTORE JUMPDEST SWAP4 SWAP3 POP POP POP JUMP JUMPDEST PUSH1 0x19 SLOAD PUSH1 0xFF AND ISZERO PUSH2 0x1047 JUMPI PUSH1 0x40 MLOAD PUSH3 0x461BCD PUSH1 0xE5 SHL DUP2 MSTORE PUSH1 0x20 PUSH1 0x4 DUP3 ADD MSTORE PUSH1 0xC PUSH1 0x24 DUP3 ADD MSTORE PUSH12 0x20BAB1BA34B7B71037BB32B9 PUSH1 0xA1 SHL PUSH1 0x44 DUP3 ADD MSTORE PUSH1 0x64 ADD PUSH2 0x729 JUMP JUMPDEST PUSH1 0xB SLOAD CALLVALUE SWAP1 PUSH2 0x1056 DUP2 DUP4 PUSH2 0x2096 JUMP JUMPDEST PUSH2 0x1060 SWAP2 SWAP1 PUSH2 0x20AA JUMP JUMPDEST EQ PUSH2 0x1099 JUMPI PUSH1 0x40 MLOAD PUSH3 0x461BCD PUSH1 0xE5 SHL DUP2 MSTORE PUSH1 0x20 PUSH1 0x4 DUP3 ADD MSTORE PUSH1 0x9 PUSH1 0x24 DUP3 ADD MSTORE PUSH9 0x42696420756E697473 PUSH1 0xB8 SHL PUSH1 0x44 DUP3 ADD MSTORE PUSH1 0x64 ADD PUSH2 0x729 JUMP JUMPDEST CALLER PUSH1 0x0 SWAP1 DUP2 MSTORE PUSH1 0xD PUSH1 0x20 MSTORE PUSH1 0x40 DUP2 KECCAK256 DUP1 SLOAD CALLVALUE SWAP3 SWAP1 PUSH2 0x10B8 SWAP1 DUP5 SWAP1 PUSH2 0x207E JUMP JUMPDEST SWAP1 SWAP2 SSTORE POP POP TIMESTAMP PUSH1 0xC SSTORE CALLER PUSH1 0x0 DUP2 DUP2 MSTORE PUSH1 0xD PUSH1 0x20 MSTORE PUSH1 0x40 SWAP1 KECCAK256 SLOAD PUSH2 0x10DB SWAP2 SWAP1 PUSH2 0x1604 JUMP JUMPDEST PUSH2 0x10E6 PUSH1 0xA CALLVALUE PUSH2 0x2096 JUMP JUMPDEST PUSH2 0x10F1 SWAP1 PUSH1 0x9 PUSH2 0x20AA JUMP JUMPDEST CALLER PUSH1 0x0 SWAP1 DUP2 MSTORE PUSH1 0xE PUSH1 0x20 MSTORE PUSH1 0x40 DUP2 KECCAK256 DUP1 SLOAD SWAP1 SWAP2 SWAP1 PUSH2 0x1110 SWAP1 DUP5 SWAP1 PUSH2 0x207E JUMP JUMPDEST SWAP1 SWAP2 SSTORE POP POP JUMP JUMPDEST PUSH1 0xF DUP2 PUSH1 0x5 DUP2 LT PUSH2 0x1127 JUMPI PUSH1 0x0 DUP1 REVERT JUMPDEST PUSH1 0x2 MUL ADD DUP1 SLOAD PUSH1 0x1 SWAP1 SWAP2 ADD SLOAD SWAP1 SWAP2 POP PUSH1 0x1 PUSH1 0x1 PUSH1 0xA0 SHL SUB AND DUP3 JUMP JUMPDEST PUSH1 0xA SLOAD PUSH1 0x1 PUSH1 0x1 PUSH1 0xA0 SHL SUB AND CALLER EQ PUSH2 0x96F JUMPI PUSH1 0x0 DUP1 REVERT JUMPDEST PUSH1 0x0 PUSH1 0x1 PUSH1 0x1 PUSH1 0xE0 SHL SUB NOT DUP3 AND PUSH4 0x80AC58CD PUSH1 0xE0 SHL EQ DUP1 PUSH2 0x118A JUMPI POP PUSH1 0x1 PUSH1 0x1 PUSH1 0xE0 SHL SUB NOT DUP3 AND PUSH4 0x5B5E139F PUSH1 0xE0 SHL EQ JUMPDEST DUP1 PUSH2 0x61C JUMPI POP PUSH4 0x1FFC9A7 PUSH1 0xE0 SHL PUSH1 0x1 PUSH1 0x1 PUSH1 0xE0 SHL SUB NOT DUP4 AND EQ PUSH2 0x61C JUMP JUMPDEST PUSH1 0x0 DUP2 DUP2 MSTORE PUSH1 0x4 PUSH1 0x20 MSTORE PUSH1 0x40 SWAP1 KECCAK256 DUP1 SLOAD PUSH1 0x1 PUSH1 0x1 PUSH1 0xA0 SHL SUB NOT AND PUSH1 0x1 PUSH1 0x1 PUSH1 0xA0 SHL SUB DUP5 AND SWAP1 DUP2 OR SWAP1 SWAP2 SSTORE DUP2 SWAP1 PUSH2 0x11DE DUP3 PUSH2 0xCA0 JUMP JUMPDEST PUSH1 0x1 PUSH1 0x1 PUSH1 0xA0 SHL SUB AND PUSH32 0x8C5BE1E5EBEC7D5BD14F71427D1E84F3DD0314C0F7B2291E5B200AC8C7C3B925 PUSH1 0x40 MLOAD PUSH1 0x40 MLOAD DUP1 SWAP2 SUB SWAP1 LOG4 POP POP JUMP JUMPDEST PUSH1 0x0 DUP2 DUP2 MSTORE PUSH1 0x2 PUSH1 0x20 MSTORE PUSH1 0x40 DUP2 KECCAK256 SLOAD PUSH1 0x1 PUSH1 0x1 PUSH1 0xA0 SHL SUB AND PUSH2 0x1290 JUMPI PUSH1 0x40 MLOAD PUSH3 0x461BCD PUSH1 0xE5 SHL DUP2 MSTORE PUSH1 0x20 PUSH1 0x4 DUP3 ADD MSTORE PUSH1 0x2C PUSH1 0x24 DUP3 ADD MSTORE PUSH32 0x4552433732313A206F70657261746F7220717565727920666F72206E6F6E6578 PUSH1 0x44 DUP3 ADD MSTORE PUSH12 0x34B9BA32B73A103A37B5B2B7 PUSH1 0xA1 SHL PUSH1 0x64 DUP3 ADD MSTORE PUSH1 0x84 ADD PUSH2 0x729 JUMP JUMPDEST PUSH1 0x0 PUSH2 0x129B DUP4 PUSH2 0xCA0 JUMP JUMPDEST SWAP1 POP DUP1 PUSH1 0x1 PUSH1 0x1 PUSH1 0xA0 SHL SUB AND DUP5 PUSH1 0x1 PUSH1 0x1 PUSH1 0xA0 SHL SUB AND EQ DUP1 PUSH2 0x12D6 JUMPI POP DUP4 PUSH1 0x1 PUSH1 0x1 PUSH1 0xA0 SHL SUB AND PUSH2 0x12CB DUP5 PUSH2 0x6B4 JUMP JUMPDEST PUSH1 0x1 PUSH1 0x1 PUSH1 0xA0 SHL SUB AND EQ JUMPDEST DUP1 PUSH2 0x1306 JUMPI POP PUSH1 0x1 PUSH1 0x1 PUSH1 0xA0 SHL SUB DUP1 DUP3 AND PUSH1 0x0 SWAP1 DUP2 MSTORE PUSH1 0x5 PUSH1 0x20 SWAP1 DUP2 MSTORE PUSH1 0x40 DUP1 DUP4 KECCAK256 SWAP4 DUP9 AND DUP4 MSTORE SWAP3 SWAP1 MSTORE KECCAK256 SLOAD PUSH1 0xFF AND JUMPDEST SWAP5 SWAP4 POP POP POP POP JUMP JUMPDEST DUP3 PUSH1 0x1 PUSH1 0x1 PUSH1 0xA0 SHL SUB AND PUSH2 0x1321 DUP3 PUSH2 0xCA0 JUMP JUMPDEST PUSH1 0x1 PUSH1 0x1 PUSH1 0xA0 SHL SUB AND EQ PUSH2 0x1389 JUMPI PUSH1 0x40 MLOAD PUSH3 0x461BCD PUSH1 0xE5 SHL DUP2 MSTORE PUSH1 0x20 PUSH1 0x4 DUP3 ADD MSTORE PUSH1 0x29 PUSH1 0x24 DUP3 ADD MSTORE PUSH32 0x4552433732313A207472616E73666572206F6620746F6B656E20746861742069 PUSH1 0x44 DUP3 ADD MSTORE PUSH9 0x39903737BA1037BBB7 PUSH1 0xB9 SHL PUSH1 0x64 DUP3 ADD MSTORE PUSH1 0x84 ADD PUSH2 0x729 JUMP JUMPDEST PUSH1 0x1 PUSH1 0x1 PUSH1 0xA0 SHL SUB DUP3 AND PUSH2 0x13EB JUMPI PUSH1 0x40 MLOAD PUSH3 0x461BCD PUSH1 0xE5 SHL DUP2 MSTORE PUSH1 0x20 PUSH1 0x4 DUP3 ADD MSTORE PUSH1 0x24 DUP1 DUP3 ADD MSTORE PUSH32 0x4552433732313A207472616E7366657220746F20746865207A65726F20616464 PUSH1 0x44 DUP3 ADD MSTORE PUSH4 0x72657373 PUSH1 0xE0 SHL PUSH1 0x64 DUP3 ADD MSTORE PUSH1 0x84 ADD PUSH2 0x729 JUMP JUMPDEST PUSH2 0x13F6 DUP4 DUP4 DUP4 PUSH2 0x177F JUMP JUMPDEST PUSH2 0x1401 PUSH1 0x0 DUP3 PUSH2 0x11A9 JUMP JUMPDEST PUSH1 0x1 PUSH1 0x1 PUSH1 0xA0 SHL SUB DUP4 AND PUSH1 0x0 SWAP1 DUP2 MSTORE PUSH1 0x3 PUSH1 0x20 MSTORE PUSH1 0x40 DUP2 KECCAK256 DUP1 SLOAD PUSH1 0x1 SWAP3 SWAP1 PUSH2 0x142A SWAP1 DUP5 SWAP1 PUSH2 0x20C9 JUMP JUMPDEST SWAP1 SWAP2 SSTORE POP POP PUSH1 0x1 PUSH1 0x1 PUSH1 0xA0 SHL SUB DUP3 AND PUSH1 0x0 SWAP1 DUP2 MSTORE PUSH1 0x3 PUSH1 0x20 MSTORE PUSH1 0x40 DUP2 KECCAK256 DUP1 SLOAD PUSH1 0x1 SWAP3 SWAP1 PUSH2 0x1458 SWAP1 DUP5 SWAP1 PUSH2 0x207E JUMP JUMPDEST SWAP1 SWAP2 SSTORE POP POP PUSH1 0x0 DUP2 DUP2 MSTORE PUSH1 0x2 PUSH1 0x20 MSTORE PUSH1 0x40 DUP1 DUP3 KECCAK256 DUP1 SLOAD PUSH1 0x1 PUSH1 0x1 PUSH1 0xA0 SHL SUB NOT AND PUSH1 0x1 PUSH1 0x1 PUSH1 0xA0 SHL SUB DUP7 DUP2 AND SWAP2 DUP3 OR SWAP1 SWAP3 SSTORE SWAP2 MLOAD DUP5 SWAP4 SWAP2 DUP8 AND SWAP2 PUSH32 0xDDF252AD1BE2C89B69C2B068FC378DAA952BA7F163C4A11628F55A4DF523B3EF SWAP2 LOG4 POP POP POP JUMP JUMPDEST PUSH2 0xBD7 DUP3 DUP3 PUSH1 0x40 MLOAD DUP1 PUSH1 0x20 ADD PUSH1 0x40 MSTORE DUP1 PUSH1 0x0 DUP2 MSTORE POP PUSH2 0x1837 JUMP JUMPDEST PUSH2 0x14DE DUP5 DUP5 DUP5 PUSH2 0x130E JUMP JUMPDEST PUSH2 0x14EA DUP5 DUP5 DUP5 DUP5 PUSH2 0x186A JUMP JUMPDEST PUSH2 0xF17 JUMPI PUSH1 0x40 MLOAD PUSH3 0x461BCD PUSH1 0xE5 SHL DUP2 MSTORE PUSH1 0x4 ADD PUSH2 0x729 SWAP1 PUSH2 0x1FDB JUMP JUMPDEST PUSH1 0x60 DUP2 PUSH2 0x152A JUMPI POP POP PUSH1 0x40 DUP1 MLOAD DUP1 DUP3 ADD SWAP1 SWAP2 MSTORE PUSH1 0x1 DUP2 MSTORE PUSH1 0x3 PUSH1 0xFC SHL PUSH1 0x20 DUP3 ADD MSTORE SWAP1 JUMP JUMPDEST DUP2 PUSH1 0x0 JUMPDEST DUP2 ISZERO PUSH2 0x1554 JUMPI DUP1 PUSH2 0x153E DUP2 PUSH2 0x215E JUMP JUMPDEST SWAP2 POP PUSH2 0x154D SWAP1 POP PUSH1 0xA DUP4 PUSH2 0x2096 JUMP JUMPDEST SWAP2 POP PUSH2 0x152E JUMP JUMPDEST PUSH1 0x0 DUP2 PUSH8 0xFFFFFFFFFFFFFFFF DUP2 GT ISZERO PUSH2 0x156F JUMPI PUSH2 0x156F PUSH2 0x21E5 JUMP JUMPDEST PUSH1 0x40 MLOAD SWAP1 DUP1 DUP3 MSTORE DUP1 PUSH1 0x1F ADD PUSH1 0x1F NOT AND PUSH1 0x20 ADD DUP3 ADD PUSH1 0x40 MSTORE DUP1 ISZERO PUSH2 0x1599 JUMPI PUSH1 0x20 DUP3 ADD DUP2 DUP1 CALLDATASIZE DUP4 CALLDATACOPY ADD SWAP1 POP JUMPDEST POP SWAP1 POP JUMPDEST DUP5 ISZERO PUSH2 0x1306 JUMPI PUSH2 0x15AE PUSH1 0x1 DUP4 PUSH2 0x20C9 JUMP JUMPDEST SWAP2 POP PUSH2 0x15BB PUSH1 0xA DUP7 PUSH2 0x2179 JUMP JUMPDEST PUSH2 0x15C6 SWAP1 PUSH1 0x30 PUSH2 0x207E JUMP JUMPDEST PUSH1 0xF8 SHL DUP2 DUP4 DUP2 MLOAD DUP2 LT PUSH2 0x15DB JUMPI PUSH2 0x15DB PUSH2 0x21CF JUMP JUMPDEST PUSH1 0x20 ADD ADD SWAP1 PUSH1 0x1 PUSH1 0x1 PUSH1 0xF8 SHL SUB NOT AND SWAP1 DUP2 PUSH1 0x0 BYTE SWAP1 MSTORE8 POP PUSH2 0x15FD PUSH1 0xA DUP7 PUSH2 0x2096 JUMP JUMPDEST SWAP5 POP PUSH2 0x159D JUMP JUMPDEST PUSH1 0x0 JUMPDEST PUSH1 0x5 DUP2 LT ISZERO PUSH2 0x1646 JUMPI DUP2 PUSH1 0xF DUP3 PUSH1 0x5 DUP2 LT PUSH2 0x1624 JUMPI PUSH2 0x1624 PUSH2 0x21CF JUMP JUMPDEST PUSH1 0x2 MUL ADD SLOAD LT ISZERO PUSH2 0x1634 JUMPI PUSH2 0x1646 JUMP JUMPDEST DUP1 PUSH2 0x163E DUP2 PUSH2 0x215E JUMP JUMPDEST SWAP2 POP POP PUSH2 0x1607 JUMP JUMPDEST PUSH1 0x0 PUSH2 0x1654 PUSH1 0x1 PUSH1 0x5 PUSH2 0x20C9 JUMP JUMPDEST SWAP1 POP JUMPDEST DUP2 DUP2 GT ISZERO PUSH2 0x1718 JUMPI PUSH1 0xF PUSH2 0x166C PUSH1 0x1 DUP4 PUSH2 0x20C9 JUMP JUMPDEST PUSH1 0x5 DUP2 LT PUSH2 0x167C JUMPI PUSH2 0x167C PUSH2 0x21CF JUMP JUMPDEST PUSH1 0x2 MUL ADD SLOAD PUSH1 0xF DUP3 PUSH1 0x5 DUP2 LT PUSH2 0x1694 JUMPI PUSH2 0x1694 PUSH2 0x21CF JUMP JUMPDEST PUSH1 0x2 MUL ADD SSTORE PUSH1 0xF PUSH2 0x16A6 PUSH1 0x1 DUP4 PUSH2 0x20C9 JUMP JUMPDEST PUSH1 0x5 DUP2 LT PUSH2 0x16B6 JUMPI PUSH2 0x16B6 PUSH2 0x21CF JUMP JUMPDEST PUSH1 0x2 MUL ADD PUSH1 0x1 ADD SLOAD PUSH1 0x1 PUSH1 0x1 PUSH1 0xA0 SHL SUB AND PUSH1 0xF DUP3 PUSH1 0x5 DUP2 LT PUSH2 0x16DA JUMPI PUSH2 0x16DA PUSH2 0x21CF JUMP JUMPDEST PUSH1 0x2 MUL ADD PUSH1 0x1 ADD PUSH1 0x0 PUSH2 0x100 EXP DUP2 SLOAD DUP2 PUSH1 0x1 PUSH1 0x1 PUSH1 0xA0 SHL SUB MUL NOT AND SWAP1 DUP4 PUSH1 0x1 PUSH1 0x1 PUSH1 0xA0 SHL SUB AND MUL OR SWAP1 SSTORE POP DUP1 DUP1 PUSH2 0x1710 SWAP1 PUSH2 0x210C JUMP JUMPDEST SWAP2 POP POP PUSH2 0x1657 JUMP JUMPDEST POP PUSH1 0x5 DUP2 LT ISZERO PUSH2 0x85F JUMPI DUP2 PUSH1 0xF DUP3 PUSH1 0x5 DUP2 LT PUSH2 0x1736 JUMPI PUSH2 0x1736 PUSH2 0x21CF JUMP JUMPDEST PUSH1 0x2 MUL ADD SSTORE DUP3 PUSH1 0xF DUP3 PUSH1 0x5 DUP2 LT PUSH2 0x174F JUMPI PUSH2 0x174F PUSH2 0x21CF JUMP JUMPDEST PUSH1 0x2 MUL ADD PUSH1 0x1 ADD PUSH1 0x0 PUSH2 0x100 EXP DUP2 SLOAD DUP2 PUSH1 0x1 PUSH1 0x1 PUSH1 0xA0 SHL SUB MUL NOT AND SWAP1 DUP4 PUSH1 0x1 PUSH1 0x1 PUSH1 0xA0 SHL SUB AND MUL OR SWAP1 SSTORE POP POP POP POP JUMP JUMPDEST PUSH1 0x1 PUSH1 0x1 PUSH1 0xA0 SHL SUB DUP4 AND PUSH2 0x17DA JUMPI PUSH2 0x17D5 DUP2 PUSH1 0x8 DUP1 SLOAD PUSH1 0x0 DUP4 DUP2 MSTORE PUSH1 0x9 PUSH1 0x20 MSTORE PUSH1 0x40 DUP2 KECCAK256 DUP3 SWAP1 SSTORE PUSH1 0x1 DUP3 ADD DUP4 SSTORE SWAP2 SWAP1 SWAP2 MSTORE PUSH32 0xF3F7A9FE364FAAB93B216DA50A3214154F22A0A2B415B23A84C8169E8B636EE3 ADD SSTORE JUMP JUMPDEST PUSH2 0x17FD JUMP JUMPDEST DUP2 PUSH1 0x1 PUSH1 0x1 PUSH1 0xA0 SHL SUB AND DUP4 PUSH1 0x1 PUSH1 0x1 PUSH1 0xA0 SHL SUB AND EQ PUSH2 0x17FD JUMPI PUSH2 0x17FD DUP4 DUP3 PUSH2 0x1977 JUMP JUMPDEST PUSH1 0x1 PUSH1 0x1 PUSH1 0xA0 SHL SUB DUP3 AND PUSH2 0x1814 JUMPI PUSH2 0x85F DUP2 PUSH2 0x1A14 JUMP JUMPDEST DUP3 PUSH1 0x1 PUSH1 0x1 PUSH1 0xA0 SHL SUB AND DUP3 PUSH1 0x1 PUSH1 0x1 PUSH1 0xA0 SHL SUB AND EQ PUSH2 0x85F JUMPI PUSH2 0x85F DUP3 DUP3 PUSH2 0x1AC3 JUMP JUMPDEST PUSH2 0x1841 DUP4 DUP4 PUSH2 0x1B07 JUMP JUMPDEST PUSH2 0x184E PUSH1 0x0 DUP5 DUP5 DUP5 PUSH2 0x186A JUMP JUMPDEST PUSH2 0x85F JUMPI PUSH1 0x40 MLOAD PUSH3 0x461BCD PUSH1 0xE5 SHL DUP2 MSTORE PUSH1 0x4 ADD PUSH2 0x729 SWAP1 PUSH2 0x1FDB JUMP JUMPDEST PUSH1 0x0 PUSH1 0x1 PUSH1 0x1 PUSH1 0xA0 SHL SUB DUP5 AND EXTCODESIZE ISZERO PUSH2 0x196C JUMPI PUSH1 0x40 MLOAD PUSH4 0xA85BD01 PUSH1 0xE1 SHL DUP2 MSTORE PUSH1 0x1 PUSH1 0x1 PUSH1 0xA0 SHL SUB DUP6 AND SWAP1 PUSH4 0x150B7A02 SWAP1 PUSH2 0x18AE SWAP1 CALLER SWAP1 DUP10 SWAP1 DUP9 SWAP1 DUP9 SWAP1 PUSH1 0x4 ADD PUSH2 0x1F8B JUMP JUMPDEST PUSH1 0x20 PUSH1 0x40 MLOAD DUP1 DUP4 SUB DUP2 PUSH1 0x0 DUP8 DUP1 EXTCODESIZE ISZERO DUP1 ISZERO PUSH2 0x18C8 JUMPI PUSH1 0x0 DUP1 REVERT JUMPDEST POP GAS CALL SWAP3 POP POP POP DUP1 ISZERO PUSH2 0x18F8 JUMPI POP PUSH1 0x40 DUP1 MLOAD PUSH1 0x1F RETURNDATASIZE SWAP1 DUP2 ADD PUSH1 0x1F NOT AND DUP3 ADD SWAP1 SWAP3 MSTORE PUSH2 0x18F5 SWAP2 DUP2 ADD SWAP1 PUSH2 0x1E7E JUMP JUMPDEST PUSH1 0x1 JUMPDEST PUSH2 0x1952 JUMPI RETURNDATASIZE DUP1 DUP1 ISZERO PUSH2 0x1926 JUMPI PUSH1 0x40 MLOAD SWAP2 POP PUSH1 0x1F NOT PUSH1 0x3F RETURNDATASIZE ADD AND DUP3 ADD PUSH1 0x40 MSTORE RETURNDATASIZE DUP3 MSTORE RETURNDATASIZE PUSH1 0x0 PUSH1 0x20 DUP5 ADD RETURNDATACOPY PUSH2 0x192B JUMP JUMPDEST PUSH1 0x60 SWAP2 POP JUMPDEST POP DUP1 MLOAD PUSH2 0x194A JUMPI PUSH1 0x40 MLOAD PUSH3 0x461BCD PUSH1 0xE5 SHL DUP2 MSTORE PUSH1 0x4 ADD PUSH2 0x729 SWAP1 PUSH2 0x1FDB JUMP JUMPDEST DUP1 MLOAD DUP2 PUSH1 0x20 ADD REVERT JUMPDEST PUSH1 0x1 PUSH1 0x1 PUSH1 0xE0 SHL SUB NOT AND PUSH4 0xA85BD01 PUSH1 0xE1 SHL EQ SWAP1 POP PUSH2 0x1306 JUMP JUMPDEST POP PUSH1 0x1 SWAP5 SWAP4 POP POP POP POP JUMP JUMPDEST PUSH1 0x0 PUSH1 0x1 PUSH2 0x1984 DUP5 PUSH2 0xD17 JUMP JUMPDEST PUSH2 0x198E SWAP2 SWAP1 PUSH2 0x20C9 JUMP JUMPDEST PUSH1 0x0 DUP4 DUP2 MSTORE PUSH1 0x7 PUSH1 0x20 MSTORE PUSH1 0x40 SWAP1 KECCAK256 SLOAD SWAP1 SWAP2 POP DUP1 DUP3 EQ PUSH2 0x19E1 JUMPI PUSH1 0x1 PUSH1 0x1 PUSH1 0xA0 SHL SUB DUP5 AND PUSH1 0x0 SWAP1 DUP2 MSTORE PUSH1 0x6 PUSH1 0x20 SWAP1 DUP2 MSTORE PUSH1 0x40 DUP1 DUP4 KECCAK256 DUP6 DUP5 MSTORE DUP3 MSTORE DUP1 DUP4 KECCAK256 SLOAD DUP5 DUP5 MSTORE DUP2 DUP5 KECCAK256 DUP2 SWAP1 SSTORE DUP4 MSTORE PUSH1 0x7 SWAP1 SWAP2 MSTORE SWAP1 KECCAK256 DUP2 SWAP1 SSTORE JUMPDEST POP PUSH1 0x0 SWAP2 DUP3 MSTORE PUSH1 0x7 PUSH1 0x20 SWAP1 DUP2 MSTORE PUSH1 0x40 DUP1 DUP5 KECCAK256 DUP5 SWAP1 SSTORE PUSH1 0x1 PUSH1 0x1 PUSH1 0xA0 SHL SUB SWAP1 SWAP5 AND DUP4 MSTORE PUSH1 0x6 DUP2 MSTORE DUP4 DUP4 KECCAK256 SWAP2 DUP4 MSTORE MSTORE SWAP1 DUP2 KECCAK256 SSTORE JUMP JUMPDEST PUSH1 0x8 SLOAD PUSH1 0x0 SWAP1 PUSH2 0x1A26 SWAP1 PUSH1 0x1 SWAP1 PUSH2 0x20C9 JUMP JUMPDEST PUSH1 0x0 DUP4 DUP2 MSTORE PUSH1 0x9 PUSH1 0x20 MSTORE PUSH1 0x40 DUP2 KECCAK256 SLOAD PUSH1 0x8 DUP1 SLOAD SWAP4 SWAP5 POP SWAP1 SWAP3 DUP5 SWAP1 DUP2 LT PUSH2 0x1A4E JUMPI PUSH2 0x1A4E PUSH2 0x21CF JUMP JUMPDEST SWAP1 PUSH1 0x0 MSTORE PUSH1 0x20 PUSH1 0x0 KECCAK256 ADD SLOAD SWAP1 POP DUP1 PUSH1 0x8 DUP4 DUP2 SLOAD DUP2 LT PUSH2 0x1A6F JUMPI PUSH2 0x1A6F PUSH2 0x21CF JUMP JUMPDEST PUSH1 0x0 SWAP2 DUP3 MSTORE PUSH1 0x20 DUP1 DUP4 KECCAK256 SWAP1 SWAP2 ADD SWAP3 SWAP1 SWAP3 SSTORE DUP3 DUP2 MSTORE PUSH1 0x9 SWAP1 SWAP2 MSTORE PUSH1 0x40 DUP1 DUP3 KECCAK256 DUP5 SWAP1 SSTORE DUP6 DUP3 MSTORE DUP2 KECCAK256 SSTORE PUSH1 0x8 DUP1 SLOAD DUP1 PUSH2 0x1AA7 JUMPI PUSH2 0x1AA7 PUSH2 0x21B9 JUMP JUMPDEST PUSH1 0x1 SWAP1 SUB DUP2 DUP2 SWAP1 PUSH1 0x0 MSTORE PUSH1 0x20 PUSH1 0x0 KECCAK256 ADD PUSH1 0x0 SWAP1 SSTORE SWAP1 SSTORE POP POP POP POP JUMP JUMPDEST PUSH1 0x0 PUSH2 0x1ACE DUP4 PUSH2 0xD17 JUMP JUMPDEST PUSH1 0x1 PUSH1 0x1 PUSH1 0xA0 SHL SUB SWAP1 SWAP4 AND PUSH1 0x0 SWAP1 DUP2 MSTORE PUSH1 0x6 PUSH1 0x20 SWAP1 DUP2 MSTORE PUSH1 0x40 DUP1 DUP4 KECCAK256 DUP7 DUP5 MSTORE DUP3 MSTORE DUP1 DUP4 KECCAK256 DUP6 SWAP1 SSTORE SWAP4 DUP3 MSTORE PUSH1 0x7 SWAP1 MSTORE SWAP2 SWAP1 SWAP2 KECCAK256 SWAP2 SWAP1 SWAP2 SSTORE POP JUMP JUMPDEST PUSH1 0x1 PUSH1 0x1 PUSH1 0xA0 SHL SUB DUP3 AND PUSH2 0x1B5D JUMPI PUSH1 0x40 MLOAD PUSH3 0x461BCD PUSH1 0xE5 SHL DUP2 MSTORE PUSH1 0x20 PUSH1 0x4 DUP3 ADD DUP2 SWAP1 MSTORE PUSH1 0x24 DUP3 ADD MSTORE PUSH32 0x4552433732313A206D696E7420746F20746865207A65726F2061646472657373 PUSH1 0x44 DUP3 ADD MSTORE PUSH1 0x64 ADD PUSH2 0x729 JUMP JUMPDEST PUSH1 0x0 DUP2 DUP2 MSTORE PUSH1 0x2 PUSH1 0x20 MSTORE PUSH1 0x40 SWAP1 KECCAK256 SLOAD PUSH1 0x1 PUSH1 0x1 PUSH1 0xA0 SHL SUB AND ISZERO PUSH2 0x1BC2 JUMPI PUSH1 0x40 MLOAD PUSH3 0x461BCD PUSH1 0xE5 SHL DUP2 MSTORE PUSH1 0x20 PUSH1 0x4 DUP3 ADD MSTORE PUSH1 0x1C PUSH1 0x24 DUP3 ADD MSTORE PUSH32 0x4552433732313A20746F6B656E20616C7265616479206D696E74656400000000 PUSH1 0x44 DUP3 ADD MSTORE PUSH1 0x64 ADD PUSH2 0x729 JUMP JUMPDEST PUSH2 0x1BCE PUSH1 0x0 DUP4 DUP4 PUSH2 0x177F JUMP JUMPDEST PUSH1 0x1 PUSH1 0x1 PUSH1 0xA0 SHL SUB DUP3 AND PUSH1 0x0 SWAP1 DUP2 MSTORE PUSH1 0x3 PUSH1 0x20 MSTORE PUSH1 0x40 DUP2 KECCAK256 DUP1 SLOAD PUSH1 0x1 SWAP3 SWAP1 PUSH2 0x1BF7 SWAP1 DUP5 SWAP1 PUSH2 0x207E JUMP JUMPDEST SWAP1 SWAP2 SSTORE POP POP PUSH1 0x0 DUP2 DUP2 MSTORE PUSH1 0x2 PUSH1 0x20 MSTORE PUSH1 0x40 DUP1 DUP3 KECCAK256 DUP1 SLOAD PUSH1 0x1 PUSH1 0x1 PUSH1 0xA0 SHL SUB NOT AND PUSH1 0x1 PUSH1 0x1 PUSH1 0xA0 SHL SUB DUP7 AND SWAP1 DUP2 OR SWAP1 SWAP2 SSTORE SWAP1 MLOAD DUP4 SWAP3 SWAP1 PUSH32 0xDDF252AD1BE2C89B69C2B068FC378DAA952BA7F163C4A11628F55A4DF523B3EF SWAP1 DUP3 SWAP1 LOG4 POP POP JUMP JUMPDEST PUSH1 0x0 PUSH8 0xFFFFFFFFFFFFFFFF DUP1 DUP5 GT ISZERO PUSH2 0x1C70 JUMPI PUSH2 0x1C70 PUSH2 0x21E5 JUMP JUMPDEST PUSH1 0x40 MLOAD PUSH1 0x1F DUP6 ADD PUSH1 0x1F NOT SWAP1 DUP2 AND PUSH1 0x3F ADD AND DUP2 ADD SWAP1 DUP3 DUP3 GT DUP2 DUP4 LT OR ISZERO PUSH2 0x1C98 JUMPI PUSH2 0x1C98 PUSH2 0x21E5 JUMP JUMPDEST DUP2 PUSH1 0x40 MSTORE DUP1 SWAP4 POP DUP6 DUP2 MSTORE DUP7 DUP7 DUP7 ADD GT ISZERO PUSH2 0x1CB1 JUMPI PUSH1 0x0 DUP1 REVERT JUMPDEST DUP6 DUP6 PUSH1 0x20 DUP4 ADD CALLDATACOPY PUSH1 0x0 PUSH1 0x20 DUP8 DUP4 ADD ADD MSTORE POP POP POP SWAP4 SWAP3 POP POP POP JUMP JUMPDEST PUSH1 0x0 DUP3 PUSH1 0x1F DUP4 ADD SLT PUSH2 0x1CDC JUMPI PUSH1 0x0 DUP1 REVERT JUMPDEST PUSH2 0xFFE DUP4 DUP4 CALLDATALOAD PUSH1 0x20 DUP6 ADD PUSH2 0x1C55 JUMP JUMPDEST PUSH1 0x0 PUSH1 0x20 DUP3 DUP5 SUB SLT ISZERO PUSH2 0x1CFD JUMPI PUSH1 0x0 DUP1 REVERT JUMPDEST DUP2 CALLDATALOAD PUSH2 0xFFE DUP2 PUSH2 0x21FB JUMP JUMPDEST PUSH1 0x0 DUP1 PUSH1 0x40 DUP4 DUP6 SUB SLT ISZERO PUSH2 0x1D1B JUMPI PUSH1 0x0 DUP1 REVERT JUMPDEST DUP3 CALLDATALOAD PUSH2 0x1D26 DUP2 PUSH2 0x21FB JUMP JUMPDEST SWAP2 POP PUSH1 0x20 DUP4 ADD CALLDATALOAD PUSH2 0x1D36 DUP2 PUSH2 0x21FB JUMP JUMPDEST DUP1 SWAP2 POP POP SWAP3 POP SWAP3 SWAP1 POP JUMP JUMPDEST PUSH1 0x0 DUP1 PUSH1 0x0 PUSH1 0x60 DUP5 DUP7 SUB SLT ISZERO PUSH2 0x1D56 JUMPI PUSH1 0x0 DUP1 REVERT JUMPDEST DUP4 CALLDATALOAD PUSH2 0x1D61 DUP2 PUSH2 0x21FB JUMP JUMPDEST SWAP3 POP PUSH1 0x20 DUP5 ADD CALLDATALOAD PUSH2 0x1D71 DUP2 PUSH2 0x21FB JUMP JUMPDEST SWAP3 SWAP6 SWAP3 SWAP5 POP POP POP PUSH1 0x40 SWAP2 SWAP1 SWAP2 ADD CALLDATALOAD SWAP1 JUMP JUMPDEST PUSH1 0x0 DUP1 PUSH1 0x0 DUP1 PUSH1 0x80 DUP6 DUP8 SUB SLT ISZERO PUSH2 0x1D98 JUMPI PUSH1 0x0 DUP1 REVERT JUMPDEST DUP5 CALLDATALOAD PUSH2 0x1DA3 DUP2 PUSH2 0x21FB JUMP JUMPDEST SWAP4 POP PUSH1 0x20 DUP6 ADD CALLDATALOAD PUSH2 0x1DB3 DUP2 PUSH2 0x21FB JUMP JUMPDEST SWAP3 POP PUSH1 0x40 DUP6 ADD CALLDATALOAD SWAP2 POP PUSH1 0x60 DUP6 ADD CALLDATALOAD PUSH8 0xFFFFFFFFFFFFFFFF DUP2 GT ISZERO PUSH2 0x1DD6 JUMPI PUSH1 0x0 DUP1 REVERT JUMPDEST DUP6 ADD PUSH1 0x1F DUP2 ADD DUP8 SGT PUSH2 0x1DE7 JUMPI PUSH1 0x0 DUP1 REVERT JUMPDEST PUSH2 0x1DF6 DUP8 DUP3 CALLDATALOAD PUSH1 0x20 DUP5 ADD PUSH2 0x1C55 JUMP JUMPDEST SWAP2 POP POP SWAP3 SWAP6 SWAP2 SWAP5 POP SWAP3 POP JUMP JUMPDEST PUSH1 0x0 DUP1 PUSH1 0x40 DUP4 DUP6 SUB SLT ISZERO PUSH2 0x1E15 JUMPI PUSH1 0x0 DUP1 REVERT JUMPDEST DUP3 CALLDATALOAD PUSH2 0x1E20 DUP2 PUSH2 0x21FB JUMP JUMPDEST SWAP2 POP PUSH1 0x20 DUP4 ADD CALLDATALOAD DUP1 ISZERO ISZERO DUP2 EQ PUSH2 0x1D36 JUMPI PUSH1 0x0 DUP1 REVERT JUMPDEST PUSH1 0x0 DUP1 PUSH1 0x40 DUP4 DUP6 SUB SLT ISZERO PUSH2 0x1E48 JUMPI PUSH1 0x0 DUP1 REVERT JUMPDEST DUP3 CALLDATALOAD PUSH2 0x1E53 DUP2 PUSH2 0x21FB JUMP JUMPDEST SWAP5 PUSH1 0x20 SWAP4 SWAP1 SWAP4 ADD CALLDATALOAD SWAP4 POP POP POP JUMP JUMPDEST PUSH1 0x0 PUSH1 0x20 DUP3 DUP5 SUB SLT ISZERO PUSH2 0x1E73 JUMPI PUSH1 0x0 DUP1 REVERT JUMPDEST DUP2 CALLDATALOAD PUSH2 0xFFE DUP2 PUSH2 0x2210 JUMP JUMPDEST PUSH1 0x0 PUSH1 0x20 DUP3 DUP5 SUB SLT ISZERO PUSH2 0x1E90 JUMPI PUSH1 0x0 DUP1 REVERT JUMPDEST DUP2 MLOAD PUSH2 0xFFE DUP2 PUSH2 0x2210 JUMP JUMPDEST PUSH1 0x0 PUSH1 0x20 DUP3 DUP5 SUB SLT ISZERO PUSH2 0x1EAD JUMPI PUSH1 0x0 DUP1 REVERT JUMPDEST DUP2 CALLDATALOAD PUSH8 0xFFFFFFFFFFFFFFFF DUP2 GT ISZERO PUSH2 0x1EC4 JUMPI PUSH1 0x0 DUP1 REVERT JUMPDEST PUSH2 0x1306 DUP5 DUP3 DUP6 ADD PUSH2 0x1CCB JUMP JUMPDEST PUSH1 0x0 PUSH1 0x20 DUP3 DUP5 SUB SLT ISZERO PUSH2 0x1EE2 JUMPI PUSH1 0x0 DUP1 REVERT JUMPDEST POP CALLDATALOAD SWAP2 SWAP1 POP JUMP JUMPDEST PUSH1 0x0 DUP1 PUSH1 0x40 DUP4 DUP6 SUB SLT ISZERO PUSH2 0x1EFC JUMPI PUSH1 0x0 DUP1 REVERT JUMPDEST DUP3 CALLDATALOAD SWAP2 POP PUSH1 0x20 DUP4 ADD CALLDATALOAD PUSH8 0xFFFFFFFFFFFFFFFF DUP2 GT ISZERO PUSH2 0x1F1A JUMPI PUSH1 0x0 DUP1 REVERT JUMPDEST PUSH2 0x1F26 DUP6 DUP3 DUP7 ADD PUSH2 0x1CCB JUMP JUMPDEST SWAP2 POP POP SWAP3 POP SWAP3 SWAP1 POP JUMP JUMPDEST PUSH1 0x0 DUP2 MLOAD DUP1 DUP5 MSTORE PUSH2 0x1F48 DUP2 PUSH1 0x20 DUP7 ADD PUSH1 0x20 DUP7 ADD PUSH2 0x20E0 JUMP JUMPDEST PUSH1 0x1F ADD PUSH1 0x1F NOT AND SWAP3 SWAP1 SWAP3 ADD PUSH1 0x20 ADD SWAP3 SWAP2 POP POP JUMP JUMPDEST PUSH1 0x0 DUP4 MLOAD PUSH2 0x1F6E DUP2 DUP5 PUSH1 0x20 DUP9 ADD PUSH2 0x20E0 JUMP JUMPDEST DUP4 MLOAD SWAP1 DUP4 ADD SWAP1 PUSH2 0x1F82 DUP2 DUP4 PUSH1 0x20 DUP9 ADD PUSH2 0x20E0 JUMP JUMPDEST ADD SWAP5 SWAP4 POP POP POP POP JUMP JUMPDEST PUSH1 0x1 PUSH1 0x1 PUSH1 0xA0 SHL SUB DUP6 DUP2 AND DUP3 MSTORE DUP5 AND PUSH1 0x20 DUP3 ADD MSTORE PUSH1 0x40 DUP2 ADD DUP4 SWAP1 MSTORE PUSH1 0x80 PUSH1 0x60 DUP3 ADD DUP2 SWAP1 MSTORE PUSH1 0x0 SWAP1 PUSH2 0x1FBE SWAP1 DUP4 ADD DUP5 PUSH2 0x1F30 JUMP JUMPDEST SWAP7 SWAP6 POP POP POP POP POP POP JUMP JUMPDEST PUSH1 0x20 DUP2 MSTORE PUSH1 0x0 PUSH2 0xFFE PUSH1 0x20 DUP4 ADD DUP5 PUSH2 0x1F30 JUMP JUMPDEST PUSH1 0x20 DUP1 DUP3 MSTORE PUSH1 0x32 SWAP1 DUP3 ADD MSTORE PUSH32 0x4552433732313A207472616E7366657220746F206E6F6E204552433732315265 PUSH1 0x40 DUP3 ADD MSTORE PUSH18 0x31B2B4BB32B91034B6B83632B6B2B73A32B9 PUSH1 0x71 SHL PUSH1 0x60 DUP3 ADD MSTORE PUSH1 0x80 ADD SWAP1 JUMP JUMPDEST PUSH1 0x20 DUP1 DUP3 MSTORE PUSH1 0x31 SWAP1 DUP3 ADD MSTORE PUSH32 0x4552433732313A207472616E736665722063616C6C6572206973206E6F74206F PUSH1 0x40 DUP3 ADD MSTORE PUSH17 0x1DDB995C881B9BDC88185C1C1C9BDD9959 PUSH1 0x7A SHL PUSH1 0x60 DUP3 ADD MSTORE PUSH1 0x80 ADD SWAP1 JUMP JUMPDEST PUSH1 0x0 DUP3 NOT DUP3 GT ISZERO PUSH2 0x2091 JUMPI PUSH2 0x2091 PUSH2 0x218D JUMP JUMPDEST POP ADD SWAP1 JUMP JUMPDEST PUSH1 0x0 DUP3 PUSH2 0x20A5 JUMPI PUSH2 0x20A5 PUSH2 0x21A3 JUMP JUMPDEST POP DIV SWAP1 JUMP JUMPDEST PUSH1 0x0 DUP2 PUSH1 0x0 NOT DIV DUP4 GT DUP3 ISZERO ISZERO AND ISZERO PUSH2 0x20C4 JUMPI PUSH2 0x20C4 PUSH2 0x218D JUMP JUMPDEST POP MUL SWAP1 JUMP JUMPDEST PUSH1 0x0 DUP3 DUP3 LT ISZERO PUSH2 0x20DB JUMPI PUSH2 0x20DB PUSH2 0x218D JUMP JUMPDEST POP SUB SWAP1 JUMP JUMPDEST PUSH1 0x0 JUMPDEST DUP4 DUP2 LT ISZERO PUSH2 0x20FB JUMPI DUP2 DUP2 ADD MLOAD DUP4 DUP3 ADD MSTORE PUSH1 0x20 ADD PUSH2 0x20E3 JUMP JUMPDEST DUP4 DUP2 GT ISZERO PUSH2 0xF17 JUMPI POP POP PUSH1 0x0 SWAP2 ADD MSTORE JUMP JUMPDEST PUSH1 0x0 DUP2 PUSH2 0x211B JUMPI PUSH2 0x211B PUSH2 0x218D JUMP JUMPDEST POP PUSH1 0x0 NOT ADD SWAP1 JUMP JUMPDEST PUSH1 0x1 DUP2 DUP2 SHR SWAP1 DUP3 AND DUP1 PUSH2 0x2137 JUMPI PUSH1 0x7F DUP3 AND SWAP2 POP JUMPDEST PUSH1 0x20 DUP3 LT DUP2 EQ ISZERO PUSH2 0x2158 JUMPI PUSH4 0x4E487B71 PUSH1 0xE0 SHL PUSH1 0x0 MSTORE PUSH1 0x22 PUSH1 0x4 MSTORE PUSH1 0x24 PUSH1 0x0 REVERT JUMPDEST POP SWAP2 SWAP1 POP JUMP JUMPDEST PUSH1 0x0 PUSH1 0x0 NOT DUP3 EQ ISZERO PUSH2 0x2172 JUMPI PUSH2 0x2172 PUSH2 0x218D JUMP JUMPDEST POP PUSH1 0x1 ADD SWAP1 JUMP JUMPDEST PUSH1 0x0 DUP3 PUSH2 0x2188 JUMPI PUSH2 0x2188 PUSH2 0x21A3 JUMP JUMPDEST POP MOD SWAP1 JUMP JUMPDEST PUSH4 0x4E487B71 PUSH1 0xE0 SHL PUSH1 0x0 MSTORE PUSH1 0x11 PUSH1 0x4 MSTORE PUSH1 0x24 PUSH1 0x0 REVERT JUMPDEST PUSH4 0x4E487B71 PUSH1 0xE0 SHL PUSH1 0x0 MSTORE PUSH1 0x12 PUSH1 0x4 MSTORE PUSH1 0x24 PUSH1 0x0 REVERT JUMPDEST PUSH4 0x4E487B71 PUSH1 0xE0 SHL PUSH1 0x0 MSTORE PUSH1 0x31 PUSH1 0x4 MSTORE PUSH1 0x24 PUSH1 0x0 REVERT JUMPDEST PUSH4 0x4E487B71 PUSH1 0xE0 SHL PUSH1 0x0 MSTORE PUSH1 0x32 PUSH1 0x4 MSTORE PUSH1 0x24 PUSH1 0x0 REVERT JUMPDEST PUSH4 0x4E487B71 PUSH1 0xE0 SHL PUSH1 0x0 MSTORE PUSH1 0x41 PUSH1 0x4 MSTORE PUSH1 0x24 PUSH1 0x0 REVERT JUMPDEST PUSH1 0x1 PUSH1 0x1 PUSH1 0xA0 SHL SUB DUP2 AND DUP2 EQ PUSH2 0x96F JUMPI PUSH1 0x0 DUP1 REVERT JUMPDEST PUSH1 0x1 PUSH1 0x1 PUSH1 0xE0 SHL SUB NOT DUP2 AND DUP2 EQ PUSH2 0x96F JUMPI PUSH1 0x0 DUP1 REVERT INVALID LOG2 PUSH5 0x6970667358 0x22 SLT KECCAK256 0xF6 0x26 CODESIZE OR 0x5D 0x2E CALLVALUE BLOCKHASH CALL SLT PUSH26 0xCBA93E66208885F9A06E9E4D9CD8D46BE7BA2653164736F6C63 NUMBER STOP ADDMOD SMOD STOP CALLER ","sha1":"ac6dccbdb39a0cf192a8187ca6e056286b2104aa","source":"// SPDX-License-Identifier: MIT\n\npragma solidity ^0.8.0;\n\nimport './imports.sol';\n\ncontract ActionNFTRare is ERC721Enumerable {\n  /* Variables */\n  address payable private beneficiary;\n\n  /* Rare NFT */\n  uint256 public bidUnits;\n  uint256 public lastBidTime;\n\n  mapping(address => uint256) public bids;\n  mapping(address => uint256) public withdrawableBalance;\n  struct TopBid {\n    uint256 balance;\n    address addr;\n  }\n  TopBid[5] public topBidders;\n\n  bool public auctionEnded = false;\n  uint256 public auctionEndTime;\n  uint256 public withdrawWindow = 24 * 60 * 60 * 30;\n\n\n  constructor(address payable _beneficiary, uint256 _bidUnits)\n    ERC721('PACDAO ACTION NFT RARE', 'PAC-A1-RARE')\n  {\n    beneficiary = _beneficiary;\n    bidUnits = _bidUnits;\n\n    // _setBaseURI('ipfs://QmcnEZQiGVzPonWS2MENbdY8DkwhWcCW7YBQNk5yHYF112');\n  }\n\n  /* Bid */\n\n  function bidRare() public payable {\n    require(auctionEnded == false, \"Auction over\");\n    require(msg.value / bidUnits * bidUnits == msg.value, \"Bid units\");\n    bids[msg.sender] += msg.value;\n    lastBidTime = block.timestamp;\n    updateHighestBidder(msg.sender, bids[msg.sender]);\n\n    withdrawableBalance[msg.sender] += msg.value / 10 * 9;\n   }\n\n\n  function updateHighestBidder(address addr, uint256 currentValue) internal {\n    uint256 i = 0;\n    /** get the index of the current max element **/\n    for (i; i < topBidders.length; i++) {\n      if (topBidders[i].balance < currentValue) {\n        break;\n      }\n    }\n    /** shift the array of position (getting rid of the last element) **/\n    for (uint256 j = topBidders.length - 1; j > i; j--) {\n      topBidders[j].balance = topBidders[j - 1].balance;\n      topBidders[j].addr = topBidders[j - 1].addr;\n    }\n    /** update the new max element **/\n    if(i < topBidders.length) {\n            topBidders[i].balance = currentValue;\n            topBidders[i].addr = addr;\n    }\n  }\n\n  function isTopBidder(address winner) public view returns (bool) {\n    for (uint256 _i = 0; _i < 5; _i++) {\n      if (topBidders[_i].addr == winner) {\n        return true;\n      }\n    }\n    return false;\n  }\n\n  /* Withdraw Functions */\n  function withdraw() public {\n    require(auctionEnded == true, \"Auction not ended\");\n    require(block.timestamp <= auctionEndTime + withdrawWindow, \"Withdraw window ended\");\n    require(isTopBidder(msg.sender) == false, \"Winners cannot withdraw\");\n\n    uint256 _val = withdrawableBalance[msg.sender];\n\n    withdrawableBalance[msg.sender] = 0;\n    payable(msg.sender).transfer(_val);\n  }\n\n  function withdrawTreasury() public {\n    require(auctionEnded == true, \"Auction ongoing\");\n    require(block.timestamp > auctionEndTime + withdrawWindow, \"Withdraw window\");\n    beneficiary.transfer(address(this).balance);\n  }\n\n  /* Admin Functions */\n  function updateBeneficiary(address payable _newBeneficiary) public {\n    require(msg.sender == beneficiary);\n    beneficiary = _newBeneficiary;\n  }\n\n  function setTokenUri(uint256 _tokenId, string memory _newUri) public {\n    require(msg.sender == beneficiary);\n    // _setTokenURI(_tokenId, _newUri);\n  }\n\n  function setDefaultMetadata(string memory _newUri) public {\n    require(msg.sender == beneficiary);\n    //defaultMetadata = _newUri;\n    // _setBaseURI(_newUri);\n  }\n\n  function setAuctionEnded() public {\n    require(msg.sender == beneficiary);\n    auctionEnded = true;\n    auctionEndTime = block.timestamp;\n    for (uint256 _i = 0; _i < topBidders.length; _i++) {\n      _safeMint(topBidders[_i].addr, _i);\n    }\n  }\n\n\n\n  /* Fallback Functions */\n  receive() external payable {}\n\n  fallback() external payable {}\n}\n\n\n\n","sourcePath":"contracts/ActionNFTRare.sol","type":"contract","deployment":{"address":"0xFB050755BE197AB182da5fF5c6eCee4B78f42721","chainid":"4","blockHeight":9327958}}