{"abi":[{"inputs":[{"internalType":"address payable","name":"_beneficiary","type":"address"},{"internalType":"uint256","name":"_minPrice","type":"uint256"}],"stateMutability":"nonpayable","type":"constructor","name":"constructor"},{"anonymous":false,"inputs":[{"indexed":true,"internalType":"address","name":"owner","type":"address"},{"indexed":true,"internalType":"address","name":"approved","type":"address"},{"indexed":true,"internalType":"uint256","name":"tokenId","type":"uint256"}],"name":"Approval","type":"event"},{"anonymous":false,"inputs":[{"indexed":true,"internalType":"address","name":"owner","type":"address"},{"indexed":true,"internalType":"address","name":"operator","type":"address"},{"indexed":false,"internalType":"bool","name":"approved","type":"bool"}],"name":"ApprovalForAll","type":"event"},{"anonymous":false,"inputs":[{"indexed":true,"internalType":"address","name":"from","type":"address"},{"indexed":true,"internalType":"address","name":"to","type":"address"},{"indexed":true,"internalType":"uint256","name":"tokenId","type":"uint256"}],"name":"Transfer","type":"event"},{"stateMutability":"payable","type":"fallback"},{"inputs":[],"name":"adminClaimTime","outputs":[{"internalType":"uint256","name":"","type":"uint256"}],"stateMutability":"view","type":"function"},{"inputs":[{"internalType":"address","name":"to","type":"address"},{"internalType":"uint256","name":"tokenId","type":"uint256"}],"name":"approve","outputs":[],"stateMutability":"nonpayable","type":"function"},{"inputs":[{"internalType":"address","name":"owner","type":"address"}],"name":"balanceOf","outputs":[{"internalType":"uint256","name":"","type":"uint256"}],"stateMutability":"view","type":"function"},{"inputs":[],"name":"canMint","outputs":[{"internalType":"bool","name":"","type":"bool"}],"stateMutability":"view","type":"function"},{"inputs":[],"name":"commonPrice","outputs":[{"internalType":"uint256","name":"","type":"uint256"}],"stateMutability":"view","type":"function"},{"inputs":[],"name":"commonUrl","outputs":[{"internalType":"string","name":"","type":"string"}],"stateMutability":"view","type":"function"},{"inputs":[],"name":"currentId","outputs":[{"internalType":"uint256","name":"","type":"uint256"}],"stateMutability":"view","type":"function"},{"inputs":[{"internalType":"uint256","name":"tokenId","type":"uint256"}],"name":"getApproved","outputs":[{"internalType":"address","name":"","type":"address"}],"stateMutability":"view","type":"function"},{"inputs":[{"internalType":"uint256","name":"mint_count","type":"uint256"}],"name":"getCostMany","outputs":[{"internalType":"uint256","name":"","type":"uint256"},{"internalType":"uint256","name":"","type":"uint256"}],"stateMutability":"view","type":"function"},{"inputs":[{"internalType":"address","name":"owner","type":"address"},{"internalType":"address","name":"operator","type":"address"}],"name":"isApprovedForAll","outputs":[{"internalType":"bool","name":"","type":"bool"}],"stateMutability":"view","type":"function"},{"inputs":[],"name":"mintCap","outputs":[{"internalType":"uint256","name":"","type":"uint256"}],"stateMutability":"view","type":"function"},{"inputs":[],"name":"mintCommon","outputs":[],"stateMutability":"payable","type":"function"},{"inputs":[{"internalType":"uint256","name":"_mint_count","type":"uint256"}],"name":"mintMany","outputs":[],"stateMutability":"payable","type":"function"},{"inputs":[],"name":"name","outputs":[{"internalType":"string","name":"","type":"string"}],"stateMutability":"view","type":"function"},{"inputs":[{"internalType":"uint256","name":"start_price","type":"uint256"}],"name":"nextPrice","outputs":[{"internalType":"uint256","name":"","type":"uint256"}],"stateMutability":"view","type":"function"},{"inputs":[{"internalType":"address","name":"","type":"address"}],"name":"originalMintCount","outputs":[{"internalType":"uint256","name":"","type":"uint256"}],"stateMutability":"view","type":"function"},{"inputs":[{"internalType":"uint256","name":"tokenId","type":"uint256"}],"name":"ownerOf","outputs":[{"internalType":"address","name":"","type":"address"}],"stateMutability":"view","type":"function"},{"inputs":[],"name":"rampRate","outputs":[{"internalType":"uint256","name":"","type":"uint256"}],"stateMutability":"view","type":"function"},{"inputs":[],"name":"refundAll","outputs":[],"stateMutability":"nonpayable","type":"function"},{"inputs":[{"internalType":"address","name":"from","type":"address"},{"internalType":"address","name":"to","type":"address"},{"internalType":"uint256","name":"tokenId","type":"uint256"}],"name":"safeTransferFrom","outputs":[],"stateMutability":"nonpayable","type":"function"},{"inputs":[{"internalType":"address","name":"from","type":"address"},{"internalType":"address","name":"to","type":"address"},{"internalType":"uint256","name":"tokenId","type":"uint256"},{"internalType":"bytes","name":"_data","type":"bytes"}],"name":"safeTransferFrom","outputs":[],"stateMutability":"nonpayable","type":"function"},{"inputs":[{"internalType":"address","name":"operator","type":"address"},{"internalType":"bool","name":"approved","type":"bool"}],"name":"setApprovalForAll","outputs":[],"stateMutability":"nonpayable","type":"function"},{"inputs":[{"internalType":"string","name":"_newUri","type":"string"}],"name":"setTokenUri","outputs":[],"stateMutability":"nonpayable","type":"function"},{"inputs":[{"internalType":"bool","name":"_resolution","type":"bool"}],"name":"signResolution","outputs":[],"stateMutability":"nonpayable","type":"function"},{"inputs":[{"internalType":"bytes4","name":"interfaceId","type":"bytes4"}],"name":"supportsInterface","outputs":[{"internalType":"bool","name":"","type":"bool"}],"stateMutability":"view","type":"function"},{"inputs":[],"name":"symbol","outputs":[{"internalType":"string","name":"","type":"string"}],"stateMutability":"view","type":"function"},{"inputs":[{"internalType":"uint256","name":"index","type":"uint256"}],"name":"tokenByIndex","outputs":[{"internalType":"uint256","name":"","type":"uint256"}],"stateMutability":"view","type":"function"},{"inputs":[{"internalType":"address","name":"owner","type":"address"},{"internalType":"uint256","name":"index","type":"uint256"}],"name":"tokenOfOwnerByIndex","outputs":[{"internalType":"uint256","name":"","type":"uint256"}],"stateMutability":"view","type":"function"},{"inputs":[{"internalType":"uint256","name":"tokenId","type":"uint256"}],"name":"tokenURI","outputs":[{"internalType":"string","name":"","type":"string"}],"stateMutability":"view","type":"function"},{"inputs":[],"name":"totalSupply","outputs":[{"internalType":"uint256","name":"","type":"uint256"}],"stateMutability":"view","type":"function"},{"inputs":[{"internalType":"address","name":"from","type":"address"},{"internalType":"address","name":"to","type":"address"},{"internalType":"uint256","name":"tokenId","type":"uint256"}],"name":"transferFrom","outputs":[],"stateMutability":"nonpayable","type":"function"},{"inputs":[{"internalType":"address payable","name":"_newBeneficiary","type":"address"}],"name":"updateBeneficiary","outputs":[],"stateMutability":"nonpayable","type":"function"},{"inputs":[],"name":"withdrawTreasury","outputs":[],"stateMutability":"nonpayable","type":"function"},{"inputs":[],"name":"withdrawWindow","outputs":[{"internalType":"uint256","name":"","type":"uint256"}],"stateMutability":"view","type":"function"},{"inputs":[{"internalType":"address","name":"","type":"address"}],"name":"withdrawableBalance","outputs":[{"internalType":"uint256","name":"","type":"uint256"}],"stateMutability":"view","type":"function"},{"stateMutability":"payable","type":"receive"}],"bytecode":"655af3107a4000600c556010805460ff19166001179055610bb860115562278d0060135560e06040526035608081815290620026d460a03980516200004d9160149160209091019062000114565b503480156200005b57600080fd5b5060405162002709380380620027098339810160408190526200007e91620001ba565b604080518082018252600d81526c2820a1a220a79020a1aa24a7a760991b6020808301918252835180850190945260068452655041432d413160d01b908401528151919291620000d19160009162000114565b508051620000e790600190602084019062000114565b5050600a80546001600160a01b0319166001600160a01b039490941693909317909255600d555062000233565b8280546200012290620001f6565b90600052602060002090601f01602090048101928262000146576000855562000191565b82601f106200016157805160ff191683800117855562000191565b8280016001018555821562000191579182015b828111156200019157825182559160200191906001019062000174565b506200019f929150620001a3565b5090565b5b808211156200019f5760008155600101620001a4565b60008060408385031215620001ce57600080fd5b82516001600160a01b0381168114620001e657600080fd5b6020939093015192949293505050565b600181811c908216806200020b57607f821691505b602082108114156200022d57634e487b7160e01b600052602260045260246000fd5b50919050565b61249180620002436000396000f3fe6080604052600436106101f05760003560e01c80635d113b711161010c578063b88d4fde1161009a578063c87b56dd1161006c578063c87b56dd1461058e578063cb028a83146105ae578063e00dd161146105c4578063e985e9c5146105da578063eec6e3291461062357005b8063b88d4fde14610529578063bb4771fd14610549578063beb9716d1461055f578063c475ec9f1461057957005b8063873b036a116100de578063873b036a146104c05780638d32895c146104c857806395d89b41146104de578063a22cb465146104f3578063ac9b4d6e1461051357005b80635d113b711461044a5780636352211e1461046a57806370a082311461048a57806376c71ca1146104aa57005b8063166bab95116101895780632f745c591161015b5780632f745c59146103a057806338e771ab146103c057806342842e0e146103d55780634f6ccce7146103f557806353443b601461041557005b8063166bab951461033657806318160ddd1461034b57806323b872dd146103605780632821ca711461038057005b806306fdde03116101c257806306fdde031461029c578063081812fc146102be578063095ea7b3146102f65780630aaffd2a1461031657005b806301ffc9a7146101f957806302b629381461022e578063059513a6146102695780630675b7c61461027c57005b366101f757005b005b34801561020557600080fd5b50610219610214366004612112565b610650565b60405190151581526020015b60405180910390f35b34801561023a57600080fd5b5061025b610249366004611f78565b600f6020526000908152604090205481565b604051908152602001610225565b6101f7610277366004612195565b61067b565b34801561028857600080fd5b506101f761029736600461214c565b6107d9565b3480156102a857600080fd5b506102b161081a565b6040516102259190612238565b3480156102ca57600080fd5b506102de6102d9366004612195565b6108ac565b6040516001600160a01b039091168152602001610225565b34801561030257600080fd5b506101f76103113660046120cb565b610941565b34801561032257600080fd5b506101f7610331366004611f78565b610a57565b34801561034257600080fd5b506101f7610aa3565b34801561035757600080fd5b5060085461025b565b34801561036c57600080fd5b506101f761037b366004611fd5565b610b68565b34801561038c57600080fd5b5061025b61039b366004612195565b610b99565b3480156103ac57600080fd5b5061025b6103bb3660046120cb565b610ba9565b3480156103cc57600080fd5b506101f7610c3f565b3480156103e157600080fd5b506101f76103f0366004611fd5565b610e98565b34801561040157600080fd5b5061025b610410366004612195565b610eb3565b34801561042157600080fd5b50610435610430366004612195565b610f46565b60408051928352602083019190915201610225565b34801561045657600080fd5b506101f76104653660046120f7565b610f90565b34801561047657600080fd5b506102de610485366004612195565b610fe9565b34801561049657600080fd5b5061025b6104a5366004611f78565b611060565b3480156104b657600080fd5b5061025b60115481565b6101f76110e7565b3480156104d457600080fd5b5061025b600d5481565b3480156104ea57600080fd5b506102b1611216565b3480156104ff57600080fd5b506101f761050e366004612096565b611225565b34801561051f57600080fd5b5061025b600c5481565b34801561053557600080fd5b506101f7610544366004612016565b6112ea565b34801561055557600080fd5b5061025b60125481565b34801561056b57600080fd5b506010546102199060ff1681565b34801561058557600080fd5b506102b161131c565b34801561059a57600080fd5b506102b16105a9366004612195565b6113aa565b3480156105ba57600080fd5b5061025b60135481565b3480156105d057600080fd5b5061025b600b5481565b3480156105e657600080fd5b506102196105f5366004611f9c565b6001600160a01b03918216600090815260056020908152604080832093909416825291909152205460ff1690565b34801561062f57600080fd5b5061025b61063e366004611f78565b600e6020526000908152604090205481565b60006001600160e01b0319821663780e9d6360e01b14806106755750610675826114bb565b92915050565b601054819060ff1615156001146106cf5760405162461bcd60e51b815260206004820152601360248201527226b4b73a34b733903832b934b7b21037bb32b960691b60448201526064015b60405180910390fd5b601154816106dc60085490565b6106e69190612312565b111561072c5760405162461bcd60e51b8152602060048201526015602482015274496e73756666696369656e74205175616e7469747960581b60448201526064016106c6565b60008061073884610f46565b915091508134101561077a5760405162461bcd60e51b815260206004820152600b60248201526a155b99195c9c1c9a58d95960aa1b60448201526064016106c6565b60005b8481101561079f5761078d61150b565b80610797816123bd565b91505061077d565b50336000908152600e6020526040812080548692906107bf908490612312565b9091555050600d8190556107d33334611533565b50505050565b600a546001600160a01b031633146108035760405162461bcd60e51b81526004016106c69061229d565b8051610816906014906020840190611e54565b5050565b60606000805461082990612382565b80601f016020809104026020016040519081016040528092919081815260200182805461085590612382565b80156108a25780601f10610877576101008083540402835291602001916108a2565b820191906000526020600020905b81548152906001019060200180831161088557829003601f168201915b5050505050905090565b6000818152600260205260408120546001600160a01b03166109255760405162461bcd60e51b815260206004820152602c60248201527f4552433732313a20617070726f76656420717565727920666f72206e6f6e657860448201526b34b9ba32b73a103a37b5b2b760a11b60648201526084016106c6565b506000908152600460205260409020546001600160a01b031690565b600061094c82610fe9565b9050806001600160a01b0316836001600160a01b031614156109ba5760405162461bcd60e51b815260206004820152602160248201527f4552433732313a20617070726f76616c20746f2063757272656e74206f776e656044820152603960f91b60648201526084016106c6565b336001600160a01b03821614806109d657506109d681336105f5565b610a485760405162461bcd60e51b815260206004820152603860248201527f4552433732313a20617070726f76652063616c6c6572206973206e6f74206f7760448201527f6e6572206e6f7220617070726f76656420666f7220616c6c000000000000000060648201526084016106c6565b610a52838361157a565b505050565b600a546001600160a01b03163314610a815760405162461bcd60e51b81526004016106c69061229d565b600a80546001600160a01b0319166001600160a01b0392909216919091179055565b60105460ff1615610ae55760405162461bcd60e51b815260206004820152600c60248201526b53616c65206f6e676f696e6760a01b60448201526064016106c6565b601254421015610b2c5760405162461bcd60e51b815260206004820152601260248201527141646d696e2063616e6e6f7420636c61696d60701b60448201526064016106c6565b600a546040516001600160a01b03909116904780156108fc02916000818181858888f19350505050158015610b65573d6000803e3d6000fd5b50565b610b7233826115e8565b610b8e5760405162461bcd60e51b81526004016106c6906122c1565b610a528383836116df565b6000600c54826106759190612312565b6000610bb483611060565b8210610c165760405162461bcd60e51b815260206004820152602b60248201527f455243373231456e756d657261626c653a206f776e657220696e646578206f7560448201526a74206f6620626f756e647360a81b60648201526084016106c6565b506001600160a01b03919091166000908152600660209081526040808320938352929052205490565b60105460ff1615610c815760405162461bcd60e51b815260206004820152600c60248201526b53616c65206f6e676f696e6760a01b60448201526064016106c6565b6012544210610cca5760405162461bcd60e51b815260206004820152601560248201527415da5d1a191c985dc814195c9a5bd908115b991959605a1b60448201526064016106c6565b336000818152600e602052604090205490610ce490611060565b1015610d275760405162461bcd60e51b8152602060048201526012602482015271135d5cdd081a185d99481bdc9a59da5b985b60721b60448201526064016106c6565b336000908152600f6020526040902054610d7c5760405162461bcd60e51b81526020600482015260166024820152754e6f2062616c616e636520746f20776974686472617760501b60448201526064016106c6565b336000908152600e6020526040812054908167ffffffffffffffff811115610da657610da661241a565b604051908082528060200260200182016040528015610dcf578160200160208202803683370190505b50905060005b82811015610e1657610de73382610ba9565b828281518110610df957610df9612404565b602090810291909101015280610e0e816123bd565b915050610dd5565b5060005b82811015610e5657610e44828281518110610e3757610e37612404565b602002602001015161188a565b80610e4e816123bd565b915050610e1a565b50336000818152600f6020526040808220805490839055905190929183156108fc02918491818181858888f193505050501580156107d3573d6000803e3d6000fd5b610a52838383604051806020016040528060008152506112ea565b6000610ebe60085490565b8210610f215760405162461bcd60e51b815260206004820152602c60248201527f455243373231456e756d657261626c653a20676c6f62616c20696e646578206f60448201526b7574206f6620626f756e647360a01b60648201526084016106c6565b60088281548110610f3457610f34612404565b90600052602060002001549050919050565b600080600080600d54905060005b85811015610f8557610f668284612312565b9250610f7182610b99565b915080610f7d816123bd565b915050610f54565b509094909350915050565b600a546001600160a01b03163314610fba5760405162461bcd60e51b81526004016106c69061229d565b6010805460ff1916905580151560011415610fd6574260125550565b601354610fe39042612312565b60125550565b6000818152600260205260408120546001600160a01b0316806106755760405162461bcd60e51b815260206004820152602960248201527f4552433732313a206f776e657220717565727920666f72206e6f6e657869737460448201526832b73a103a37b5b2b760b91b60648201526084016106c6565b60006001600160a01b0382166110cb5760405162461bcd60e51b815260206004820152602a60248201527f4552433732313a2062616c616e636520717565727920666f7220746865207a65604482015269726f206164647265737360b01b60648201526084016106c6565b506001600160a01b031660009081526003602052604090205490565b60105460019060ff16151581146111365760405162461bcd60e51b815260206004820152601360248201527226b4b73a34b733903832b934b7b21037bb32b960691b60448201526064016106c6565b6011548161114360085490565b61114d9190612312565b11156111935760405162461bcd60e51b8152602060048201526015602482015274496e73756666696369656e74205175616e7469747960581b60448201526064016106c6565b600d543410156111d35760405162461bcd60e51b815260206004820152600b60248201526a155b99195c9c1c9a58d95960aa1b60448201526064016106c6565b6111db61150b565b6111e6600d54610b99565b600d556111f33334611533565b336000908152600e6020526040812080549161120e836123bd565b919050555050565b60606001805461082990612382565b6001600160a01b03821633141561127e5760405162461bcd60e51b815260206004820152601960248201527f4552433732313a20617070726f766520746f2063616c6c65720000000000000060448201526064016106c6565b3360008181526005602090815260408083206001600160a01b03871680855290835292819020805460ff191686151590811790915590519081529192917f17307eab39ab6107e8899845ad3d59bd9653f200f220920489ca2b5937696c31910160405180910390a35050565b6112f433836115e8565b6113105760405162461bcd60e51b81526004016106c6906122c1565b6107d384848484611931565b6014805461132990612382565b80601f016020809104026020016040519081016040528092919081815260200182805461135590612382565b80156113a25780601f10611377576101008083540402835291602001916113a2565b820191906000526020600020905b81548152906001019060200180831161138557829003601f168201915b505050505081565b6000818152600260205260409020546060906001600160a01b03166114295760405162461bcd60e51b815260206004820152602f60248201527f4552433732314d657461646174613a2055524920717565727920666f72206e6f60448201526e3732bc34b9ba32b73a103a37b5b2b760891b60648201526084016106c6565b6014805461143690612382565b80601f016020809104026020016040519081016040528092919081815260200182805461146290612382565b80156114af5780601f10611484576101008083540402835291602001916114af565b820191906000526020600020905b81548152906001019060200180831161149257829003601f168201915b50505050509050919050565b60006001600160e01b031982166380ac58cd60e01b14806114ec57506001600160e01b03198216635b5e139f60e01b145b8061067557506301ffc9a760e01b6001600160e01b0319831614610675565b6001600b600082825461151e9190612312565b9250508190555061153133600b54611964565b565b6000606461154234605a61234c565b61154c919061232a565b336000908152600f6020526040812080549293508392909190611570908490612312565b9091555050505050565b600081815260046020526040902080546001600160a01b0319166001600160a01b03841690811790915581906115af82610fe9565b6001600160a01b03167f8c5be1e5ebec7d5bd14f71427d1e84f3dd0314c0f7b2291e5b200ac8c7c3b92560405160405180910390a45050565b6000818152600260205260408120546001600160a01b03166116615760405162461bcd60e51b815260206004820152602c60248201527f4552433732313a206f70657261746f7220717565727920666f72206e6f6e657860448201526b34b9ba32b73a103a37b5b2b760a11b60648201526084016106c6565b600061166c83610fe9565b9050806001600160a01b0316846001600160a01b031614806116a75750836001600160a01b031661169c846108ac565b6001600160a01b0316145b806116d757506001600160a01b0380821660009081526005602090815260408083209388168352929052205460ff165b949350505050565b826001600160a01b03166116f282610fe9565b6001600160a01b03161461175a5760405162461bcd60e51b815260206004820152602960248201527f4552433732313a207472616e73666572206f6620746f6b656e2074686174206960448201526839903737ba1037bbb760b91b60648201526084016106c6565b6001600160a01b0382166117bc5760405162461bcd60e51b8152602060048201526024808201527f4552433732313a207472616e7366657220746f20746865207a65726f206164646044820152637265737360e01b60648201526084016106c6565b6117c783838361197e565b6117d260008261157a565b6001600160a01b03831660009081526003602052604081208054600192906117fb90849061236b565b90915550506001600160a01b0382166000908152600360205260408120805460019290611829908490612312565b909155505060008181526002602052604080822080546001600160a01b0319166001600160a01b0386811691821790925591518493918716917fddf252ad1be2c89b69c2b068fc378daa952ba7f163c4a11628f55a4df523b3ef91a4505050565b600061189582610fe9565b90506118a38160008461197e565b6118ae60008361157a565b6001600160a01b03811660009081526003602052604081208054600192906118d790849061236b565b909155505060008281526002602052604080822080546001600160a01b0319169055518391906001600160a01b038416907fddf252ad1be2c89b69c2b068fc378daa952ba7f163c4a11628f55a4df523b3ef908390a45050565b61193c8484846116df565b61194884848484611a36565b6107d35760405162461bcd60e51b81526004016106c69061224b565b610816828260405180602001604052806000815250611b43565b6001600160a01b0383166119d9576119d481600880546000838152600960205260408120829055600182018355919091527ff3f7a9fe364faab93b216da50a3214154f22a0a2b415b23a84c8169e8b636ee30155565b6119fc565b816001600160a01b0316836001600160a01b0316146119fc576119fc8382611b76565b6001600160a01b038216611a1357610a5281611c13565b826001600160a01b0316826001600160a01b031614610a5257610a528282611cc2565b60006001600160a01b0384163b15611b3857604051630a85bd0160e11b81526001600160a01b0385169063150b7a0290611a7a9033908990889088906004016121fb565b602060405180830381600087803b158015611a9457600080fd5b505af1925050508015611ac4575060408051601f3d908101601f19168201909252611ac19181019061212f565b60015b611b1e573d808015611af2576040519150601f19603f3d011682016040523d82523d6000602084013e611af7565b606091505b508051611b165760405162461bcd60e51b81526004016106c69061224b565b805181602001fd5b6001600160e01b031916630a85bd0160e11b1490506116d7565b506001949350505050565b611b4d8383611d06565b611b5a6000848484611a36565b610a525760405162461bcd60e51b81526004016106c69061224b565b60006001611b8384611060565b611b8d919061236b565b600083815260076020526040902054909150808214611be0576001600160a01b03841660009081526006602090815260408083208584528252808320548484528184208190558352600790915290208190555b5060009182526007602090815260408084208490556001600160a01b039094168352600681528383209183525290812055565b600854600090611c259060019061236b565b60008381526009602052604081205460088054939450909284908110611c4d57611c4d612404565b906000526020600020015490508060088381548110611c6e57611c6e612404565b6000918252602080832090910192909255828152600990915260408082208490558582528120556008805480611ca657611ca66123ee565b6001900381819060005260206000200160009055905550505050565b6000611ccd83611060565b6001600160a01b039093166000908152600660209081526040808320868452825280832085905593825260079052919091209190915550565b6001600160a01b038216611d5c5760405162461bcd60e51b815260206004820181905260248201527f4552433732313a206d696e7420746f20746865207a65726f206164647265737360448201526064016106c6565b6000818152600260205260409020546001600160a01b031615611dc15760405162461bcd60e51b815260206004820152601c60248201527f4552433732313a20746f6b656e20616c7265616479206d696e7465640000000060448201526064016106c6565b611dcd6000838361197e565b6001600160a01b0382166000908152600360205260408120805460019290611df6908490612312565b909155505060008181526002602052604080822080546001600160a01b0319166001600160a01b03861690811790915590518392907fddf252ad1be2c89b69c2b068fc378daa952ba7f163c4a11628f55a4df523b3ef908290a45050565b828054611e6090612382565b90600052602060002090601f016020900481019282611e825760008555611ec8565b82601f10611e9b57805160ff1916838001178555611ec8565b82800160010185558215611ec8579182015b82811115611ec8578251825591602001919060010190611ead565b50611ed4929150611ed8565b5090565b5b80821115611ed45760008155600101611ed9565b600067ffffffffffffffff80841115611f0857611f0861241a565b604051601f8501601f19908116603f01168101908282118183101715611f3057611f3061241a565b81604052809350858152868686011115611f4957600080fd5b858560208301376000602087830101525050509392505050565b80358015158114611f7357600080fd5b919050565b600060208284031215611f8a57600080fd5b8135611f9581612430565b9392505050565b60008060408385031215611faf57600080fd5b8235611fba81612430565b91506020830135611fca81612430565b809150509250929050565b600080600060608486031215611fea57600080fd5b8335611ff581612430565b9250602084013561200581612430565b929592945050506040919091013590565b6000806000806080858703121561202c57600080fd5b843561203781612430565b9350602085013561204781612430565b925060408501359150606085013567ffffffffffffffff81111561206a57600080fd5b8501601f8101871361207b57600080fd5b61208a87823560208401611eed565b91505092959194509250565b600080604083850312156120a957600080fd5b82356120b481612430565b91506120c260208401611f63565b90509250929050565b600080604083850312156120de57600080fd5b82356120e981612430565b946020939093013593505050565b60006020828403121561210957600080fd5b611f9582611f63565b60006020828403121561212457600080fd5b8135611f9581612445565b60006020828403121561214157600080fd5b8151611f9581612445565b60006020828403121561215e57600080fd5b813567ffffffffffffffff81111561217557600080fd5b8201601f8101841361218657600080fd5b6116d784823560208401611eed565b6000602082840312156121a757600080fd5b5035919050565b6000815180845260005b818110156121d4576020818501810151868301820152016121b8565b818111156121e6576000602083870101525b50601f01601f19169290920160200192915050565b6001600160a01b038581168252841660208201526040810183905260806060820181905260009061222e908301846121ae565b9695505050505050565b602081526000611f9560208301846121ae565b60208082526032908201527f4552433732313a207472616e7366657220746f206e6f6e20455243373231526560408201527131b2b4bb32b91034b6b83632b6b2b73a32b960711b606082015260800190565b6020808252600a908201526927b7363c9020b236b4b760b11b604082015260600190565b60208082526031908201527f4552433732313a207472616e736665722063616c6c6572206973206e6f74206f6040820152701ddb995c881b9bdc88185c1c1c9bdd9959607a1b606082015260800190565b60008219821115612325576123256123d8565b500190565b60008261234757634e487b7160e01b600052601260045260246000fd5b500490565b6000816000190483118215151615612366576123666123d8565b500290565b60008282101561237d5761237d6123d8565b500390565b600181811c9082168061239657607f821691505b602082108114156123b757634e487b7160e01b600052602260045260246000fd5b50919050565b60006000198214156123d1576123d16123d8565b5060010190565b634e487b7160e01b600052601160045260246000fd5b634e487b7160e01b600052603160045260246000fd5b634e487b7160e01b600052603260045260246000fd5b634e487b7160e01b600052604160045260246000fd5b6001600160a01b0381168114610b6557600080fd5b6001600160e01b031981168114610b6557600080fdfea26469706673582212200dea9ad5b033f034302f1c0aa85436be500f8679696d16db66c2ec330148ca8964736f6c63430008070033697066733a2f2f516d54464d4a313773333559326648536f6d64546832396d38436442504b384376387472586e415754564a316863","bytecodeSha1":"da39a3ee5e6b4b0d3255bfef95601890afd80709","compiler":{"evm_version":"istanbul","optimizer":{"enabled":true,"runs":200},"version":"0.8.7+commit.e28d00a7"},"contractName":"ActionNFT","language":"Solidity","natspec":{"kind":"dev","methods":{"approve(address,uint256)":{"details":"See {IERC721-approve}."},"balanceOf(address)":{"details":"See {IERC721-balanceOf}."},"getApproved(uint256)":{"details":"See {IERC721-getApproved}."},"isApprovedForAll(address,address)":{"details":"See {IERC721-isApprovedForAll}."},"name()":{"details":"See {IERC721Metadata-name}."},"ownerOf(uint256)":{"details":"See {IERC721-ownerOf}."},"safeTransferFrom(address,address,uint256)":{"details":"See {IERC721-safeTransferFrom}."},"safeTransferFrom(address,address,uint256,bytes)":{"details":"See {IERC721-safeTransferFrom}."},"setApprovalForAll(address,bool)":{"details":"See {IERC721-setApprovalForAll}."},"supportsInterface(bytes4)":{"details":"See {IERC165-supportsInterface}."},"symbol()":{"details":"See {IERC721Metadata-symbol}."},"tokenByIndex(uint256)":{"details":"See {IERC721Enumerable-tokenByIndex}."},"tokenOfOwnerByIndex(address,uint256)":{"details":"See {IERC721Enumerable-tokenOfOwnerByIndex}."},"tokenURI(uint256)":{"details":"See {IERC721Metadata-tokenURI}."},"totalSupply()":{"details":"See {IERC721Enumerable-totalSupply}."},"transferFrom(address,address,uint256)":{"details":"See {IERC721-transferFrom}."}},"version":1},"opcodes":"PUSH1 0x80 PUSH1 0x40 MSTORE PUSH1 0x4 CALLDATASIZE LT PUSH2 0x1F0 JUMPI PUSH1 0x0 CALLDATALOAD PUSH1 0xE0 SHR DUP1 PUSH4 0x5D113B71 GT PUSH2 0x10C JUMPI DUP1 PUSH4 0xB88D4FDE GT PUSH2 0x9A JUMPI DUP1 PUSH4 0xC87B56DD GT PUSH2 0x6C JUMPI DUP1 PUSH4 0xC87B56DD EQ PUSH2 0x58E JUMPI DUP1 PUSH4 0xCB028A83 EQ PUSH2 0x5AE JUMPI DUP1 PUSH4 0xE00DD161 EQ PUSH2 0x5C4 JUMPI DUP1 PUSH4 0xE985E9C5 EQ PUSH2 0x5DA JUMPI DUP1 PUSH4 0xEEC6E329 EQ PUSH2 0x623 JUMPI STOP JUMPDEST DUP1 PUSH4 0xB88D4FDE EQ PUSH2 0x529 JUMPI DUP1 PUSH4 0xBB4771FD EQ PUSH2 0x549 JUMPI DUP1 PUSH4 0xBEB9716D EQ PUSH2 0x55F JUMPI DUP1 PUSH4 0xC475EC9F EQ PUSH2 0x579 JUMPI STOP JUMPDEST DUP1 PUSH4 0x873B036A GT PUSH2 0xDE JUMPI DUP1 PUSH4 0x873B036A EQ PUSH2 0x4C0 JUMPI DUP1 PUSH4 0x8D32895C EQ PUSH2 0x4C8 JUMPI DUP1 PUSH4 0x95D89B41 EQ PUSH2 0x4DE JUMPI DUP1 PUSH4 0xA22CB465 EQ PUSH2 0x4F3 JUMPI DUP1 PUSH4 0xAC9B4D6E EQ PUSH2 0x513 JUMPI STOP JUMPDEST DUP1 PUSH4 0x5D113B71 EQ PUSH2 0x44A JUMPI DUP1 PUSH4 0x6352211E EQ PUSH2 0x46A JUMPI DUP1 PUSH4 0x70A08231 EQ PUSH2 0x48A JUMPI DUP1 PUSH4 0x76C71CA1 EQ PUSH2 0x4AA JUMPI STOP JUMPDEST DUP1 PUSH4 0x166BAB95 GT PUSH2 0x189 JUMPI DUP1 PUSH4 0x2F745C59 GT PUSH2 0x15B JUMPI DUP1 PUSH4 0x2F745C59 EQ PUSH2 0x3A0 JUMPI DUP1 PUSH4 0x38E771AB EQ PUSH2 0x3C0 JUMPI DUP1 PUSH4 0x42842E0E EQ PUSH2 0x3D5 JUMPI DUP1 PUSH4 0x4F6CCCE7 EQ PUSH2 0x3F5 JUMPI DUP1 PUSH4 0x53443B60 EQ PUSH2 0x415 JUMPI STOP JUMPDEST DUP1 PUSH4 0x166BAB95 EQ PUSH2 0x336 JUMPI DUP1 PUSH4 0x18160DDD EQ PUSH2 0x34B JUMPI DUP1 PUSH4 0x23B872DD EQ PUSH2 0x360 JUMPI DUP1 PUSH4 0x2821CA71 EQ PUSH2 0x380 JUMPI STOP JUMPDEST DUP1 PUSH4 0x6FDDE03 GT PUSH2 0x1C2 JUMPI DUP1 PUSH4 0x6FDDE03 EQ PUSH2 0x29C JUMPI DUP1 PUSH4 0x81812FC EQ PUSH2 0x2BE JUMPI DUP1 PUSH4 0x95EA7B3 EQ PUSH2 0x2F6 JUMPI DUP1 PUSH4 0xAAFFD2A EQ PUSH2 0x316 JUMPI STOP JUMPDEST DUP1 PUSH4 0x1FFC9A7 EQ PUSH2 0x1F9 JUMPI DUP1 PUSH4 0x2B62938 EQ PUSH2 0x22E JUMPI DUP1 PUSH4 0x59513A6 EQ PUSH2 0x269 JUMPI DUP1 PUSH4 0x675B7C6 EQ PUSH2 0x27C JUMPI STOP JUMPDEST CALLDATASIZE PUSH2 0x1F7 JUMPI STOP JUMPDEST STOP JUMPDEST CALLVALUE DUP1 ISZERO PUSH2 0x205 JUMPI PUSH1 0x0 DUP1 REVERT JUMPDEST POP PUSH2 0x219 PUSH2 0x214 CALLDATASIZE PUSH1 0x4 PUSH2 0x2112 JUMP JUMPDEST PUSH2 0x650 JUMP JUMPDEST PUSH1 0x40 MLOAD SWAP1 ISZERO ISZERO DUP2 MSTORE PUSH1 0x20 ADD JUMPDEST PUSH1 0x40 MLOAD DUP1 SWAP2 SUB SWAP1 RETURN JUMPDEST CALLVALUE DUP1 ISZERO PUSH2 0x23A JUMPI PUSH1 0x0 DUP1 REVERT JUMPDEST POP PUSH2 0x25B PUSH2 0x249 CALLDATASIZE PUSH1 0x4 PUSH2 0x1F78 JUMP JUMPDEST PUSH1 0xF PUSH1 0x20 MSTORE PUSH1 0x0 SWAP1 DUP2 MSTORE PUSH1 0x40 SWAP1 KECCAK256 SLOAD DUP2 JUMP JUMPDEST PUSH1 0x40 MLOAD SWAP1 DUP2 MSTORE PUSH1 0x20 ADD PUSH2 0x225 JUMP JUMPDEST PUSH2 0x1F7 PUSH2 0x277 CALLDATASIZE PUSH1 0x4 PUSH2 0x2195 JUMP JUMPDEST PUSH2 0x67B JUMP JUMPDEST CALLVALUE DUP1 ISZERO PUSH2 0x288 JUMPI PUSH1 0x0 DUP1 REVERT JUMPDEST POP PUSH2 0x1F7 PUSH2 0x297 CALLDATASIZE PUSH1 0x4 PUSH2 0x214C JUMP JUMPDEST PUSH2 0x7D9 JUMP JUMPDEST CALLVALUE DUP1 ISZERO PUSH2 0x2A8 JUMPI PUSH1 0x0 DUP1 REVERT JUMPDEST POP PUSH2 0x2B1 PUSH2 0x81A JUMP JUMPDEST PUSH1 0x40 MLOAD PUSH2 0x225 SWAP2 SWAP1 PUSH2 0x2238 JUMP JUMPDEST CALLVALUE DUP1 ISZERO PUSH2 0x2CA JUMPI PUSH1 0x0 DUP1 REVERT JUMPDEST POP PUSH2 0x2DE PUSH2 0x2D9 CALLDATASIZE PUSH1 0x4 PUSH2 0x2195 JUMP JUMPDEST PUSH2 0x8AC JUMP JUMPDEST PUSH1 0x40 MLOAD PUSH1 0x1 PUSH1 0x1 PUSH1 0xA0 SHL SUB SWAP1 SWAP2 AND DUP2 MSTORE PUSH1 0x20 ADD PUSH2 0x225 JUMP JUMPDEST CALLVALUE DUP1 ISZERO PUSH2 0x302 JUMPI PUSH1 0x0 DUP1 REVERT JUMPDEST POP PUSH2 0x1F7 PUSH2 0x311 CALLDATASIZE PUSH1 0x4 PUSH2 0x20CB JUMP JUMPDEST PUSH2 0x941 JUMP JUMPDEST CALLVALUE DUP1 ISZERO PUSH2 0x322 JUMPI PUSH1 0x0 DUP1 REVERT JUMPDEST POP PUSH2 0x1F7 PUSH2 0x331 CALLDATASIZE PUSH1 0x4 PUSH2 0x1F78 JUMP JUMPDEST PUSH2 0xA57 JUMP JUMPDEST CALLVALUE DUP1 ISZERO PUSH2 0x342 JUMPI PUSH1 0x0 DUP1 REVERT JUMPDEST POP PUSH2 0x1F7 PUSH2 0xAA3 JUMP JUMPDEST CALLVALUE DUP1 ISZERO PUSH2 0x357 JUMPI PUSH1 0x0 DUP1 REVERT JUMPDEST POP PUSH1 0x8 SLOAD PUSH2 0x25B JUMP JUMPDEST CALLVALUE DUP1 ISZERO PUSH2 0x36C JUMPI PUSH1 0x0 DUP1 REVERT JUMPDEST POP PUSH2 0x1F7 PUSH2 0x37B CALLDATASIZE PUSH1 0x4 PUSH2 0x1FD5 JUMP JUMPDEST PUSH2 0xB68 JUMP JUMPDEST CALLVALUE DUP1 ISZERO PUSH2 0x38C JUMPI PUSH1 0x0 DUP1 REVERT JUMPDEST POP PUSH2 0x25B PUSH2 0x39B CALLDATASIZE PUSH1 0x4 PUSH2 0x2195 JUMP JUMPDEST PUSH2 0xB99 JUMP JUMPDEST CALLVALUE DUP1 ISZERO PUSH2 0x3AC JUMPI PUSH1 0x0 DUP1 REVERT JUMPDEST POP PUSH2 0x25B PUSH2 0x3BB CALLDATASIZE PUSH1 0x4 PUSH2 0x20CB JUMP JUMPDEST PUSH2 0xBA9 JUMP JUMPDEST CALLVALUE DUP1 ISZERO PUSH2 0x3CC JUMPI PUSH1 0x0 DUP1 REVERT JUMPDEST POP PUSH2 0x1F7 PUSH2 0xC3F JUMP JUMPDEST CALLVALUE DUP1 ISZERO PUSH2 0x3E1 JUMPI PUSH1 0x0 DUP1 REVERT JUMPDEST POP PUSH2 0x1F7 PUSH2 0x3F0 CALLDATASIZE PUSH1 0x4 PUSH2 0x1FD5 JUMP JUMPDEST PUSH2 0xE98 JUMP JUMPDEST CALLVALUE DUP1 ISZERO PUSH2 0x401 JUMPI PUSH1 0x0 DUP1 REVERT JUMPDEST POP PUSH2 0x25B PUSH2 0x410 CALLDATASIZE PUSH1 0x4 PUSH2 0x2195 JUMP JUMPDEST PUSH2 0xEB3 JUMP JUMPDEST CALLVALUE DUP1 ISZERO PUSH2 0x421 JUMPI PUSH1 0x0 DUP1 REVERT JUMPDEST POP PUSH2 0x435 PUSH2 0x430 CALLDATASIZE PUSH1 0x4 PUSH2 0x2195 JUMP JUMPDEST PUSH2 0xF46 JUMP JUMPDEST PUSH1 0x40 DUP1 MLOAD SWAP3 DUP4 MSTORE PUSH1 0x20 DUP4 ADD SWAP2 SWAP1 SWAP2 MSTORE ADD PUSH2 0x225 JUMP JUMPDEST CALLVALUE DUP1 ISZERO PUSH2 0x456 JUMPI PUSH1 0x0 DUP1 REVERT JUMPDEST POP PUSH2 0x1F7 PUSH2 0x465 CALLDATASIZE PUSH1 0x4 PUSH2 0x20F7 JUMP JUMPDEST PUSH2 0xF90 JUMP JUMPDEST CALLVALUE DUP1 ISZERO PUSH2 0x476 JUMPI PUSH1 0x0 DUP1 REVERT JUMPDEST POP PUSH2 0x2DE PUSH2 0x485 CALLDATASIZE PUSH1 0x4 PUSH2 0x2195 JUMP JUMPDEST PUSH2 0xFE9 JUMP JUMPDEST CALLVALUE DUP1 ISZERO PUSH2 0x496 JUMPI PUSH1 0x0 DUP1 REVERT JUMPDEST POP PUSH2 0x25B PUSH2 0x4A5 CALLDATASIZE PUSH1 0x4 PUSH2 0x1F78 JUMP JUMPDEST PUSH2 0x1060 JUMP JUMPDEST CALLVALUE DUP1 ISZERO PUSH2 0x4B6 JUMPI PUSH1 0x0 DUP1 REVERT JUMPDEST POP PUSH2 0x25B PUSH1 0x11 SLOAD DUP2 JUMP JUMPDEST PUSH2 0x1F7 PUSH2 0x10E7 JUMP JUMPDEST CALLVALUE DUP1 ISZERO PUSH2 0x4D4 JUMPI PUSH1 0x0 DUP1 REVERT JUMPDEST POP PUSH2 0x25B PUSH1 0xD SLOAD DUP2 JUMP JUMPDEST CALLVALUE DUP1 ISZERO PUSH2 0x4EA JUMPI PUSH1 0x0 DUP1 REVERT JUMPDEST POP PUSH2 0x2B1 PUSH2 0x1216 JUMP JUMPDEST CALLVALUE DUP1 ISZERO PUSH2 0x4FF JUMPI PUSH1 0x0 DUP1 REVERT JUMPDEST POP PUSH2 0x1F7 PUSH2 0x50E CALLDATASIZE PUSH1 0x4 PUSH2 0x2096 JUMP JUMPDEST PUSH2 0x1225 JUMP JUMPDEST CALLVALUE DUP1 ISZERO PUSH2 0x51F JUMPI PUSH1 0x0 DUP1 REVERT JUMPDEST POP PUSH2 0x25B PUSH1 0xC SLOAD DUP2 JUMP JUMPDEST CALLVALUE DUP1 ISZERO PUSH2 0x535 JUMPI PUSH1 0x0 DUP1 REVERT JUMPDEST POP PUSH2 0x1F7 PUSH2 0x544 CALLDATASIZE PUSH1 0x4 PUSH2 0x2016 JUMP JUMPDEST PUSH2 0x12EA JUMP JUMPDEST CALLVALUE DUP1 ISZERO PUSH2 0x555 JUMPI PUSH1 0x0 DUP1 REVERT JUMPDEST POP PUSH2 0x25B PUSH1 0x12 SLOAD DUP2 JUMP JUMPDEST CALLVALUE DUP1 ISZERO PUSH2 0x56B JUMPI PUSH1 0x0 DUP1 REVERT JUMPDEST POP PUSH1 0x10 SLOAD PUSH2 0x219 SWAP1 PUSH1 0xFF AND DUP2 JUMP JUMPDEST CALLVALUE DUP1 ISZERO PUSH2 0x585 JUMPI PUSH1 0x0 DUP1 REVERT JUMPDEST POP PUSH2 0x2B1 PUSH2 0x131C JUMP JUMPDEST CALLVALUE DUP1 ISZERO PUSH2 0x59A JUMPI PUSH1 0x0 DUP1 REVERT JUMPDEST POP PUSH2 0x2B1 PUSH2 0x5A9 CALLDATASIZE PUSH1 0x4 PUSH2 0x2195 JUMP JUMPDEST PUSH2 0x13AA JUMP JUMPDEST CALLVALUE DUP1 ISZERO PUSH2 0x5BA JUMPI PUSH1 0x0 DUP1 REVERT JUMPDEST POP PUSH2 0x25B PUSH1 0x13 SLOAD DUP2 JUMP JUMPDEST CALLVALUE DUP1 ISZERO PUSH2 0x5D0 JUMPI PUSH1 0x0 DUP1 REVERT JUMPDEST POP PUSH2 0x25B PUSH1 0xB SLOAD DUP2 JUMP JUMPDEST CALLVALUE DUP1 ISZERO PUSH2 0x5E6 JUMPI PUSH1 0x0 DUP1 REVERT JUMPDEST POP PUSH2 0x219 PUSH2 0x5F5 CALLDATASIZE PUSH1 0x4 PUSH2 0x1F9C JUMP JUMPDEST PUSH1 0x1 PUSH1 0x1 PUSH1 0xA0 SHL SUB SWAP2 DUP3 AND PUSH1 0x0 SWAP1 DUP2 MSTORE PUSH1 0x5 PUSH1 0x20 SWAP1 DUP2 MSTORE PUSH1 0x40 DUP1 DUP4 KECCAK256 SWAP4 SWAP1 SWAP5 AND DUP3 MSTORE SWAP2 SWAP1 SWAP2 MSTORE KECCAK256 SLOAD PUSH1 0xFF AND SWAP1 JUMP JUMPDEST CALLVALUE DUP1 ISZERO PUSH2 0x62F JUMPI PUSH1 0x0 DUP1 REVERT JUMPDEST POP PUSH2 0x25B PUSH2 0x63E CALLDATASIZE PUSH1 0x4 PUSH2 0x1F78 JUMP JUMPDEST PUSH1 0xE PUSH1 0x20 MSTORE PUSH1 0x0 SWAP1 DUP2 MSTORE PUSH1 0x40 SWAP1 KECCAK256 SLOAD DUP2 JUMP JUMPDEST PUSH1 0x0 PUSH1 0x1 PUSH1 0x1 PUSH1 0xE0 SHL SUB NOT DUP3 AND PUSH4 0x780E9D63 PUSH1 0xE0 SHL EQ DUP1 PUSH2 0x675 JUMPI POP PUSH2 0x675 DUP3 PUSH2 0x14BB JUMP JUMPDEST SWAP3 SWAP2 POP POP JUMP JUMPDEST PUSH1 0x10 SLOAD DUP2 SWAP1 PUSH1 0xFF AND ISZERO ISZERO PUSH1 0x1 EQ PUSH2 0x6CF JUMPI PUSH1 0x40 MLOAD PUSH3 0x461BCD PUSH1 0xE5 SHL DUP2 MSTORE PUSH1 0x20 PUSH1 0x4 DUP3 ADD MSTORE PUSH1 0x13 PUSH1 0x24 DUP3 ADD MSTORE PUSH19 0x26B4B73A34B733903832B934B7B21037BB32B9 PUSH1 0x69 SHL PUSH1 0x44 DUP3 ADD MSTORE PUSH1 0x64 ADD JUMPDEST PUSH1 0x40 MLOAD DUP1 SWAP2 SUB SWAP1 REVERT JUMPDEST PUSH1 0x11 SLOAD DUP2 PUSH2 0x6DC PUSH1 0x8 SLOAD SWAP1 JUMP JUMPDEST PUSH2 0x6E6 SWAP2 SWAP1 PUSH2 0x2312 JUMP JUMPDEST GT ISZERO PUSH2 0x72C JUMPI PUSH1 0x40 MLOAD PUSH3 0x461BCD PUSH1 0xE5 SHL DUP2 MSTORE PUSH1 0x20 PUSH1 0x4 DUP3 ADD MSTORE PUSH1 0x15 PUSH1 0x24 DUP3 ADD MSTORE PUSH21 0x496E73756666696369656E74205175616E74697479 PUSH1 0x58 SHL PUSH1 0x44 DUP3 ADD MSTORE PUSH1 0x64 ADD PUSH2 0x6C6 JUMP JUMPDEST PUSH1 0x0 DUP1 PUSH2 0x738 DUP5 PUSH2 0xF46 JUMP JUMPDEST SWAP2 POP SWAP2 POP DUP2 CALLVALUE LT ISZERO PUSH2 0x77A JUMPI PUSH1 0x40 MLOAD PUSH3 0x461BCD PUSH1 0xE5 SHL DUP2 MSTORE PUSH1 0x20 PUSH1 0x4 DUP3 ADD MSTORE PUSH1 0xB PUSH1 0x24 DUP3 ADD MSTORE PUSH11 0x155B99195C9C1C9A58D959 PUSH1 0xAA SHL PUSH1 0x44 DUP3 ADD MSTORE PUSH1 0x64 ADD PUSH2 0x6C6 JUMP JUMPDEST PUSH1 0x0 JUMPDEST DUP5 DUP2 LT ISZERO PUSH2 0x79F JUMPI PUSH2 0x78D PUSH2 0x150B JUMP JUMPDEST DUP1 PUSH2 0x797 DUP2 PUSH2 0x23BD JUMP JUMPDEST SWAP2 POP POP PUSH2 0x77D JUMP JUMPDEST POP CALLER PUSH1 0x0 SWAP1 DUP2 MSTORE PUSH1 0xE PUSH1 0x20 MSTORE PUSH1 0x40 DUP2 KECCAK256 DUP1 SLOAD DUP7 SWAP3 SWAP1 PUSH2 0x7BF SWAP1 DUP5 SWAP1 PUSH2 0x2312 JUMP JUMPDEST SWAP1 SWAP2 SSTORE POP POP PUSH1 0xD DUP2 SWAP1 SSTORE PUSH2 0x7D3 CALLER CALLVALUE PUSH2 0x1533 JUMP JUMPDEST POP POP POP POP JUMP JUMPDEST PUSH1 0xA SLOAD PUSH1 0x1 PUSH1 0x1 PUSH1 0xA0 SHL SUB AND CALLER EQ PUSH2 0x803 JUMPI PUSH1 0x40 MLOAD PUSH3 0x461BCD PUSH1 0xE5 SHL DUP2 MSTORE PUSH1 0x4 ADD PUSH2 0x6C6 SWAP1 PUSH2 0x229D JUMP JUMPDEST DUP1 MLOAD PUSH2 0x816 SWAP1 PUSH1 0x14 SWAP1 PUSH1 0x20 DUP5 ADD SWAP1 PUSH2 0x1E54 JUMP JUMPDEST POP POP JUMP JUMPDEST PUSH1 0x60 PUSH1 0x0 DUP1 SLOAD PUSH2 0x829 SWAP1 PUSH2 0x2382 JUMP JUMPDEST DUP1 PUSH1 0x1F ADD PUSH1 0x20 DUP1 SWAP2 DIV MUL PUSH1 0x20 ADD PUSH1 0x40 MLOAD SWAP1 DUP2 ADD PUSH1 0x40 MSTORE DUP1 SWAP3 SWAP2 SWAP1 DUP2 DUP2 MSTORE PUSH1 0x20 ADD DUP3 DUP1 SLOAD PUSH2 0x855 SWAP1 PUSH2 0x2382 JUMP JUMPDEST DUP1 ISZERO PUSH2 0x8A2 JUMPI DUP1 PUSH1 0x1F LT PUSH2 0x877 JUMPI PUSH2 0x100 DUP1 DUP4 SLOAD DIV MUL DUP4 MSTORE SWAP2 PUSH1 0x20 ADD SWAP2 PUSH2 0x8A2 JUMP JUMPDEST DUP3 ADD SWAP2 SWAP1 PUSH1 0x0 MSTORE PUSH1 0x20 PUSH1 0x0 KECCAK256 SWAP1 JUMPDEST DUP2 SLOAD DUP2 MSTORE SWAP1 PUSH1 0x1 ADD SWAP1 PUSH1 0x20 ADD DUP1 DUP4 GT PUSH2 0x885 JUMPI DUP3 SWAP1 SUB PUSH1 0x1F AND DUP3 ADD SWAP2 JUMPDEST POP POP POP POP POP SWAP1 POP SWAP1 JUMP JUMPDEST PUSH1 0x0 DUP2 DUP2 MSTORE PUSH1 0x2 PUSH1 0x20 MSTORE PUSH1 0x40 DUP2 KECCAK256 SLOAD PUSH1 0x1 PUSH1 0x1 PUSH1 0xA0 SHL SUB AND PUSH2 0x925 JUMPI PUSH1 0x40 MLOAD PUSH3 0x461BCD PUSH1 0xE5 SHL DUP2 MSTORE PUSH1 0x20 PUSH1 0x4 DUP3 ADD MSTORE PUSH1 0x2C PUSH1 0x24 DUP3 ADD MSTORE PUSH32 0x4552433732313A20617070726F76656420717565727920666F72206E6F6E6578 PUSH1 0x44 DUP3 ADD MSTORE PUSH12 0x34B9BA32B73A103A37B5B2B7 PUSH1 0xA1 SHL PUSH1 0x64 DUP3 ADD MSTORE PUSH1 0x84 ADD PUSH2 0x6C6 JUMP JUMPDEST POP PUSH1 0x0 SWAP1 DUP2 MSTORE PUSH1 0x4 PUSH1 0x20 MSTORE PUSH1 0x40 SWAP1 KECCAK256 SLOAD PUSH1 0x1 PUSH1 0x1 PUSH1 0xA0 SHL SUB AND SWAP1 JUMP JUMPDEST PUSH1 0x0 PUSH2 0x94C DUP3 PUSH2 0xFE9 JUMP JUMPDEST SWAP1 POP DUP1 PUSH1 0x1 PUSH1 0x1 PUSH1 0xA0 SHL SUB AND DUP4 PUSH1 0x1 PUSH1 0x1 PUSH1 0xA0 SHL SUB AND EQ ISZERO PUSH2 0x9BA JUMPI PUSH1 0x40 MLOAD PUSH3 0x461BCD PUSH1 0xE5 SHL DUP2 MSTORE PUSH1 0x20 PUSH1 0x4 DUP3 ADD MSTORE PUSH1 0x21 PUSH1 0x24 DUP3 ADD MSTORE PUSH32 0x4552433732313A20617070726F76616C20746F2063757272656E74206F776E65 PUSH1 0x44 DUP3 ADD MSTORE PUSH1 0x39 PUSH1 0xF9 SHL PUSH1 0x64 DUP3 ADD MSTORE PUSH1 0x84 ADD PUSH2 0x6C6 JUMP JUMPDEST CALLER PUSH1 0x1 PUSH1 0x1 PUSH1 0xA0 SHL SUB DUP3 AND EQ DUP1 PUSH2 0x9D6 JUMPI POP PUSH2 0x9D6 DUP2 CALLER PUSH2 0x5F5 JUMP JUMPDEST PUSH2 0xA48 JUMPI PUSH1 0x40 MLOAD PUSH3 0x461BCD PUSH1 0xE5 SHL DUP2 MSTORE PUSH1 0x20 PUSH1 0x4 DUP3 ADD MSTORE PUSH1 0x38 PUSH1 0x24 DUP3 ADD MSTORE PUSH32 0x4552433732313A20617070726F76652063616C6C6572206973206E6F74206F77 PUSH1 0x44 DUP3 ADD MSTORE PUSH32 0x6E6572206E6F7220617070726F76656420666F7220616C6C0000000000000000 PUSH1 0x64 DUP3 ADD MSTORE PUSH1 0x84 ADD PUSH2 0x6C6 JUMP JUMPDEST PUSH2 0xA52 DUP4 DUP4 PUSH2 0x157A JUMP JUMPDEST POP POP POP JUMP JUMPDEST PUSH1 0xA SLOAD PUSH1 0x1 PUSH1 0x1 PUSH1 0xA0 SHL SUB AND CALLER EQ PUSH2 0xA81 JUMPI PUSH1 0x40 MLOAD PUSH3 0x461BCD PUSH1 0xE5 SHL DUP2 MSTORE PUSH1 0x4 ADD PUSH2 0x6C6 SWAP1 PUSH2 0x229D JUMP JUMPDEST PUSH1 0xA DUP1 SLOAD PUSH1 0x1 PUSH1 0x1 PUSH1 0xA0 SHL SUB NOT AND PUSH1 0x1 PUSH1 0x1 PUSH1 0xA0 SHL SUB SWAP3 SWAP1 SWAP3 AND SWAP2 SWAP1 SWAP2 OR SWAP1 SSTORE JUMP JUMPDEST PUSH1 0x10 SLOAD PUSH1 0xFF AND ISZERO PUSH2 0xAE5 JUMPI PUSH1 0x40 MLOAD PUSH3 0x461BCD PUSH1 0xE5 SHL DUP2 MSTORE PUSH1 0x20 PUSH1 0x4 DUP3 ADD MSTORE PUSH1 0xC PUSH1 0x24 DUP3 ADD MSTORE PUSH12 0x53616C65206F6E676F696E67 PUSH1 0xA0 SHL PUSH1 0x44 DUP3 ADD MSTORE PUSH1 0x64 ADD PUSH2 0x6C6 JUMP JUMPDEST PUSH1 0x12 SLOAD TIMESTAMP LT ISZERO PUSH2 0xB2C JUMPI PUSH1 0x40 MLOAD PUSH3 0x461BCD PUSH1 0xE5 SHL DUP2 MSTORE PUSH1 0x20 PUSH1 0x4 DUP3 ADD MSTORE PUSH1 0x12 PUSH1 0x24 DUP3 ADD MSTORE PUSH18 0x41646D696E2063616E6E6F7420636C61696D PUSH1 0x70 SHL PUSH1 0x44 DUP3 ADD MSTORE PUSH1 0x64 ADD PUSH2 0x6C6 JUMP JUMPDEST PUSH1 0xA SLOAD PUSH1 0x40 MLOAD PUSH1 0x1 PUSH1 0x1 PUSH1 0xA0 SHL SUB SWAP1 SWAP2 AND SWAP1 SELFBALANCE DUP1 ISZERO PUSH2 0x8FC MUL SWAP2 PUSH1 0x0 DUP2 DUP2 DUP2 DUP6 DUP9 DUP9 CALL SWAP4 POP POP POP POP ISZERO DUP1 ISZERO PUSH2 0xB65 JUMPI RETURNDATASIZE PUSH1 0x0 DUP1 RETURNDATACOPY RETURNDATASIZE PUSH1 0x0 REVERT JUMPDEST POP JUMP JUMPDEST PUSH2 0xB72 CALLER DUP3 PUSH2 0x15E8 JUMP JUMPDEST PUSH2 0xB8E JUMPI PUSH1 0x40 MLOAD PUSH3 0x461BCD PUSH1 0xE5 SHL DUP2 MSTORE PUSH1 0x4 ADD PUSH2 0x6C6 SWAP1 PUSH2 0x22C1 JUMP JUMPDEST PUSH2 0xA52 DUP4 DUP4 DUP4 PUSH2 0x16DF JUMP JUMPDEST PUSH1 0x0 PUSH1 0xC SLOAD DUP3 PUSH2 0x675 SWAP2 SWAP1 PUSH2 0x2312 JUMP JUMPDEST PUSH1 0x0 PUSH2 0xBB4 DUP4 PUSH2 0x1060 JUMP JUMPDEST DUP3 LT PUSH2 0xC16 JUMPI PUSH1 0x40 MLOAD PUSH3 0x461BCD PUSH1 0xE5 SHL DUP2 MSTORE PUSH1 0x20 PUSH1 0x4 DUP3 ADD MSTORE PUSH1 0x2B PUSH1 0x24 DUP3 ADD MSTORE PUSH32 0x455243373231456E756D657261626C653A206F776E657220696E646578206F75 PUSH1 0x44 DUP3 ADD MSTORE PUSH11 0x74206F6620626F756E6473 PUSH1 0xA8 SHL PUSH1 0x64 DUP3 ADD MSTORE PUSH1 0x84 ADD PUSH2 0x6C6 JUMP JUMPDEST POP PUSH1 0x1 PUSH1 0x1 PUSH1 0xA0 SHL SUB SWAP2 SWAP1 SWAP2 AND PUSH1 0x0 SWAP1 DUP2 MSTORE PUSH1 0x6 PUSH1 0x20 SWAP1 DUP2 MSTORE PUSH1 0x40 DUP1 DUP4 KECCAK256 SWAP4 DUP4 MSTORE SWAP3 SWAP1 MSTORE KECCAK256 SLOAD SWAP1 JUMP JUMPDEST PUSH1 0x10 SLOAD PUSH1 0xFF AND ISZERO PUSH2 0xC81 JUMPI PUSH1 0x40 MLOAD PUSH3 0x461BCD PUSH1 0xE5 SHL DUP2 MSTORE PUSH1 0x20 PUSH1 0x4 DUP3 ADD MSTORE PUSH1 0xC PUSH1 0x24 DUP3 ADD MSTORE PUSH12 0x53616C65206F6E676F696E67 PUSH1 0xA0 SHL PUSH1 0x44 DUP3 ADD MSTORE PUSH1 0x64 ADD PUSH2 0x6C6 JUMP JUMPDEST PUSH1 0x12 SLOAD TIMESTAMP LT PUSH2 0xCCA JUMPI PUSH1 0x40 MLOAD PUSH3 0x461BCD PUSH1 0xE5 SHL DUP2 MSTORE PUSH1 0x20 PUSH1 0x4 DUP3 ADD MSTORE PUSH1 0x15 PUSH1 0x24 DUP3 ADD MSTORE PUSH21 0x15DA5D1A191C985DC814195C9A5BD908115B991959 PUSH1 0x5A SHL PUSH1 0x44 DUP3 ADD MSTORE PUSH1 0x64 ADD PUSH2 0x6C6 JUMP JUMPDEST CALLER PUSH1 0x0 DUP2 DUP2 MSTORE PUSH1 0xE PUSH1 0x20 MSTORE PUSH1 0x40 SWAP1 KECCAK256 SLOAD SWAP1 PUSH2 0xCE4 SWAP1 PUSH2 0x1060 JUMP JUMPDEST LT ISZERO PUSH2 0xD27 JUMPI PUSH1 0x40 MLOAD PUSH3 0x461BCD PUSH1 0xE5 SHL DUP2 MSTORE PUSH1 0x20 PUSH1 0x4 DUP3 ADD MSTORE PUSH1 0x12 PUSH1 0x24 DUP3 ADD MSTORE PUSH18 0x135D5CDD081A185D99481BDC9A59DA5B985B PUSH1 0x72 SHL PUSH1 0x44 DUP3 ADD MSTORE PUSH1 0x64 ADD PUSH2 0x6C6 JUMP JUMPDEST CALLER PUSH1 0x0 SWAP1 DUP2 MSTORE PUSH1 0xF PUSH1 0x20 MSTORE PUSH1 0x40 SWAP1 KECCAK256 SLOAD PUSH2 0xD7C JUMPI PUSH1 0x40 MLOAD PUSH3 0x461BCD PUSH1 0xE5 SHL DUP2 MSTORE PUSH1 0x20 PUSH1 0x4 DUP3 ADD MSTORE PUSH1 0x16 PUSH1 0x24 DUP3 ADD MSTORE PUSH22 0x4E6F2062616C616E636520746F207769746864726177 PUSH1 0x50 SHL PUSH1 0x44 DUP3 ADD MSTORE PUSH1 0x64 ADD PUSH2 0x6C6 JUMP JUMPDEST CALLER PUSH1 0x0 SWAP1 DUP2 MSTORE PUSH1 0xE PUSH1 0x20 MSTORE PUSH1 0x40 DUP2 KECCAK256 SLOAD SWAP1 DUP2 PUSH8 0xFFFFFFFFFFFFFFFF DUP2 GT ISZERO PUSH2 0xDA6 JUMPI PUSH2 0xDA6 PUSH2 0x241A JUMP JUMPDEST PUSH1 0x40 MLOAD SWAP1 DUP1 DUP3 MSTORE DUP1 PUSH1 0x20 MUL PUSH1 0x20 ADD DUP3 ADD PUSH1 0x40 MSTORE DUP1 ISZERO PUSH2 0xDCF JUMPI DUP2 PUSH1 0x20 ADD PUSH1 0x20 DUP3 MUL DUP1 CALLDATASIZE DUP4 CALLDATACOPY ADD SWAP1 POP JUMPDEST POP SWAP1 POP PUSH1 0x0 JUMPDEST DUP3 DUP2 LT ISZERO PUSH2 0xE16 JUMPI PUSH2 0xDE7 CALLER DUP3 PUSH2 0xBA9 JUMP JUMPDEST DUP3 DUP3 DUP2 MLOAD DUP2 LT PUSH2 0xDF9 JUMPI PUSH2 0xDF9 PUSH2 0x2404 JUMP JUMPDEST PUSH1 0x20 SWAP1 DUP2 MUL SWAP2 SWAP1 SWAP2 ADD ADD MSTORE DUP1 PUSH2 0xE0E DUP2 PUSH2 0x23BD JUMP JUMPDEST SWAP2 POP POP PUSH2 0xDD5 JUMP JUMPDEST POP PUSH1 0x0 JUMPDEST DUP3 DUP2 LT ISZERO PUSH2 0xE56 JUMPI PUSH2 0xE44 DUP3 DUP3 DUP2 MLOAD DUP2 LT PUSH2 0xE37 JUMPI PUSH2 0xE37 PUSH2 0x2404 JUMP JUMPDEST PUSH1 0x20 MUL PUSH1 0x20 ADD ADD MLOAD PUSH2 0x188A JUMP JUMPDEST DUP1 PUSH2 0xE4E DUP2 PUSH2 0x23BD JUMP JUMPDEST SWAP2 POP POP PUSH2 0xE1A JUMP JUMPDEST POP CALLER PUSH1 0x0 DUP2 DUP2 MSTORE PUSH1 0xF PUSH1 0x20 MSTORE PUSH1 0x40 DUP1 DUP3 KECCAK256 DUP1 SLOAD SWAP1 DUP4 SWAP1 SSTORE SWAP1 MLOAD SWAP1 SWAP3 SWAP2 DUP4 ISZERO PUSH2 0x8FC MUL SWAP2 DUP5 SWAP2 DUP2 DUP2 DUP2 DUP6 DUP9 DUP9 CALL SWAP4 POP POP POP POP ISZERO DUP1 ISZERO PUSH2 0x7D3 JUMPI RETURNDATASIZE PUSH1 0x0 DUP1 RETURNDATACOPY RETURNDATASIZE PUSH1 0x0 REVERT JUMPDEST PUSH2 0xA52 DUP4 DUP4 DUP4 PUSH1 0x40 MLOAD DUP1 PUSH1 0x20 ADD PUSH1 0x40 MSTORE DUP1 PUSH1 0x0 DUP2 MSTORE POP PUSH2 0x12EA JUMP JUMPDEST PUSH1 0x0 PUSH2 0xEBE PUSH1 0x8 SLOAD SWAP1 JUMP JUMPDEST DUP3 LT PUSH2 0xF21 JUMPI PUSH1 0x40 MLOAD PUSH3 0x461BCD PUSH1 0xE5 SHL DUP2 MSTORE PUSH1 0x20 PUSH1 0x4 DUP3 ADD MSTORE PUSH1 0x2C PUSH1 0x24 DUP3 ADD MSTORE PUSH32 0x455243373231456E756D657261626C653A20676C6F62616C20696E646578206F PUSH1 0x44 DUP3 ADD MSTORE PUSH12 0x7574206F6620626F756E6473 PUSH1 0xA0 SHL PUSH1 0x64 DUP3 ADD MSTORE PUSH1 0x84 ADD PUSH2 0x6C6 JUMP JUMPDEST PUSH1 0x8 DUP3 DUP2 SLOAD DUP2 LT PUSH2 0xF34 JUMPI PUSH2 0xF34 PUSH2 0x2404 JUMP JUMPDEST SWAP1 PUSH1 0x0 MSTORE PUSH1 0x20 PUSH1 0x0 KECCAK256 ADD SLOAD SWAP1 POP SWAP2 SWAP1 POP JUMP JUMPDEST PUSH1 0x0 DUP1 PUSH1 0x0 DUP1 PUSH1 0xD SLOAD SWAP1 POP PUSH1 0x0 JUMPDEST DUP6 DUP2 LT ISZERO PUSH2 0xF85 JUMPI PUSH2 0xF66 DUP3 DUP5 PUSH2 0x2312 JUMP JUMPDEST SWAP3 POP PUSH2 0xF71 DUP3 PUSH2 0xB99 JUMP JUMPDEST SWAP2 POP DUP1 PUSH2 0xF7D DUP2 PUSH2 0x23BD JUMP JUMPDEST SWAP2 POP POP PUSH2 0xF54 JUMP JUMPDEST POP SWAP1 SWAP5 SWAP1 SWAP4 POP SWAP2 POP POP JUMP JUMPDEST PUSH1 0xA SLOAD PUSH1 0x1 PUSH1 0x1 PUSH1 0xA0 SHL SUB AND CALLER EQ PUSH2 0xFBA JUMPI PUSH1 0x40 MLOAD PUSH3 0x461BCD PUSH1 0xE5 SHL DUP2 MSTORE PUSH1 0x4 ADD PUSH2 0x6C6 SWAP1 PUSH2 0x229D JUMP JUMPDEST PUSH1 0x10 DUP1 SLOAD PUSH1 0xFF NOT AND SWAP1 SSTORE DUP1 ISZERO ISZERO PUSH1 0x1 EQ ISZERO PUSH2 0xFD6 JUMPI TIMESTAMP PUSH1 0x12 SSTORE POP JUMP JUMPDEST PUSH1 0x13 SLOAD PUSH2 0xFE3 SWAP1 TIMESTAMP PUSH2 0x2312 JUMP JUMPDEST PUSH1 0x12 SSTORE POP JUMP JUMPDEST PUSH1 0x0 DUP2 DUP2 MSTORE PUSH1 0x2 PUSH1 0x20 MSTORE PUSH1 0x40 DUP2 KECCAK256 SLOAD PUSH1 0x1 PUSH1 0x1 PUSH1 0xA0 SHL SUB AND DUP1 PUSH2 0x675 JUMPI PUSH1 0x40 MLOAD PUSH3 0x461BCD PUSH1 0xE5 SHL DUP2 MSTORE PUSH1 0x20 PUSH1 0x4 DUP3 ADD MSTORE PUSH1 0x29 PUSH1 0x24 DUP3 ADD MSTORE PUSH32 0x4552433732313A206F776E657220717565727920666F72206E6F6E6578697374 PUSH1 0x44 DUP3 ADD MSTORE PUSH9 0x32B73A103A37B5B2B7 PUSH1 0xB9 SHL PUSH1 0x64 DUP3 ADD MSTORE PUSH1 0x84 ADD PUSH2 0x6C6 JUMP JUMPDEST PUSH1 0x0 PUSH1 0x1 PUSH1 0x1 PUSH1 0xA0 SHL SUB DUP3 AND PUSH2 0x10CB JUMPI PUSH1 0x40 MLOAD PUSH3 0x461BCD PUSH1 0xE5 SHL DUP2 MSTORE PUSH1 0x20 PUSH1 0x4 DUP3 ADD MSTORE PUSH1 0x2A PUSH1 0x24 DUP3 ADD MSTORE PUSH32 0x4552433732313A2062616C616E636520717565727920666F7220746865207A65 PUSH1 0x44 DUP3 ADD MSTORE PUSH10 0x726F2061646472657373 PUSH1 0xB0 SHL PUSH1 0x64 DUP3 ADD MSTORE PUSH1 0x84 ADD PUSH2 0x6C6 JUMP JUMPDEST POP PUSH1 0x1 PUSH1 0x1 PUSH1 0xA0 SHL SUB AND PUSH1 0x0 SWAP1 DUP2 MSTORE PUSH1 0x3 PUSH1 0x20 MSTORE PUSH1 0x40 SWAP1 KECCAK256 SLOAD SWAP1 JUMP JUMPDEST PUSH1 0x10 SLOAD PUSH1 0x1 SWAP1 PUSH1 0xFF AND ISZERO ISZERO DUP2 EQ PUSH2 0x1136 JUMPI PUSH1 0x40 MLOAD PUSH3 0x461BCD PUSH1 0xE5 SHL DUP2 MSTORE PUSH1 0x20 PUSH1 0x4 DUP3 ADD MSTORE PUSH1 0x13 PUSH1 0x24 DUP3 ADD MSTORE PUSH19 0x26B4B73A34B733903832B934B7B21037BB32B9 PUSH1 0x69 SHL PUSH1 0x44 DUP3 ADD MSTORE PUSH1 0x64 ADD PUSH2 0x6C6 JUMP JUMPDEST PUSH1 0x11 SLOAD DUP2 PUSH2 0x1143 PUSH1 0x8 SLOAD SWAP1 JUMP JUMPDEST PUSH2 0x114D SWAP2 SWAP1 PUSH2 0x2312 JUMP JUMPDEST GT ISZERO PUSH2 0x1193 JUMPI PUSH1 0x40 MLOAD PUSH3 0x461BCD PUSH1 0xE5 SHL DUP2 MSTORE PUSH1 0x20 PUSH1 0x4 DUP3 ADD MSTORE PUSH1 0x15 PUSH1 0x24 DUP3 ADD MSTORE PUSH21 0x496E73756666696369656E74205175616E74697479 PUSH1 0x58 SHL PUSH1 0x44 DUP3 ADD MSTORE PUSH1 0x64 ADD PUSH2 0x6C6 JUMP JUMPDEST PUSH1 0xD SLOAD CALLVALUE LT ISZERO PUSH2 0x11D3 JUMPI PUSH1 0x40 MLOAD PUSH3 0x461BCD PUSH1 0xE5 SHL DUP2 MSTORE PUSH1 0x20 PUSH1 0x4 DUP3 ADD MSTORE PUSH1 0xB PUSH1 0x24 DUP3 ADD MSTORE PUSH11 0x155B99195C9C1C9A58D959 PUSH1 0xAA SHL PUSH1 0x44 DUP3 ADD MSTORE PUSH1 0x64 ADD PUSH2 0x6C6 JUMP JUMPDEST PUSH2 0x11DB PUSH2 0x150B JUMP JUMPDEST PUSH2 0x11E6 PUSH1 0xD SLOAD PUSH2 0xB99 JUMP JUMPDEST PUSH1 0xD SSTORE PUSH2 0x11F3 CALLER CALLVALUE PUSH2 0x1533 JUMP JUMPDEST CALLER PUSH1 0x0 SWAP1 DUP2 MSTORE PUSH1 0xE PUSH1 0x20 MSTORE PUSH1 0x40 DUP2 KECCAK256 DUP1 SLOAD SWAP2 PUSH2 0x120E DUP4 PUSH2 0x23BD JUMP JUMPDEST SWAP2 SWAP1 POP SSTORE POP POP JUMP JUMPDEST PUSH1 0x60 PUSH1 0x1 DUP1 SLOAD PUSH2 0x829 SWAP1 PUSH2 0x2382 JUMP JUMPDEST PUSH1 0x1 PUSH1 0x1 PUSH1 0xA0 SHL SUB DUP3 AND CALLER EQ ISZERO PUSH2 0x127E JUMPI PUSH1 0x40 MLOAD PUSH3 0x461BCD PUSH1 0xE5 SHL DUP2 MSTORE PUSH1 0x20 PUSH1 0x4 DUP3 ADD MSTORE PUSH1 0x19 PUSH1 0x24 DUP3 ADD MSTORE PUSH32 0x4552433732313A20617070726F766520746F2063616C6C657200000000000000 PUSH1 0x44 DUP3 ADD MSTORE PUSH1 0x64 ADD PUSH2 0x6C6 JUMP JUMPDEST CALLER PUSH1 0x0 DUP2 DUP2 MSTORE PUSH1 0x5 PUSH1 0x20 SWAP1 DUP2 MSTORE PUSH1 0x40 DUP1 DUP4 KECCAK256 PUSH1 0x1 PUSH1 0x1 PUSH1 0xA0 SHL SUB DUP8 AND DUP1 DUP6 MSTORE SWAP1 DUP4 MSTORE SWAP3 DUP2 SWAP1 KECCAK256 DUP1 SLOAD PUSH1 0xFF NOT AND DUP7 ISZERO ISZERO SWAP1 DUP2 OR SWAP1 SWAP2 SSTORE SWAP1 MLOAD SWAP1 DUP2 MSTORE SWAP2 SWAP3 SWAP2 PUSH32 0x17307EAB39AB6107E8899845AD3D59BD9653F200F220920489CA2B5937696C31 SWAP2 ADD PUSH1 0x40 MLOAD DUP1 SWAP2 SUB SWAP1 LOG3 POP POP JUMP JUMPDEST PUSH2 0x12F4 CALLER DUP4 PUSH2 0x15E8 JUMP JUMPDEST PUSH2 0x1310 JUMPI PUSH1 0x40 MLOAD PUSH3 0x461BCD PUSH1 0xE5 SHL DUP2 MSTORE PUSH1 0x4 ADD PUSH2 0x6C6 SWAP1 PUSH2 0x22C1 JUMP JUMPDEST PUSH2 0x7D3 DUP5 DUP5 DUP5 DUP5 PUSH2 0x1931 JUMP JUMPDEST PUSH1 0x14 DUP1 SLOAD PUSH2 0x1329 SWAP1 PUSH2 0x2382 JUMP JUMPDEST DUP1 PUSH1 0x1F ADD PUSH1 0x20 DUP1 SWAP2 DIV MUL PUSH1 0x20 ADD PUSH1 0x40 MLOAD SWAP1 DUP2 ADD PUSH1 0x40 MSTORE DUP1 SWAP3 SWAP2 SWAP1 DUP2 DUP2 MSTORE PUSH1 0x20 ADD DUP3 DUP1 SLOAD PUSH2 0x1355 SWAP1 PUSH2 0x2382 JUMP JUMPDEST DUP1 ISZERO PUSH2 0x13A2 JUMPI DUP1 PUSH1 0x1F LT PUSH2 0x1377 JUMPI PUSH2 0x100 DUP1 DUP4 SLOAD DIV MUL DUP4 MSTORE SWAP2 PUSH1 0x20 ADD SWAP2 PUSH2 0x13A2 JUMP JUMPDEST DUP3 ADD SWAP2 SWAP1 PUSH1 0x0 MSTORE PUSH1 0x20 PUSH1 0x0 KECCAK256 SWAP1 JUMPDEST DUP2 SLOAD DUP2 MSTORE SWAP1 PUSH1 0x1 ADD SWAP1 PUSH1 0x20 ADD DUP1 DUP4 GT PUSH2 0x1385 JUMPI DUP3 SWAP1 SUB PUSH1 0x1F AND DUP3 ADD SWAP2 JUMPDEST POP POP POP POP POP DUP2 JUMP JUMPDEST PUSH1 0x0 DUP2 DUP2 MSTORE PUSH1 0x2 PUSH1 0x20 MSTORE PUSH1 0x40 SWAP1 KECCAK256 SLOAD PUSH1 0x60 SWAP1 PUSH1 0x1 PUSH1 0x1 PUSH1 0xA0 SHL SUB AND PUSH2 0x1429 JUMPI PUSH1 0x40 MLOAD PUSH3 0x461BCD PUSH1 0xE5 SHL DUP2 MSTORE PUSH1 0x20 PUSH1 0x4 DUP3 ADD MSTORE PUSH1 0x2F PUSH1 0x24 DUP3 ADD MSTORE PUSH32 0x4552433732314D657461646174613A2055524920717565727920666F72206E6F PUSH1 0x44 DUP3 ADD MSTORE PUSH15 0x3732BC34B9BA32B73A103A37B5B2B7 PUSH1 0x89 SHL PUSH1 0x64 DUP3 ADD MSTORE PUSH1 0x84 ADD PUSH2 0x6C6 JUMP JUMPDEST PUSH1 0x14 DUP1 SLOAD PUSH2 0x1436 SWAP1 PUSH2 0x2382 JUMP JUMPDEST DUP1 PUSH1 0x1F ADD PUSH1 0x20 DUP1 SWAP2 DIV MUL PUSH1 0x20 ADD PUSH1 0x40 MLOAD SWAP1 DUP2 ADD PUSH1 0x40 MSTORE DUP1 SWAP3 SWAP2 SWAP1 DUP2 DUP2 MSTORE PUSH1 0x20 ADD DUP3 DUP1 SLOAD PUSH2 0x1462 SWAP1 PUSH2 0x2382 JUMP JUMPDEST DUP1 ISZERO PUSH2 0x14AF JUMPI DUP1 PUSH1 0x1F LT PUSH2 0x1484 JUMPI PUSH2 0x100 DUP1 DUP4 SLOAD DIV MUL DUP4 MSTORE SWAP2 PUSH1 0x20 ADD SWAP2 PUSH2 0x14AF JUMP JUMPDEST DUP3 ADD SWAP2 SWAP1 PUSH1 0x0 MSTORE PUSH1 0x20 PUSH1 0x0 KECCAK256 SWAP1 JUMPDEST DUP2 SLOAD DUP2 MSTORE SWAP1 PUSH1 0x1 ADD SWAP1 PUSH1 0x20 ADD DUP1 DUP4 GT PUSH2 0x1492 JUMPI DUP3 SWAP1 SUB PUSH1 0x1F AND DUP3 ADD SWAP2 JUMPDEST POP POP POP POP POP SWAP1 POP SWAP2 SWAP1 POP JUMP JUMPDEST PUSH1 0x0 PUSH1 0x1 PUSH1 0x1 PUSH1 0xE0 SHL SUB NOT DUP3 AND PUSH4 0x80AC58CD PUSH1 0xE0 SHL EQ DUP1 PUSH2 0x14EC JUMPI POP PUSH1 0x1 PUSH1 0x1 PUSH1 0xE0 SHL SUB NOT DUP3 AND PUSH4 0x5B5E139F PUSH1 0xE0 SHL EQ JUMPDEST DUP1 PUSH2 0x675 JUMPI POP PUSH4 0x1FFC9A7 PUSH1 0xE0 SHL PUSH1 0x1 PUSH1 0x1 PUSH1 0xE0 SHL SUB NOT DUP4 AND EQ PUSH2 0x675 JUMP JUMPDEST PUSH1 0x1 PUSH1 0xB PUSH1 0x0 DUP3 DUP3 SLOAD PUSH2 0x151E SWAP2 SWAP1 PUSH2 0x2312 JUMP JUMPDEST SWAP3 POP POP DUP2 SWAP1 SSTORE POP PUSH2 0x1531 CALLER PUSH1 0xB SLOAD PUSH2 0x1964 JUMP JUMPDEST JUMP JUMPDEST PUSH1 0x0 PUSH1 0x64 PUSH2 0x1542 CALLVALUE PUSH1 0x5A PUSH2 0x234C JUMP JUMPDEST PUSH2 0x154C SWAP2 SWAP1 PUSH2 0x232A JUMP JUMPDEST CALLER PUSH1 0x0 SWAP1 DUP2 MSTORE PUSH1 0xF PUSH1 0x20 MSTORE PUSH1 0x40 DUP2 KECCAK256 DUP1 SLOAD SWAP3 SWAP4 POP DUP4 SWAP3 SWAP1 SWAP2 SWAP1 PUSH2 0x1570 SWAP1 DUP5 SWAP1 PUSH2 0x2312 JUMP JUMPDEST SWAP1 SWAP2 SSTORE POP POP POP POP POP JUMP JUMPDEST PUSH1 0x0 DUP2 DUP2 MSTORE PUSH1 0x4 PUSH1 0x20 MSTORE PUSH1 0x40 SWAP1 KECCAK256 DUP1 SLOAD PUSH1 0x1 PUSH1 0x1 PUSH1 0xA0 SHL SUB NOT AND PUSH1 0x1 PUSH1 0x1 PUSH1 0xA0 SHL SUB DUP5 AND SWAP1 DUP2 OR SWAP1 SWAP2 SSTORE DUP2 SWAP1 PUSH2 0x15AF DUP3 PUSH2 0xFE9 JUMP JUMPDEST PUSH1 0x1 PUSH1 0x1 PUSH1 0xA0 SHL SUB AND PUSH32 0x8C5BE1E5EBEC7D5BD14F71427D1E84F3DD0314C0F7B2291E5B200AC8C7C3B925 PUSH1 0x40 MLOAD PUSH1 0x40 MLOAD DUP1 SWAP2 SUB SWAP1 LOG4 POP POP JUMP JUMPDEST PUSH1 0x0 DUP2 DUP2 MSTORE PUSH1 0x2 PUSH1 0x20 MSTORE PUSH1 0x40 DUP2 KECCAK256 SLOAD PUSH1 0x1 PUSH1 0x1 PUSH1 0xA0 SHL SUB AND PUSH2 0x1661 JUMPI PUSH1 0x40 MLOAD PUSH3 0x461BCD PUSH1 0xE5 SHL DUP2 MSTORE PUSH1 0x20 PUSH1 0x4 DUP3 ADD MSTORE PUSH1 0x2C PUSH1 0x24 DUP3 ADD MSTORE PUSH32 0x4552433732313A206F70657261746F7220717565727920666F72206E6F6E6578 PUSH1 0x44 DUP3 ADD MSTORE PUSH12 0x34B9BA32B73A103A37B5B2B7 PUSH1 0xA1 SHL PUSH1 0x64 DUP3 ADD MSTORE PUSH1 0x84 ADD PUSH2 0x6C6 JUMP JUMPDEST PUSH1 0x0 PUSH2 0x166C DUP4 PUSH2 0xFE9 JUMP JUMPDEST SWAP1 POP DUP1 PUSH1 0x1 PUSH1 0x1 PUSH1 0xA0 SHL SUB AND DUP5 PUSH1 0x1 PUSH1 0x1 PUSH1 0xA0 SHL SUB AND EQ DUP1 PUSH2 0x16A7 JUMPI POP DUP4 PUSH1 0x1 PUSH1 0x1 PUSH1 0xA0 SHL SUB AND PUSH2 0x169C DUP5 PUSH2 0x8AC JUMP JUMPDEST PUSH1 0x1 PUSH1 0x1 PUSH1 0xA0 SHL SUB AND EQ JUMPDEST DUP1 PUSH2 0x16D7 JUMPI POP PUSH1 0x1 PUSH1 0x1 PUSH1 0xA0 SHL SUB DUP1 DUP3 AND PUSH1 0x0 SWAP1 DUP2 MSTORE PUSH1 0x5 PUSH1 0x20 SWAP1 DUP2 MSTORE PUSH1 0x40 DUP1 DUP4 KECCAK256 SWAP4 DUP9 AND DUP4 MSTORE SWAP3 SWAP1 MSTORE KECCAK256 SLOAD PUSH1 0xFF AND JUMPDEST SWAP5 SWAP4 POP POP POP POP JUMP JUMPDEST DUP3 PUSH1 0x1 PUSH1 0x1 PUSH1 0xA0 SHL SUB AND PUSH2 0x16F2 DUP3 PUSH2 0xFE9 JUMP JUMPDEST PUSH1 0x1 PUSH1 0x1 PUSH1 0xA0 SHL SUB AND EQ PUSH2 0x175A JUMPI PUSH1 0x40 MLOAD PUSH3 0x461BCD PUSH1 0xE5 SHL DUP2 MSTORE PUSH1 0x20 PUSH1 0x4 DUP3 ADD MSTORE PUSH1 0x29 PUSH1 0x24 DUP3 ADD MSTORE PUSH32 0x4552433732313A207472616E73666572206F6620746F6B656E20746861742069 PUSH1 0x44 DUP3 ADD MSTORE PUSH9 0x39903737BA1037BBB7 PUSH1 0xB9 SHL PUSH1 0x64 DUP3 ADD MSTORE PUSH1 0x84 ADD PUSH2 0x6C6 JUMP JUMPDEST PUSH1 0x1 PUSH1 0x1 PUSH1 0xA0 SHL SUB DUP3 AND PUSH2 0x17BC JUMPI PUSH1 0x40 MLOAD PUSH3 0x461BCD PUSH1 0xE5 SHL DUP2 MSTORE PUSH1 0x20 PUSH1 0x4 DUP3 ADD MSTORE PUSH1 0x24 DUP1 DUP3 ADD MSTORE PUSH32 0x4552433732313A207472616E7366657220746F20746865207A65726F20616464 PUSH1 0x44 DUP3 ADD MSTORE PUSH4 0x72657373 PUSH1 0xE0 SHL PUSH1 0x64 DUP3 ADD MSTORE PUSH1 0x84 ADD PUSH2 0x6C6 JUMP JUMPDEST PUSH2 0x17C7 DUP4 DUP4 DUP4 PUSH2 0x197E JUMP JUMPDEST PUSH2 0x17D2 PUSH1 0x0 DUP3 PUSH2 0x157A JUMP JUMPDEST PUSH1 0x1 PUSH1 0x1 PUSH1 0xA0 SHL SUB DUP4 AND PUSH1 0x0 SWAP1 DUP2 MSTORE PUSH1 0x3 PUSH1 0x20 MSTORE PUSH1 0x40 DUP2 KECCAK256 DUP1 SLOAD PUSH1 0x1 SWAP3 SWAP1 PUSH2 0x17FB SWAP1 DUP5 SWAP1 PUSH2 0x236B JUMP JUMPDEST SWAP1 SWAP2 SSTORE POP POP PUSH1 0x1 PUSH1 0x1 PUSH1 0xA0 SHL SUB DUP3 AND PUSH1 0x0 SWAP1 DUP2 MSTORE PUSH1 0x3 PUSH1 0x20 MSTORE PUSH1 0x40 DUP2 KECCAK256 DUP1 SLOAD PUSH1 0x1 SWAP3 SWAP1 PUSH2 0x1829 SWAP1 DUP5 SWAP1 PUSH2 0x2312 JUMP JUMPDEST SWAP1 SWAP2 SSTORE POP POP PUSH1 0x0 DUP2 DUP2 MSTORE PUSH1 0x2 PUSH1 0x20 MSTORE PUSH1 0x40 DUP1 DUP3 KECCAK256 DUP1 SLOAD PUSH1 0x1 PUSH1 0x1 PUSH1 0xA0 SHL SUB NOT AND PUSH1 0x1 PUSH1 0x1 PUSH1 0xA0 SHL SUB DUP7 DUP2 AND SWAP2 DUP3 OR SWAP1 SWAP3 SSTORE SWAP2 MLOAD DUP5 SWAP4 SWAP2 DUP8 AND SWAP2 PUSH32 0xDDF252AD1BE2C89B69C2B068FC378DAA952BA7F163C4A11628F55A4DF523B3EF SWAP2 LOG4 POP POP POP JUMP JUMPDEST PUSH1 0x0 PUSH2 0x1895 DUP3 PUSH2 0xFE9 JUMP JUMPDEST SWAP1 POP PUSH2 0x18A3 DUP2 PUSH1 0x0 DUP5 PUSH2 0x197E JUMP JUMPDEST PUSH2 0x18AE PUSH1 0x0 DUP4 PUSH2 0x157A JUMP JUMPDEST PUSH1 0x1 PUSH1 0x1 PUSH1 0xA0 SHL SUB DUP2 AND PUSH1 0x0 SWAP1 DUP2 MSTORE PUSH1 0x3 PUSH1 0x20 MSTORE PUSH1 0x40 DUP2 KECCAK256 DUP1 SLOAD PUSH1 0x1 SWAP3 SWAP1 PUSH2 0x18D7 SWAP1 DUP5 SWAP1 PUSH2 0x236B JUMP JUMPDEST SWAP1 SWAP2 SSTORE POP POP PUSH1 0x0 DUP3 DUP2 MSTORE PUSH1 0x2 PUSH1 0x20 MSTORE PUSH1 0x40 DUP1 DUP3 KECCAK256 DUP1 SLOAD PUSH1 0x1 PUSH1 0x1 PUSH1 0xA0 SHL SUB NOT AND SWAP1 SSTORE MLOAD DUP4 SWAP2 SWAP1 PUSH1 0x1 PUSH1 0x1 PUSH1 0xA0 SHL SUB DUP5 AND SWAP1 PUSH32 0xDDF252AD1BE2C89B69C2B068FC378DAA952BA7F163C4A11628F55A4DF523B3EF SWAP1 DUP4 SWAP1 LOG4 POP POP JUMP JUMPDEST PUSH2 0x193C DUP5 DUP5 DUP5 PUSH2 0x16DF JUMP JUMPDEST PUSH2 0x1948 DUP5 DUP5 DUP5 DUP5 PUSH2 0x1A36 JUMP JUMPDEST PUSH2 0x7D3 JUMPI PUSH1 0x40 MLOAD PUSH3 0x461BCD PUSH1 0xE5 SHL DUP2 MSTORE PUSH1 0x4 ADD PUSH2 0x6C6 SWAP1 PUSH2 0x224B JUMP JUMPDEST PUSH2 0x816 DUP3 DUP3 PUSH1 0x40 MLOAD DUP1 PUSH1 0x20 ADD PUSH1 0x40 MSTORE DUP1 PUSH1 0x0 DUP2 MSTORE POP PUSH2 0x1B43 JUMP JUMPDEST PUSH1 0x1 PUSH1 0x1 PUSH1 0xA0 SHL SUB DUP4 AND PUSH2 0x19D9 JUMPI PUSH2 0x19D4 DUP2 PUSH1 0x8 DUP1 SLOAD PUSH1 0x0 DUP4 DUP2 MSTORE PUSH1 0x9 PUSH1 0x20 MSTORE PUSH1 0x40 DUP2 KECCAK256 DUP3 SWAP1 SSTORE PUSH1 0x1 DUP3 ADD DUP4 SSTORE SWAP2 SWAP1 SWAP2 MSTORE PUSH32 0xF3F7A9FE364FAAB93B216DA50A3214154F22A0A2B415B23A84C8169E8B636EE3 ADD SSTORE JUMP JUMPDEST PUSH2 0x19FC JUMP JUMPDEST DUP2 PUSH1 0x1 PUSH1 0x1 PUSH1 0xA0 SHL SUB AND DUP4 PUSH1 0x1 PUSH1 0x1 PUSH1 0xA0 SHL SUB AND EQ PUSH2 0x19FC JUMPI PUSH2 0x19FC DUP4 DUP3 PUSH2 0x1B76 JUMP JUMPDEST PUSH1 0x1 PUSH1 0x1 PUSH1 0xA0 SHL SUB DUP3 AND PUSH2 0x1A13 JUMPI PUSH2 0xA52 DUP2 PUSH2 0x1C13 JUMP JUMPDEST DUP3 PUSH1 0x1 PUSH1 0x1 PUSH1 0xA0 SHL SUB AND DUP3 PUSH1 0x1 PUSH1 0x1 PUSH1 0xA0 SHL SUB AND EQ PUSH2 0xA52 JUMPI PUSH2 0xA52 DUP3 DUP3 PUSH2 0x1CC2 JUMP JUMPDEST PUSH1 0x0 PUSH1 0x1 PUSH1 0x1 PUSH1 0xA0 SHL SUB DUP5 AND EXTCODESIZE ISZERO PUSH2 0x1B38 JUMPI PUSH1 0x40 MLOAD PUSH4 0xA85BD01 PUSH1 0xE1 SHL DUP2 MSTORE PUSH1 0x1 PUSH1 0x1 PUSH1 0xA0 SHL SUB DUP6 AND SWAP1 PUSH4 0x150B7A02 SWAP1 PUSH2 0x1A7A SWAP1 CALLER SWAP1 DUP10 SWAP1 DUP9 SWAP1 DUP9 SWAP1 PUSH1 0x4 ADD PUSH2 0x21FB JUMP JUMPDEST PUSH1 0x20 PUSH1 0x40 MLOAD DUP1 DUP4 SUB DUP2 PUSH1 0x0 DUP8 DUP1 EXTCODESIZE ISZERO DUP1 ISZERO PUSH2 0x1A94 JUMPI PUSH1 0x0 DUP1 REVERT JUMPDEST POP GAS CALL SWAP3 POP POP POP DUP1 ISZERO PUSH2 0x1AC4 JUMPI POP PUSH1 0x40 DUP1 MLOAD PUSH1 0x1F RETURNDATASIZE SWAP1 DUP2 ADD PUSH1 0x1F NOT AND DUP3 ADD SWAP1 SWAP3 MSTORE PUSH2 0x1AC1 SWAP2 DUP2 ADD SWAP1 PUSH2 0x212F JUMP JUMPDEST PUSH1 0x1 JUMPDEST PUSH2 0x1B1E JUMPI RETURNDATASIZE DUP1 DUP1 ISZERO PUSH2 0x1AF2 JUMPI PUSH1 0x40 MLOAD SWAP2 POP PUSH1 0x1F NOT PUSH1 0x3F RETURNDATASIZE ADD AND DUP3 ADD PUSH1 0x40 MSTORE RETURNDATASIZE DUP3 MSTORE RETURNDATASIZE PUSH1 0x0 PUSH1 0x20 DUP5 ADD RETURNDATACOPY PUSH2 0x1AF7 JUMP JUMPDEST PUSH1 0x60 SWAP2 POP JUMPDEST POP DUP1 MLOAD PUSH2 0x1B16 JUMPI PUSH1 0x40 MLOAD PUSH3 0x461BCD PUSH1 0xE5 SHL DUP2 MSTORE PUSH1 0x4 ADD PUSH2 0x6C6 SWAP1 PUSH2 0x224B JUMP JUMPDEST DUP1 MLOAD DUP2 PUSH1 0x20 ADD REVERT JUMPDEST PUSH1 0x1 PUSH1 0x1 PUSH1 0xE0 SHL SUB NOT AND PUSH4 0xA85BD01 PUSH1 0xE1 SHL EQ SWAP1 POP PUSH2 0x16D7 JUMP JUMPDEST POP PUSH1 0x1 SWAP5 SWAP4 POP POP POP POP JUMP JUMPDEST PUSH2 0x1B4D DUP4 DUP4 PUSH2 0x1D06 JUMP JUMPDEST PUSH2 0x1B5A PUSH1 0x0 DUP5 DUP5 DUP5 PUSH2 0x1A36 JUMP JUMPDEST PUSH2 0xA52 JUMPI PUSH1 0x40 MLOAD PUSH3 0x461BCD PUSH1 0xE5 SHL DUP2 MSTORE PUSH1 0x4 ADD PUSH2 0x6C6 SWAP1 PUSH2 0x224B JUMP JUMPDEST PUSH1 0x0 PUSH1 0x1 PUSH2 0x1B83 DUP5 PUSH2 0x1060 JUMP JUMPDEST PUSH2 0x1B8D SWAP2 SWAP1 PUSH2 0x236B JUMP JUMPDEST PUSH1 0x0 DUP4 DUP2 MSTORE PUSH1 0x7 PUSH1 0x20 MSTORE PUSH1 0x40 SWAP1 KECCAK256 SLOAD SWAP1 SWAP2 POP DUP1 DUP3 EQ PUSH2 0x1BE0 JUMPI PUSH1 0x1 PUSH1 0x1 PUSH1 0xA0 SHL SUB DUP5 AND PUSH1 0x0 SWAP1 DUP2 MSTORE PUSH1 0x6 PUSH1 0x20 SWAP1 DUP2 MSTORE PUSH1 0x40 DUP1 DUP4 KECCAK256 DUP6 DUP5 MSTORE DUP3 MSTORE DUP1 DUP4 KECCAK256 SLOAD DUP5 DUP5 MSTORE DUP2 DUP5 KECCAK256 DUP2 SWAP1 SSTORE DUP4 MSTORE PUSH1 0x7 SWAP1 SWAP2 MSTORE SWAP1 KECCAK256 DUP2 SWAP1 SSTORE JUMPDEST POP PUSH1 0x0 SWAP2 DUP3 MSTORE PUSH1 0x7 PUSH1 0x20 SWAP1 DUP2 MSTORE PUSH1 0x40 DUP1 DUP5 KECCAK256 DUP5 SWAP1 SSTORE PUSH1 0x1 PUSH1 0x1 PUSH1 0xA0 SHL SUB SWAP1 SWAP5 AND DUP4 MSTORE PUSH1 0x6 DUP2 MSTORE DUP4 DUP4 KECCAK256 SWAP2 DUP4 MSTORE MSTORE SWAP1 DUP2 KECCAK256 SSTORE JUMP JUMPDEST PUSH1 0x8 SLOAD PUSH1 0x0 SWAP1 PUSH2 0x1C25 SWAP1 PUSH1 0x1 SWAP1 PUSH2 0x236B JUMP JUMPDEST PUSH1 0x0 DUP4 DUP2 MSTORE PUSH1 0x9 PUSH1 0x20 MSTORE PUSH1 0x40 DUP2 KECCAK256 SLOAD PUSH1 0x8 DUP1 SLOAD SWAP4 SWAP5 POP SWAP1 SWAP3 DUP5 SWAP1 DUP2 LT PUSH2 0x1C4D JUMPI PUSH2 0x1C4D PUSH2 0x2404 JUMP JUMPDEST SWAP1 PUSH1 0x0 MSTORE PUSH1 0x20 PUSH1 0x0 KECCAK256 ADD SLOAD SWAP1 POP DUP1 PUSH1 0x8 DUP4 DUP2 SLOAD DUP2 LT PUSH2 0x1C6E JUMPI PUSH2 0x1C6E PUSH2 0x2404 JUMP JUMPDEST PUSH1 0x0 SWAP2 DUP3 MSTORE PUSH1 0x20 DUP1 DUP4 KECCAK256 SWAP1 SWAP2 ADD SWAP3 SWAP1 SWAP3 SSTORE DUP3 DUP2 MSTORE PUSH1 0x9 SWAP1 SWAP2 MSTORE PUSH1 0x40 DUP1 DUP3 KECCAK256 DUP5 SWAP1 SSTORE DUP6 DUP3 MSTORE DUP2 KECCAK256 SSTORE PUSH1 0x8 DUP1 SLOAD DUP1 PUSH2 0x1CA6 JUMPI PUSH2 0x1CA6 PUSH2 0x23EE JUMP JUMPDEST PUSH1 0x1 SWAP1 SUB DUP2 DUP2 SWAP1 PUSH1 0x0 MSTORE PUSH1 0x20 PUSH1 0x0 KECCAK256 ADD PUSH1 0x0 SWAP1 SSTORE SWAP1 SSTORE POP POP POP POP JUMP JUMPDEST PUSH1 0x0 PUSH2 0x1CCD DUP4 PUSH2 0x1060 JUMP JUMPDEST PUSH1 0x1 PUSH1 0x1 PUSH1 0xA0 SHL SUB SWAP1 SWAP4 AND PUSH1 0x0 SWAP1 DUP2 MSTORE PUSH1 0x6 PUSH1 0x20 SWAP1 DUP2 MSTORE PUSH1 0x40 DUP1 DUP4 KECCAK256 DUP7 DUP5 MSTORE DUP3 MSTORE DUP1 DUP4 KECCAK256 DUP6 SWAP1 SSTORE SWAP4 DUP3 MSTORE PUSH1 0x7 SWAP1 MSTORE SWAP2 SWAP1 SWAP2 KECCAK256 SWAP2 SWAP1 SWAP2 SSTORE POP JUMP JUMPDEST PUSH1 0x1 PUSH1 0x1 PUSH1 0xA0 SHL SUB DUP3 AND PUSH2 0x1D5C JUMPI PUSH1 0x40 MLOAD PUSH3 0x461BCD PUSH1 0xE5 SHL DUP2 MSTORE PUSH1 0x20 PUSH1 0x4 DUP3 ADD DUP2 SWAP1 MSTORE PUSH1 0x24 DUP3 ADD MSTORE PUSH32 0x4552433732313A206D696E7420746F20746865207A65726F2061646472657373 PUSH1 0x44 DUP3 ADD MSTORE PUSH1 0x64 ADD PUSH2 0x6C6 JUMP JUMPDEST PUSH1 0x0 DUP2 DUP2 MSTORE PUSH1 0x2 PUSH1 0x20 MSTORE PUSH1 0x40 SWAP1 KECCAK256 SLOAD PUSH1 0x1 PUSH1 0x1 PUSH1 0xA0 SHL SUB AND ISZERO PUSH2 0x1DC1 JUMPI PUSH1 0x40 MLOAD PUSH3 0x461BCD PUSH1 0xE5 SHL DUP2 MSTORE PUSH1 0x20 PUSH1 0x4 DUP3 ADD MSTORE PUSH1 0x1C PUSH1 0x24 DUP3 ADD MSTORE PUSH32 0x4552433732313A20746F6B656E20616C7265616479206D696E74656400000000 PUSH1 0x44 DUP3 ADD MSTORE PUSH1 0x64 ADD PUSH2 0x6C6 JUMP JUMPDEST PUSH2 0x1DCD PUSH1 0x0 DUP4 DUP4 PUSH2 0x197E JUMP JUMPDEST PUSH1 0x1 PUSH1 0x1 PUSH1 0xA0 SHL SUB DUP3 AND PUSH1 0x0 SWAP1 DUP2 MSTORE PUSH1 0x3 PUSH1 0x20 MSTORE PUSH1 0x40 DUP2 KECCAK256 DUP1 SLOAD PUSH1 0x1 SWAP3 SWAP1 PUSH2 0x1DF6 SWAP1 DUP5 SWAP1 PUSH2 0x2312 JUMP JUMPDEST SWAP1 SWAP2 SSTORE POP POP PUSH1 0x0 DUP2 DUP2 MSTORE PUSH1 0x2 PUSH1 0x20 MSTORE PUSH1 0x40 DUP1 DUP3 KECCAK256 DUP1 SLOAD PUSH1 0x1 PUSH1 0x1 PUSH1 0xA0 SHL SUB NOT AND PUSH1 0x1 PUSH1 0x1 PUSH1 0xA0 SHL SUB DUP7 AND SWAP1 DUP2 OR SWAP1 SWAP2 SSTORE SWAP1 MLOAD DUP4 SWAP3 SWAP1 PUSH32 0xDDF252AD1BE2C89B69C2B068FC378DAA952BA7F163C4A11628F55A4DF523B3EF SWAP1 DUP3 SWAP1 LOG4 POP POP JUMP JUMPDEST DUP3 DUP1 SLOAD PUSH2 0x1E60 SWAP1 PUSH2 0x2382 JUMP JUMPDEST SWAP1 PUSH1 0x0 MSTORE PUSH1 0x20 PUSH1 0x0 KECCAK256 SWAP1 PUSH1 0x1F ADD PUSH1 0x20 SWAP1 DIV DUP2 ADD SWAP3 DUP3 PUSH2 0x1E82 JUMPI PUSH1 0x0 DUP6 SSTORE PUSH2 0x1EC8 JUMP JUMPDEST DUP3 PUSH1 0x1F LT PUSH2 0x1E9B JUMPI DUP1 MLOAD PUSH1 0xFF NOT AND DUP4 DUP1 ADD OR DUP6 SSTORE PUSH2 0x1EC8 JUMP JUMPDEST DUP3 DUP1 ADD PUSH1 0x1 ADD DUP6 SSTORE DUP3 ISZERO PUSH2 0x1EC8 JUMPI SWAP2 DUP3 ADD JUMPDEST DUP3 DUP2 GT ISZERO PUSH2 0x1EC8 JUMPI DUP3 MLOAD DUP3 SSTORE SWAP2 PUSH1 0x20 ADD SWAP2 SWAP1 PUSH1 0x1 ADD SWAP1 PUSH2 0x1EAD JUMP JUMPDEST POP PUSH2 0x1ED4 SWAP3 SWAP2 POP PUSH2 0x1ED8 JUMP JUMPDEST POP SWAP1 JUMP JUMPDEST JUMPDEST DUP1 DUP3 GT ISZERO PUSH2 0x1ED4 JUMPI PUSH1 0x0 DUP2 SSTORE PUSH1 0x1 ADD PUSH2 0x1ED9 JUMP JUMPDEST PUSH1 0x0 PUSH8 0xFFFFFFFFFFFFFFFF DUP1 DUP5 GT ISZERO PUSH2 0x1F08 JUMPI PUSH2 0x1F08 PUSH2 0x241A JUMP JUMPDEST PUSH1 0x40 MLOAD PUSH1 0x1F DUP6 ADD PUSH1 0x1F NOT SWAP1 DUP2 AND PUSH1 0x3F ADD AND DUP2 ADD SWAP1 DUP3 DUP3 GT DUP2 DUP4 LT OR ISZERO PUSH2 0x1F30 JUMPI PUSH2 0x1F30 PUSH2 0x241A JUMP JUMPDEST DUP2 PUSH1 0x40 MSTORE DUP1 SWAP4 POP DUP6 DUP2 MSTORE DUP7 DUP7 DUP7 ADD GT ISZERO PUSH2 0x1F49 JUMPI PUSH1 0x0 DUP1 REVERT JUMPDEST DUP6 DUP6 PUSH1 0x20 DUP4 ADD CALLDATACOPY PUSH1 0x0 PUSH1 0x20 DUP8 DUP4 ADD ADD MSTORE POP POP POP SWAP4 SWAP3 POP POP POP JUMP JUMPDEST DUP1 CALLDATALOAD DUP1 ISZERO ISZERO DUP2 EQ PUSH2 0x1F73 JUMPI PUSH1 0x0 DUP1 REVERT JUMPDEST SWAP2 SWAP1 POP JUMP JUMPDEST PUSH1 0x0 PUSH1 0x20 DUP3 DUP5 SUB SLT ISZERO PUSH2 0x1F8A JUMPI PUSH1 0x0 DUP1 REVERT JUMPDEST DUP2 CALLDATALOAD PUSH2 0x1F95 DUP2 PUSH2 0x2430 JUMP JUMPDEST SWAP4 SWAP3 POP POP POP JUMP JUMPDEST PUSH1 0x0 DUP1 PUSH1 0x40 DUP4 DUP6 SUB SLT ISZERO PUSH2 0x1FAF JUMPI PUSH1 0x0 DUP1 REVERT JUMPDEST DUP3 CALLDATALOAD PUSH2 0x1FBA DUP2 PUSH2 0x2430 JUMP JUMPDEST SWAP2 POP PUSH1 0x20 DUP4 ADD CALLDATALOAD PUSH2 0x1FCA DUP2 PUSH2 0x2430 JUMP JUMPDEST DUP1 SWAP2 POP POP SWAP3 POP SWAP3 SWAP1 POP JUMP JUMPDEST PUSH1 0x0 DUP1 PUSH1 0x0 PUSH1 0x60 DUP5 DUP7 SUB SLT ISZERO PUSH2 0x1FEA JUMPI PUSH1 0x0 DUP1 REVERT JUMPDEST DUP4 CALLDATALOAD PUSH2 0x1FF5 DUP2 PUSH2 0x2430 JUMP JUMPDEST SWAP3 POP PUSH1 0x20 DUP5 ADD CALLDATALOAD PUSH2 0x2005 DUP2 PUSH2 0x2430 JUMP JUMPDEST SWAP3 SWAP6 SWAP3 SWAP5 POP POP POP PUSH1 0x40 SWAP2 SWAP1 SWAP2 ADD CALLDATALOAD SWAP1 JUMP JUMPDEST PUSH1 0x0 DUP1 PUSH1 0x0 DUP1 PUSH1 0x80 DUP6 DUP8 SUB SLT ISZERO PUSH2 0x202C JUMPI PUSH1 0x0 DUP1 REVERT JUMPDEST DUP5 CALLDATALOAD PUSH2 0x2037 DUP2 PUSH2 0x2430 JUMP JUMPDEST SWAP4 POP PUSH1 0x20 DUP6 ADD CALLDATALOAD PUSH2 0x2047 DUP2 PUSH2 0x2430 JUMP JUMPDEST SWAP3 POP PUSH1 0x40 DUP6 ADD CALLDATALOAD SWAP2 POP PUSH1 0x60 DUP6 ADD CALLDATALOAD PUSH8 0xFFFFFFFFFFFFFFFF DUP2 GT ISZERO PUSH2 0x206A JUMPI PUSH1 0x0 DUP1 REVERT JUMPDEST DUP6 ADD PUSH1 0x1F DUP2 ADD DUP8 SGT PUSH2 0x207B JUMPI PUSH1 0x0 DUP1 REVERT JUMPDEST PUSH2 0x208A DUP8 DUP3 CALLDATALOAD PUSH1 0x20 DUP5 ADD PUSH2 0x1EED JUMP JUMPDEST SWAP2 POP POP SWAP3 SWAP6 SWAP2 SWAP5 POP SWAP3 POP JUMP JUMPDEST PUSH1 0x0 DUP1 PUSH1 0x40 DUP4 DUP6 SUB SLT ISZERO PUSH2 0x20A9 JUMPI PUSH1 0x0 DUP1 REVERT JUMPDEST DUP3 CALLDATALOAD PUSH2 0x20B4 DUP2 PUSH2 0x2430 JUMP JUMPDEST SWAP2 POP PUSH2 0x20C2 PUSH1 0x20 DUP5 ADD PUSH2 0x1F63 JUMP JUMPDEST SWAP1 POP SWAP3 POP SWAP3 SWAP1 POP JUMP JUMPDEST PUSH1 0x0 DUP1 PUSH1 0x40 DUP4 DUP6 SUB SLT ISZERO PUSH2 0x20DE JUMPI PUSH1 0x0 DUP1 REVERT JUMPDEST DUP3 CALLDATALOAD PUSH2 0x20E9 DUP2 PUSH2 0x2430 JUMP JUMPDEST SWAP5 PUSH1 0x20 SWAP4 SWAP1 SWAP4 ADD CALLDATALOAD SWAP4 POP POP POP JUMP JUMPDEST PUSH1 0x0 PUSH1 0x20 DUP3 DUP5 SUB SLT ISZERO PUSH2 0x2109 JUMPI PUSH1 0x0 DUP1 REVERT JUMPDEST PUSH2 0x1F95 DUP3 PUSH2 0x1F63 JUMP JUMPDEST PUSH1 0x0 PUSH1 0x20 DUP3 DUP5 SUB SLT ISZERO PUSH2 0x2124 JUMPI PUSH1 0x0 DUP1 REVERT JUMPDEST DUP2 CALLDATALOAD PUSH2 0x1F95 DUP2 PUSH2 0x2445 JUMP JUMPDEST PUSH1 0x0 PUSH1 0x20 DUP3 DUP5 SUB SLT ISZERO PUSH2 0x2141 JUMPI PUSH1 0x0 DUP1 REVERT JUMPDEST DUP2 MLOAD PUSH2 0x1F95 DUP2 PUSH2 0x2445 JUMP JUMPDEST PUSH1 0x0 PUSH1 0x20 DUP3 DUP5 SUB SLT ISZERO PUSH2 0x215E JUMPI PUSH1 0x0 DUP1 REVERT JUMPDEST DUP2 CALLDATALOAD PUSH8 0xFFFFFFFFFFFFFFFF DUP2 GT ISZERO PUSH2 0x2175 JUMPI PUSH1 0x0 DUP1 REVERT JUMPDEST DUP3 ADD PUSH1 0x1F DUP2 ADD DUP5 SGT PUSH2 0x2186 JUMPI PUSH1 0x0 DUP1 REVERT JUMPDEST PUSH2 0x16D7 DUP5 DUP3 CALLDATALOAD PUSH1 0x20 DUP5 ADD PUSH2 0x1EED JUMP JUMPDEST PUSH1 0x0 PUSH1 0x20 DUP3 DUP5 SUB SLT ISZERO PUSH2 0x21A7 JUMPI PUSH1 0x0 DUP1 REVERT JUMPDEST POP CALLDATALOAD SWAP2 SWAP1 POP JUMP JUMPDEST PUSH1 0x0 DUP2 MLOAD DUP1 DUP5 MSTORE PUSH1 0x0 JUMPDEST DUP2 DUP2 LT ISZERO PUSH2 0x21D4 JUMPI PUSH1 0x20 DUP2 DUP6 ADD DUP2 ADD MLOAD DUP7 DUP4 ADD DUP3 ADD MSTORE ADD PUSH2 0x21B8 JUMP JUMPDEST DUP2 DUP2 GT ISZERO PUSH2 0x21E6 JUMPI PUSH1 0x0 PUSH1 0x20 DUP4 DUP8 ADD ADD MSTORE JUMPDEST POP PUSH1 0x1F ADD PUSH1 0x1F NOT AND SWAP3 SWAP1 SWAP3 ADD PUSH1 0x20 ADD SWAP3 SWAP2 POP POP JUMP JUMPDEST PUSH1 0x1 PUSH1 0x1 PUSH1 0xA0 SHL SUB DUP6 DUP2 AND DUP3 MSTORE DUP5 AND PUSH1 0x20 DUP3 ADD MSTORE PUSH1 0x40 DUP2 ADD DUP4 SWAP1 MSTORE PUSH1 0x80 PUSH1 0x60 DUP3 ADD DUP2 SWAP1 MSTORE PUSH1 0x0 SWAP1 PUSH2 0x222E SWAP1 DUP4 ADD DUP5 PUSH2 0x21AE JUMP JUMPDEST SWAP7 SWAP6 POP POP POP POP POP POP JUMP JUMPDEST PUSH1 0x20 DUP2 MSTORE PUSH1 0x0 PUSH2 0x1F95 PUSH1 0x20 DUP4 ADD DUP5 PUSH2 0x21AE JUMP JUMPDEST PUSH1 0x20 DUP1 DUP3 MSTORE PUSH1 0x32 SWAP1 DUP3 ADD MSTORE PUSH32 0x4552433732313A207472616E7366657220746F206E6F6E204552433732315265 PUSH1 0x40 DUP3 ADD MSTORE PUSH18 0x31B2B4BB32B91034B6B83632B6B2B73A32B9 PUSH1 0x71 SHL PUSH1 0x60 DUP3 ADD MSTORE PUSH1 0x80 ADD SWAP1 JUMP JUMPDEST PUSH1 0x20 DUP1 DUP3 MSTORE PUSH1 0xA SWAP1 DUP3 ADD MSTORE PUSH10 0x27B7363C9020B236B4B7 PUSH1 0xB1 SHL PUSH1 0x40 DUP3 ADD MSTORE PUSH1 0x60 ADD SWAP1 JUMP JUMPDEST PUSH1 0x20 DUP1 DUP3 MSTORE PUSH1 0x31 SWAP1 DUP3 ADD MSTORE PUSH32 0x4552433732313A207472616E736665722063616C6C6572206973206E6F74206F PUSH1 0x40 DUP3 ADD MSTORE PUSH17 0x1DDB995C881B9BDC88185C1C1C9BDD9959 PUSH1 0x7A SHL PUSH1 0x60 DUP3 ADD MSTORE PUSH1 0x80 ADD SWAP1 JUMP JUMPDEST PUSH1 0x0 DUP3 NOT DUP3 GT ISZERO PUSH2 0x2325 JUMPI PUSH2 0x2325 PUSH2 0x23D8 JUMP JUMPDEST POP ADD SWAP1 JUMP JUMPDEST PUSH1 0x0 DUP3 PUSH2 0x2347 JUMPI PUSH4 0x4E487B71 PUSH1 0xE0 SHL PUSH1 0x0 MSTORE PUSH1 0x12 PUSH1 0x4 MSTORE PUSH1 0x24 PUSH1 0x0 REVERT JUMPDEST POP DIV SWAP1 JUMP JUMPDEST PUSH1 0x0 DUP2 PUSH1 0x0 NOT DIV DUP4 GT DUP3 ISZERO ISZERO AND ISZERO PUSH2 0x2366 JUMPI PUSH2 0x2366 PUSH2 0x23D8 JUMP JUMPDEST POP MUL SWAP1 JUMP JUMPDEST PUSH1 0x0 DUP3 DUP3 LT ISZERO PUSH2 0x237D JUMPI PUSH2 0x237D PUSH2 0x23D8 JUMP JUMPDEST POP SUB SWAP1 JUMP JUMPDEST PUSH1 0x1 DUP2 DUP2 SHR SWAP1 DUP3 AND DUP1 PUSH2 0x2396 JUMPI PUSH1 0x7F DUP3 AND SWAP2 POP JUMPDEST PUSH1 0x20 DUP3 LT DUP2 EQ ISZERO PUSH2 0x23B7 JUMPI PUSH4 0x4E487B71 PUSH1 0xE0 SHL PUSH1 0x0 MSTORE PUSH1 0x22 PUSH1 0x4 MSTORE PUSH1 0x24 PUSH1 0x0 REVERT JUMPDEST POP SWAP2 SWAP1 POP JUMP JUMPDEST PUSH1 0x0 PUSH1 0x0 NOT DUP3 EQ ISZERO PUSH2 0x23D1 JUMPI PUSH2 0x23D1 PUSH2 0x23D8 JUMP JUMPDEST POP PUSH1 0x1 ADD SWAP1 JUMP JUMPDEST PUSH4 0x4E487B71 PUSH1 0xE0 SHL PUSH1 0x0 MSTORE PUSH1 0x11 PUSH1 0x4 MSTORE PUSH1 0x24 PUSH1 0x0 REVERT JUMPDEST PUSH4 0x4E487B71 PUSH1 0xE0 SHL PUSH1 0x0 MSTORE PUSH1 0x31 PUSH1 0x4 MSTORE PUSH1 0x24 PUSH1 0x0 REVERT JUMPDEST PUSH4 0x4E487B71 PUSH1 0xE0 SHL PUSH1 0x0 MSTORE PUSH1 0x32 PUSH1 0x4 MSTORE PUSH1 0x24 PUSH1 0x0 REVERT JUMPDEST PUSH4 0x4E487B71 PUSH1 0xE0 SHL PUSH1 0x0 MSTORE PUSH1 0x41 PUSH1 0x4 MSTORE PUSH1 0x24 PUSH1 0x0 REVERT JUMPDEST PUSH1 0x1 PUSH1 0x1 PUSH1 0xA0 SHL SUB DUP2 AND DUP2 EQ PUSH2 0xB65 JUMPI PUSH1 0x0 DUP1 REVERT JUMPDEST PUSH1 0x1 PUSH1 0x1 PUSH1 0xE0 SHL SUB NOT DUP2 AND DUP2 EQ PUSH2 0xB65 JUMPI PUSH1 0x0 DUP1 REVERT INVALID LOG2 PUSH5 0x6970667358 0x22 SLT KECCAK256 0xD 0xEA SWAP11 0xD5 0xB0 CALLER CREATE CALLVALUE ADDRESS 0x2F SHR EXP 0xA8 SLOAD CALLDATASIZE 0xBE POP 0xF DUP7 PUSH26 0x696D16DB66C2EC330148CA8964736F6C63430008070033000000 ","sha1":"7445328f4d59e67055a7dec1579db012b411d919","source":"// SPDX-License-Identifier: MIT\n\npragma solidity ^0.8.0;\n\nimport './imports.sol';\ncontract ActionNFT is ERC721Enumerable {\n  /* Variables */\n  address payable private beneficiary;\n\n  /* Common NFT */\n  uint256 public currentId;\n  uint256 public rampRate = 10**14;\n  uint256 public commonPrice;\n  mapping(address => uint256) public originalMintCount;\n\n  /* Accounting Data */\n  //uint256 public treasuryBalance;\n  mapping(address => uint256) public withdrawableBalance;\n\n  /* Mint Data */\n  bool public canMint = true;\n  uint256 public mintCap = 3000;\n\n  /* Withdraw Data */\n  uint256 public adminClaimTime;\n  uint256 public withdrawWindow = 24 * 60 * 60 * 30;\n\n  string public commonUrl = 'ipfs://QmTFMJ17s35Y2fHSomdTh29m8CdBPK8Cv8trXnAWTVJ1hc';\n\n  constructor(address payable _beneficiary, uint256 _minPrice)\n    public\n    ERC721('PACDAO ACTION', 'PAC-A1')\n  {\n    beneficiary = _beneficiary;\n    commonPrice = _minPrice;\n\n  }\n\n  function store_withdrawable(address username, uint256 value) internal {\n    uint256 _withdraw = (msg.value * 90) / 100;\n    withdrawableBalance[msg.sender] += _withdraw;\n  }\n\n  /* Payable Functions */\n  function mintCommon() public payable canMintQuantity(1) {\n    require(msg.value >= commonPrice, \"Underpriced\");\n    _processMint();\n    commonPrice = nextPrice(commonPrice);\n    store_withdrawable(msg.sender, msg.value);\n    originalMintCount[msg.sender]++;\n  }\n\n  function mintMany(uint256 _mint_count)\n    public\n    payable\n    canMintQuantity(_mint_count)\n  {\n    (uint256 _expectedTotal, uint256 _expectedFinal) = getCostMany(_mint_count);\n    require(msg.value >= _expectedTotal, \"Underpriced\");\n    for (uint256 _i = 0; _i < _mint_count; _i++) {\n      _processMint();\n    }\n    originalMintCount[msg.sender] += _mint_count;\n    commonPrice = _expectedFinal;\n    store_withdrawable(msg.sender, msg.value);\n  }\n\n  /* Internal */\n  function _processMint() internal {\n    currentId += 1;\n    _safeMint(msg.sender, currentId);\n  }\n\n  function getCostMany(uint256 mint_count)\n    public\n    view\n    returns (uint256, uint256)\n  {\n    uint256 _run_tot = 0;\n    uint256 _cur_val = commonPrice;\n    for (uint256 _i = 0; _i < mint_count; _i++) {\n      _run_tot = _run_tot + _cur_val;\n      _cur_val = nextPrice(_cur_val);\n    }\n    return (_run_tot, _cur_val);\n  }\n\n  function nextPrice(uint256 start_price) public view returns (uint256) {\n    return start_price + rampRate;\n  }\n\n  /* Withdraw Functions */\n\n  function withdrawTreasury() public saleEnded {\n    require(block.timestamp >= adminClaimTime, \"Admin cannot claim\");\n\n    beneficiary.transfer(address(this).balance);\n  }\n\n  function refundAll() public saleEnded {\n    require(block.timestamp < adminClaimTime, \"Withdraw Period Ended\");\n    require(balanceOf(msg.sender) >= originalMintCount[msg.sender], \"Must have original\");\n    require(withdrawableBalance[msg.sender] > 0, \"No balance to withdraw\");\n\n    uint256 _burnCount = originalMintCount[msg.sender];\n    uint256[] memory _ownedTokens = new uint256[](_burnCount);\n\n    for (uint256 _i = 0; _i < _burnCount; _i++) {\n      _ownedTokens[_i] = tokenOfOwnerByIndex(msg.sender, _i);\n    }\n    for (uint256 _i = 0; _i < _burnCount; _i++) {\n      _burn(_ownedTokens[_i]);\n    }\n\n    uint256 _val = withdrawableBalance[msg.sender];\n\n    withdrawableBalance[msg.sender] = 0;\n    payable(msg.sender).transfer(_val);\n  }\n\n\n  function tokenURI(uint256 tokenId) public view override returns (string memory) {\n        require(_exists(tokenId), \"ERC721Metadata: URI query for nonexistent token\");\n\treturn(commonUrl);\n  }\n\n\n\n  /* Admin Functions */\n  function signResolution(bool _resolution) public onlyAdmin {\n    canMint = false;\n\n    // Floor Vote Successful\n    if (_resolution == true) {\n      // Admin can claim immediately\n      adminClaimTime = block.timestamp;\n\n      // Floor Vote Unsuccessful\n    } else {\n      // Withdraw period is active\n      adminClaimTime = block.timestamp + withdrawWindow;\n    }\n  }\n\n  function updateBeneficiary(address payable _newBeneficiary) public onlyAdmin {\n    beneficiary = _newBeneficiary;\n  }\n\n  function setTokenUri(string memory _newUri)\n    public\n    onlyAdmin\n  {\n    commonUrl = _newUri;\n  }\n\n  /* Fallback Functions */\n  receive() external payable {}\n\n  fallback() external payable {}\n\n  /* Modifiers */\n  modifier onlyAdmin() {\n    require(msg.sender == beneficiary, \"Only Admin\");\n    _;\n  }\n  modifier saleEnded() {\n    require(canMint == false, \"Sale ongoing\");\n    _;\n  }\n  modifier canMintQuantity(uint256 _quantity) {\n    require(canMint == true, 'Minting period over');\n    require(totalSupply() + _quantity <= mintCap, 'Insufficient Quantity');\n    _;\n  }\n}\n\n\n\n","sourcePath":"contracts/ActionNFT.sol","type":"contract","deployment":{"address":"0xE60A7825A80509DE847Ffe30ce2936dfc770DB6b","chainid":"1","blockHeight":13267956}}